:020000040800F2
:10000000D8070020A1010008A9010008E71E000888
:10001000AD010008AF010008B101000800000000B8
:10002000000000000000000000000000B301000814
:10003000B501000800000000B7010008D532000833
:10004000BB010008BB010008BB010008BB010008A0
:10005000BB010008BB01000855030008BB010008F4
:10006000BB010008BB010008BB010008BB01000880
:10007000BB010008BB010008BB010008BB01000870
:10008000BB010008BB010008E1020008BB01000839
:10009000BB010008BB010008BB010008BB01000850
:1000A000BB010008BB010008BB010008BB01000840
:1000B000BB010008BB010008BB010008BB01000830
:1000C000BB010008BB010008BB010008BB01000820
:1000D000BB010008BB010008BB010008BB01000810
:1000E000BB010008BB010008BB010008BB01000800
:1000F00091330008BB010008BB010008BB010008E8
:10010000BB010008BB01000855330008BB01000813
:10011000BB010008BB010008BB010008BB010008CF
:10012000BB010008BB010008BB010008BB010008BF
:10013000BB010008BB010008BB010008BB010008AF
:10014000BB010008BB010008BB010008BB0100089F
:10015000BB010008BB010008BB010008BB0100088F
:10016000BB010008BB010008BB010008BB0100087F
:10017000BB010008BB010008BB0100080000000033
:10018000BB010008BB010008DFF810D000F06AF8DE
:100190000048004755370008AFF30080D80700201B
:1001A0000648804706480047FEE7FEE7FEE7FEE711
:1001B000FEE7FEE7FEE7FEE7FEE7FEE7FD320008AA
:1001C000890100082DE9F05F0546002092469B4614
:1001D00088460646814640241BE02846414647465D
:1001E000224600F02FF853465A46C01A914110D3C8
:1001F00011461846224600F016F82D1A67EB010842
:100200004F4622460120002100F00DF817EB0009AF
:100210004E41201EA4F10104DFDC484631462A4647
:100220004346BDE8F09F202A04DB203A00FA02F1A1
:10023000002070479140C2F1200320FA03F31943D4
:1002400090407047202A04DB203A21FA02F0002176
:10025000704721FA02F3D040C2F1200291400843D6
:1002600019467047064C074D06E0E06840F0010370
:1002700094E8070098471034AC42F6D3FFF788FFA4
:10028000603E0008803E000870B58C1810F8015BD5
:1002900015F0070301D110F8013B2A1106D110F81F
:1002A000012B03E010F8016B01F8016B5B1EF9D123
:1002B0002B0705D40023521E0DD401F8013BFAE7A9
:1002C00010F8013BCB1A921C03E013F8015B01F814
:1002D000015B521EF9D5A142D8D3002070BD0000A9
:1002E0000548016811F0040F08BF7047016821F04C
:1002F0000C01016003F0B2B90020014010B40246C5
:1003000008460FFA81FC1CFB0CF40B1413FB034191
:10031000148864438C4224BF10BC704792F8B040EC
:10032000C4EB1161C9B202EB41014A8810BC0CFB5D
:1003300002F14FEAE17C01EB5C41C91361F30F006C
:1003400003FB02F1CA1701EB5241C91361F31F40CD
:100350007047000002490120086003F0D1B9000095
:10036000143C014010B490F83C40B0F968300022D1
:10037000D0F820C0002C48D0DCF828C0B0F880406D
:10038000A44524BF82800A803DD283805FEA030CAB
:1003900038D0A3F5FE44FF3C08BFB0F8822031D02E
:1003A000B0F87AC0A0F87CC00488ACEB040C0FFA5B
:1003B0008CFCA0F878C0B0F894409CFBF4FCA0F84A
:1003C0007EC090F873C0BCF1010F0FD190F840408F
:1003D00090F81AC0644538BFA0F8743004D3C36ED7
:1003E00093FBFCF3A0F8743080F87320B0F974200C
:1003F0000A80438A5A4302EB8202437A52001B046A
:1004000092FBF3F20A80012306E090F80EC080F818
:1004100008C0828000230A80428010BC18467047C2
:10042000B0F90410B0F90020A1F5FE43FF3B11D054
:10043000B0F87A300B44A0F87A30B0F87C300B4436
:10044000A0F87C30B0F87E300B441A440280A0F84B
:10045000701003E0B0F8701011440180B0F9000092
:100460007047026AD16821F00201D160002180F852
:100470003D1080F83E10012380F83C30C18080F8A8
:100480003F1080F8401080F84110A0F87E10C1663F
:1004900080F8723080F8661080F87310B0F8803001
:1004A00093625162116841F001011160D16841F01D
:1004B0000201D16000F08EB870B48289437AB0F83E
:1004C0000AC05A430CFB03F39BB24FF6FF7C0CEAC5
:1004D000430CC3691204016A4FEA1344920CA0F85A
:1004E000924008BF962206D002EB4202520042F22E
:1004F0001075B5FBF2F2A0F8902092B262434FF46F
:100500007A7492FBF4F292B2A0F880201404C0F83E
:1005100088402F4CA0F882C0A4FB036503EB830343
:100520005B00A4FB0343AE08458A9B08B6FBF5F6C7
:10053000B3FBFCF33604C0F88460C0F88C30038B46
:10054000B5FBF3F35B1EA0F89430012380F83C3038
:100550008A624A6942F001024A6100220A610B681C
:1005600043F004030B60CB6843F00203CB60CB681D
:1005700043F00103CB604A620B6A43F001030B6254
:100580000B6843F001030B60837E002B04BF70BC3B
:1005900070474FF0000C13F001011CBFA0F842207F
:1005A0004FF0010C9942A4BF70BC704700EB4C04A3
:1005B0000CF1010CA4F8422000EB4C04891CA4F8B7
:1005C00042200CF1010C9942F0DB70BC7047000036
:1005D000ABAAAAAA70B4D0E90931D0E90C42067DD1
:1005E000D0F838C0C56AA6B12D69AC430CBF012450
:1005F000002484F001041269A4003CEA02020CBF4A
:100600000122002244EA42021B69994316D00021CC
:1006100015E012693CEA020214BF00220122920096
:10062000D5F810C034EA0C0C0CBF4FF0010C4FF0A1
:10063000000C42EA4C021B699943E8D101211143A5
:1006400080F87610C9B2072926D2DFE801F0250A22
:10065000151020041B00C18A41F25552114401803B
:100660001DE0C18A43F6FF721144018017E0C18A80
:1006700046F6AA22114403E0C18AA1F5D441AA3961
:1006800001800CE0C18AA1F57C51FF39F8E7C18AED
:10069000A1F5A8515539F3E7002180F83C100188F5
:1006A000A0F87A1070BC70472DE9F00390F83C1068
:1006B000026A002900F05C81037D90F87610002B1F
:1006C0003BD0D0E90B43D0E90965D0E90DC72469D7
:1006D000A3430CBF0123002383F00103DCF810C007
:1006E0009B0037EA0C0C0CBF4FF0010C4FF0000CD4
:1006F00043EA4C03D6F810C035EA0C0C0CBF4FF09F
:10070000010C4FF0000C43EA0C0300BF80F8763078
:1007100003F0FF084FF0FF34660C012342F6AA25D0
:1007200045F255574FF0000CB8F1070F75D2DFE8CE
:1007300008F0863250417523610000F12803446AB5
:1007400093E8E8103F693CEA070C14BF4FF0000C37
:100750004FF0010C4FEA8C0C2D6936EA05050CBFF1
:10076000012500254CEA450C2469A3430CBF012355
:1007700000234CEA0303C9E7042908BF80F872305C
:100780005BD001295DD180F87240C18A01EB05017F
:10079000A0F87A1055E0052902D0032905D050E0D1
:1007A00080F87230C18A2944F2E780F87240C18A29
:1007B0003944EDE7012902D0022905D041E080F853
:1007C0007230C18A3944E3E780F87240C18A31440B
:1007D000DEE7032902D0062905D032E080F8723026
:1007E000C18A3144D4E780F87240C18AA1F5AA4198
:1007F0005539CDE7022902D0042907D021E080F83D
:100800007230C18AA1F5AA415539C1E780F872401A
:10081000C18AA1F52851AA39BAE710E0062905D006
:10082000052908BF80F8724007D00AE080F87230CE
:10083000C18AA1F52851AA39AAE7C18AA8E780F898
:100840003CC090F83F10F9B190F84010847EA1426E
:1008500004D290F84010491C80F84010516B8CB2C3
:10086000916A90F8415089B290F8417004EB0545C7
:10087000E7B1491C89B290F83E406943002C18BF8B
:1008800080F83EC007D027E090F83F10491C80F860
:100890003F10506B6CE0946AB0F88050AC421BD2B1
:1008A000946A641C946280F83E3015E090F83D70C4
:1008B0002FB1891C89B2694380F83DC00CE0491C06
:1008C00089B26943B4F5AA4F06D2946A24B1946AF6
:1008D000641E946280F83D30D0F88C208A4284BF38
:1008E000A0F8686080F873C040D890F86640C26E87
:1008F00000EB4404B4F94240121BC266D0F88820D1
:10090000914206D390F8661000EB4101A1F842C075
:1009100017E0D0F88420B2FBF1F190F8662000EBEC
:100920004202A2F8421090F8662090F9724000EB63
:10093000420211FB04F109B2A2F84210C26E114446
:10094000C16690F8661000EB4101B1F84210A0F8C2
:10095000681090F86610491CC9B280F86610827E53
:10096000914208BF80F866C080F8733080F841C0BB
:10097000BDE8F0030020704770B50446016A90F8A6
:100980003C0000283ED094F84100401C84F841000F
:10099000886A4FF47A71401C4843B4F89010B4F858
:1009A00092205143B1FBF0F094F8411080B28142A3
:1009B00028D30025A5802046FFF70CFE84F841507F
:1009C000A07EB8B1002110F001001CBFA4F8425075
:1009D0000121A27E82420DDD04EB4102491CA2F8F6
:1009E000425004EB4102801CA2F84250A27E491CF6
:1009F0008242F1DC84F84050A4F86850012084F869
:100A00006600E566002070BD10B490F83C20012A15
:100A100002BF022010BC7047012280F83C200A6807
:100A20000723D0F800C0092A18D9DCF80C400A3A8C
:100A300002EB420203FA02F224EA0202CCF80C2092
:100A40000B788A680A3B03EB430302FA03F302685C
:100A5000D2F80CC043EA0C03D36015E0DCF8104078
:100A600002EB420203FA02F224EA0202CCF810205E
:100A70000B788A6803EB430302FA03F30268D2F8A7
:100A800010C043EA0C0313610268936B23F4401314
:100A900093630268936BB1F810C05B4C04EB0C5C81
:100AA00043EA0C0393630A790B7CD21AD21C02EB43
:100AB00082021F2393400268D2F838C02CEA030355
:100AC00093630A790B7CD21A0B88D21C02EB820248
:100AD0009BB293400268D2F838C043EA0C03936398
:100AE000CA696FF47023DA420268936823F47023B2
:100AF00093600268936808BF23F440130FD0D1F8C5
:100B00001CC043EA0C0393600268936823F440130B
:100B1000936002689368D1F820C043EA0C039360A5
:100B20008A69002A0268536814BF43F4806323F47F
:100B3000806353604A69002A0268536814BF43F413
:100B4000805323F4805353604A68012A1BD0022A41
:100B500026D0032A026830D0136A6FF30B031362A6
:100B60000268136AD1F80CC043EA0C031362284BE5
:100B7000D0F800C0254A9C4504BFD1F800C0BCF1A4
:100B8000120F2CD125E0026853696FF30B035361F8
:100B900002685369D1F80CC043EA0C035361E6E7DD
:100BA000026893696FF30B03936102689369D1F84C
:100BB0000CC043EA0C039361D9E7D3696FF30B03CD
:100BC000D3610268D369D1F80CC043EA0C03D36146
:100BD000CDE7D2F804C04CF4800CC2F804C0D0F8C1
:100BE00000C09C4508D10968102918BF112903D1FC
:100BF000516841F4000151604FF0000180F83C1051
:100C000010BC0846704700000000F0FF00230140C0
:100C10000020014070B504004FF0000504BF012022
:100C200070BD206C002628B9666484F83C602046BC
:100C300000F0A8F8206C10F0100F18BF012503D0A9
:100C400084F83C60284670BD206C20F4885040F049
:100C5000020020644848416821F440314160416805
:100C60006268114341602068416821F480714160ED
:100C700020684168226941EA022141602068416898
:100C800021F04071416020684168A26811434160D1
:100C90002068816821F40061816020688168E268D1
:100CA00011438160A06A6FF07061C842206881685A
:100CB00021F0706181602068816808BF21F0405197
:100CC0000BD0A26A114381602068816821F04051F5
:100CD000816020688168E26A1143816020688168D0
:100CE00021F00201816020688168A26941EA420125
:100CF0008160206A00282068416808BF21F40061F3
:100D00000ED041F4006141602068416821F46041E7
:100D1000416020684168194B626A03EB423211431B
:100D200041602068C16A21F47001C1622068C16A13
:100D3000A28B134B03EB02521143C16220688168FE
:100D400021F40071816020688168226B41EA4221B0
:100D500081602068816821F48061816020688168F9
:100D6000626941EA822181606664206C20F00200A1
:100D700040F00100206463E70023014000E0FFFF32
:100D80000000F0FF70B500680025204940220324D0
:100D90001F4B204EA0F1804C86B0BCF5903C1DD07E
:100DA000DFF874C060451CBF06B070BD086840F431
:100DB000007008600868694600F400700590CDE98D
:100DC00000240295184600F03DF80094694630462C
:100DD000CDE9014500F036F806B070BD086840F472
:100DE000807008600868694600F480700590CDE95D
:100DF00000240295184600F025F800946946304614
:100E0000CDE9014500F01EF806B070BD443802403F
:100E100000000240000402400021014070B5044679
:100E200000F034F90546B4F1FF3F02D004480078E1
:100E3000044400F02BF9401BA042FAD370BD00001F
:100E4000840200202DE9F84F0022884EDFF820E2CE
:100E500001274FF0030A4FF00F0800BF0B6807FA95
:100E600002F42340A34240F0FB80D1F804C0BCF15F
:100E7000020F18BFBCF1120F15D14FEAD20C00EBD4
:100E80008C0CDCF820504FEA42794FEAD96908FA15
:100E900009FB25EA0B05D1F810B00BFA09F949EA6C
:100EA0000505CCF82050D0F800904FEA420C91F89C
:100EB00004B00AFA0CF50BF0030B29EA05090BFA4A
:100EC0000CFB4BEA0909C0F80090D1F80490B9F185
:100ED000010F18BFB9F1020F05D0B9F1110F18BFFA
:100EE000B9F1120F18D1D0F80890D1F80CB029EA56
:100EF00005090BFA0CFB4BEA0909C0F80890D0F879
:100F0000049029EA040491F80490C9F3001909FA3D
:100F100002F949EA04044460C46824EA05048D68BF
:100F200005FA0CFC4CEA040CC0F80CC0D1F804C063
:100F30001CF0805F7ED0D6F800C04CF4804CC6F820
:100F400000C0D6F800C00CF4804CCDF800C022F0F0
:100F5000030C0CF1804505F59835D5F808C84FEA23
:100F600082744FEA147408FA04F92CEA090CA0F10F
:100F70008049B9F5003938D0A0F18049B9F5013977
:100F800008BF4FF0010930D0A0F18049B9F502390E
:100F900008BF4FF0020928D0A0F18049B9F5033904
:100FA00008BF4FF0030920D0A0F18049B9F50439FA
:100FB00008BF4FF0040918D0A0F18049B9F50539F0
:100FC00008BF4FF0050910D0A0F18049B9F50639E6
:100FD00008BF4FF0060908D0A0F18049B9F50739DC
:100FE0000CBF4FF007094FF0080909FA04F444EA6E
:100FF0000C0CC5F808C8DEF800C04C682CEA030CDD
:1010000014F4803F18BF4CEA030CCEF800C0194C12
:10101000D4F800C04D682CEA030C15F4003F18BF4B
:101020004CEA030CC4F800C0134CD4F800C02CEAFE
:10103000030C00E014E04D6815F4801F18BF4CEA63
:10104000030CC4F800C00D4CD4F800C04D682CEA65
:10105000030C15F4001F18BF4CEA030CC4F800C0C1
:10106000521C102AFFF4FAAEBDE8F88F4438024053
:10107000003C0140043C0140083C01400C3C014064
:101080000069084018BF01207047000001488068CF
:1010900070470000840200200248816802781144F1
:1010A00081607047840200200B4810B5016841F44C
:1010B00000710160016841F480610160016841F4E0
:1010C00080710160032000F0A9F8042000F006F808
:1010D00000F024F8002010BD003C024070B50D4D1A
:1010E00004464FF47A712878B1FBF0F00A49096898
:1010F000B1FBF0F000F074FB48B9102C07D20022CD
:101100002146501E00F058F800206C6070BD012090
:1011100070BD000084020020900200201E4808B527
:10112000016841F480410160006800F48040009053
:101130001A48016841F080510160006800F0805059
:101140000090042000F06AF8002211466FF00B00B6
:1011500000F032F8002211466FF00A0000F02CF87F
:10116000002211466FF0090000F026F80022114617
:10117000501F00F021F800221146101F00F01CF84B
:1011800000221146901E00F017F800220421BDE84D
:101190000840481F00F010B8443802404038024070
:1011A00000F01F01012202FA01F14009800000F164
:1011B000E020C0F800117047174B10B41B68C3F350
:1011C0000223C3F1070CBCF1040F88BF4FF0040CDD
:1011D0001C1D072C34BF0023DB1E012404FA0CFC69
:1011E000ACF1010C0CEA0101994004FA03F35B1E17
:1011F0001A40114300284FEA0111A1BF00F1E0207D
:1012000080F8001410BC704700F00F0000F1E020DF
:1012100080F8141D10BC70470CED00E0074900F089
:1012200007000A684FF6FF031A4042EA002040F028
:10123000FD7040F080600860704700000CED00E039
:10124000002804BF012070472DE9F0474D4E0446A9
:101250000F46306801F0FF0800F00F00B84206D2D8
:1012600086F80080306800F00F00B84261D1206835
:10127000454D10F0020F14D010F0040F03D0286871
:1012800040F4E0502860207810F0080F03D0286860
:1012900040F4604028602868A16820F0F00008430E
:1012A0002860207810F0010F37D060683749012896
:1012B00023D0022818BF0328096823D011F0020F99
:1012C00037D0296821F0030141EA00002860FFF7C8
:1012D000DDFE81462868616800F00C00B0EB810FEC
:1012E00018BF41F2883A18D0FFF7D0FEA0EB0900F2
:1012F00050450BD90320BDE8F087096811F4003F81
:10130000DFD116E011F0007FDBD112E028686168C0
:1013100000F00C00B0EB810FE6D1306800F00F0058
:10132000B84209D986F80080306800F00F00B84252
:1013300002D00120BDE8F087207810F0040F05D01E
:101340002868E16820F4E05008432860207810F015
:10135000080F06D02868216920F4604040EAC100E7
:10136000286000F025F82968094AC1F30311515C8F
:10137000C840084908600420FFF7B0FE0020BDE81F
:10138000F0870000003C024008380240003802406C
:10139000403C00089002002001490120C8647047C9
:1013A000000047420148006870470000900200209A
:1013B0001848006810F00C02174808BF704717491A
:1013C000042A04BF08467047082A18BF704710B5A2
:1013D000134C2268236802F03F0213F4800F08D0F8
:1013E00020680023C0F38810A0FB0101FEF7EAFE8D
:1013F00007E021680023C1F38811A1FB0001FEF77B
:10140000E1FE2168C1F30141491C4900B0FBF1F044
:1014100010BD0000083802400024F40000127A00D9
:1014200004380240002804BF012070472DE9F84F1E
:1014300004460078DA4D10F0010F59D0D948016800
:1014400001F00C0104290AD0006800F00C00082803
:101450000ED105F10400006810F4800F08D0286850
:1014600010F4003F44D06068002800F096813FE00F
:101470006068B0F5803F19D0B0F5A02F28680CBF88
:1014800040F4802020F48030286028680CBF40F4AD
:10149000803020F4802028606068B8B1FFF7F6FD46
:1014A0000646286810F4003F05D021E0286840F483
:1014B00080302860F0E7FFF7E9FD801B642800F228
:1014C0002A81286810F4003FF5D011E0FFF7DEFD17
:1014D0000646286810F4003F0AD000BFFFF7D6FD8B
:1014E000801B642800F21781286810F4003FF5D1B2
:1014F0002078AD4F10F0020F4FF0000847D0A948F8
:10150000016811F00C0F16D0006800F00C000828DC
:1015100004D1A648006810F4800F0CD0E06820B316
:101520004FF001003860FFF7B1FD0646286810F063
:10153000020F09D011E0286810F0020F1CBFE0680C
:1015400001280AD000F029B9FFF7A0FD801B02286E
:101550007ED8286810F0020FF6D02868216920F0A4
:10156000F80040EAC100286011E0C7F80080FFF7EA
:101570008DFD0646286810F0020F08D0FFF786FDA3
:10158000801B022864D8286810F0020FF6D120785A
:1015900010F0080F2AD08648864E616999B1012162
:1015A0000160FFF773FD8146306810F0020F1DD116
:1015B000FFF76CFDA0EB0900022849D8306810F055
:1015C000020FF5D012E0C0F80080FFF75FFD814602
:1015D000306810F0020F09D0FFF758FDA0EB0900AA
:1015E000022835D8306810F0020FF5D1207810F0BD
:1015F000040F77D070484FF0000B006810F0805F48
:101600000AD16D48016841F08051016000684FF0D7
:10161000010B00F080500090684E306810F4807F1D
:1016200014D1306840F480703060FFF72FFD8146A0
:10163000306810F4807F09D1FFF728FDA0EB090086
:10164000022868D8306810F4807FF5D05C4E00E046
:1016500061E0A06801281BD0052830680CBF40F06D
:10166000040020F00100306030680CBF40F0010041
:1016700020F00400C6F80000A06841F2883AB8B132
:10168000FFF704FD8146306810F0020F05D021E01D
:10169000306840F001003060EEE7FFF7F7FCA0EBA8
:1016A0000900504537D8306810F0020FF5D011E02E
:1016B000FFF7ECFC8146306810F0020F0AD000BF43
:1016C000FFF7E4FCA0EB0900504524D8306810F087
:1016D000020FF5D1BBF1000F04D03748016821F0AB
:1016E00080510160A069E8B32E49096801F00C013E
:1016F000082952D00228C7F860800FD0FFF7C6FC37
:101700000446286810F0007F44D000BFFFF7BEFCFD
:10171000001B02283AD90320BDE8F88FFFF7B6FC7A
:101720000646286810F0007F09D000BFFFF7AEFC26
:10173000801B0228EFD8286810F0007FF6D1D4E98A
:1017400007010843A16A1F4A490802EB0141626A86
:1017500041EA8211084394F82C1040EA01611348D1
:10176000016000E016E001203866FFF78FFC0446B8
:10177000286810F0007F0DD1FFF788FC001B0228BD
:10178000C9D8286810F0007FF6D003E0286810F070
:10179000007FBBD10020BDE8F88F0120BDE8F88FA5
:1017A0000038024008380240000047420438024036
:1017B000800E4742743802404038024000700040BA
:1017C000703802400000FFFF4FF0E0210428086954
:1017D0000CBF40F0040020F004000861704770471F
:1017E000411EB1F1807F24BF012070474FF0E020FF
:1017F0004161054AF02182F8141D00218161072111
:1018000001610020704700000FE000E010B5FFF715
:10181000E6FF10BD90F83820012A04BF022070476F
:10182000012280F83820CA688B6822F440721A437B
:101830004B6822F480621A430B6822F400621A4358
:101840000B6922F480521A434B6922F400521A4366
:10185000896922F480420A4322F40042114302685B
:101860005164002180F8381008467047002804BFF2
:101870000120704730B5044687B002200D4684F839
:101880003900204600F04BF8211D206801F08CFD46
:10189000AB6829680322206801F088FE206881690E
:1018A00021F00C018161206881696A6811438161BE
:1018B0002068416841F0800141602068816821F022
:1018C000700181602068816841F04001816020687A
:1018D000816821F0070181602068816841F004017E
:1018E0008160002070210590009104900690039083
:1018F0000290E86801906946206801F0B7FD206811
:10190000416821F0700141602068416841F0500158
:101910004160012084F8390007B0002030BD7047D5
:1019200090F83820012A04BF0220704710B4012229
:1019300080F83820022380F839300368D3F804C0D7
:101940002CF0700CC3F804C00368D3F804C00C6812
:101950004CEA040CC3F804C00368D3F808C02CF0A8
:10196000800CC3F808C00368D3F808C049684CEA83
:101970000101996080F83920002180F8381010BCEE
:1019800008467047002804BF0120704710B5044680
:1019900090F8390028B9002084F83800204600F07B
:1019A0000DF8022084F83900211D206801F0FCFCAC
:1019B000012084F83900002010BD000000B5006847
:1019C0000021A0F1804287B0B2F5406211D0A0F1B1
:1019D0008041B1F582311CBF07B000BD10480168DD
:1019E00041F002010160006800F00200059007B0BC
:1019F00000BD0C48026842F008020260006800F076
:101A0000080005904FF4E05000900220CDE901015C
:101A10000390049069460448FFF714FA07B000BD2C
:101A20004438024040380240001C024090F8382000
:101A3000012A0DBF0220012380F83830704730B4EE
:101A4000022280F839200268D2F808C02CF0770C06
:101A50002CF47F4CC2F808C00A68502A41D00CDC34
:101A6000202A77D004DC002A75D0102A74D0B1E087
:101A7000302A72D0402A72D0ACE0602A4ED0702A50
:101A80000BD0B2F5805F03D0B2F5005F17D0A1E0B4
:101A900001688A6822F007023EE00268D1F804C0BB
:101AA0008C68C96895684CEA012125F47F4521437B
:101AB0002943916001688A6842F077022CE002684D
:101AC000D1F804C08C68C96895684CEA012125F4F6
:101AD0007F4521432943916001688A6842F480422E
:101AE0001AE00268D1F804C0C968146A156A25F0C2
:101AF00001051562956924F00A0425F0F00545EA10
:101B0000011144EA0C0C9161C2F820C001688A6896
:101B100022F0700242F057028A605BE00268D1F85E
:101B200004C0CC68116A21F0100111629569116A34
:101B300025F4704545EA043421F0A00141EA0C1176
:101B40009461116201688A6822F0700242F06702B3
:101B50008A603FE02FE01EE025E034E0FFE7026806
:101B6000D1F804C0CC68116A156A25F00105156228
:101B7000956921F00A0125F0F00545EA041441EACF
:101B80000C019461116201688A6822F0700242F0CF
:101B900047028A601EE001688A6822F0700242F003
:101BA00007028A6016E001688A6822F0700242F03B
:101BB00017028A600EE001688A6822F0700242F023
:101BC00027028A6006E001688A6822F0700242F00B
:101BD00037028A6080F83930002180F8381030BC34
:101BE0000846704730B5006885B0A0F18041B1F576
:101BF00082311CBF05B030BDE0200224CDE90004D5
:101C00000325029469460948CDE90345FFF71AF90F
:101C10004FF46040CDE90004029469460448CDE9E0
:101C20000345FFF70FF905B030BD0000002002406A
:101C3000001C024090F83830012B04BF022070478E
:101C40002DE9F001012480F83840022380F8393072
:101C5000844BDFF814C242B1042A45D0082A7DD053
:101C60000C2A00F0C28000F0F3B80268156A25F073
:101C700001051562156A56689769D1F8008027F04A
:101C8000730748EA0707D1F8088025F0020548EAFB
:101C900005059A4218BF624511D1D1F80CC025F054
:101CA00008034CEA030323F00405D1F814C026F41A
:101CB00040734CEA0303D1F818C04CEA030656609F
:101CC00097614B68536315620268936943F0080398
:101CD00093610268936923F0040393610268936936
:101CE000096943EA01013FE00268156A25F0100521
:101CF0001562156A56689769D1F8008027F4E6479F
:101D000047EA0827D1F8088025F0200545EA08159C
:101D10009A4218BF624511D1D1F80CC025F080035A
:101D200043EA0C1323F04005D1F814C026F44063B5
:101D300043EA8C03D1F818C043EA8C0656609761D9
:101D40004B68936315620268936943F4006393617F
:101D50000268936923F48063936100E006E00268FF
:101D60009369096943EA0121916171E00268156A8A
:101D700025F480751562166A5568D769D1F8008018
:101D800027F0730748EA0707D1F8088026F40076A1
:101D900046EA08269A4218BF624511D1D1F80CC014
:101DA00026F4006343EA0C2323F48066D1F814C0C0
:101DB00025F4405343EA0C13D1F818C043EA0C153C
:101DC0005560D7614B68D36316620268D36943F0EC
:101DD0000803D3610268D36923F00403D361026866
:101DE000D369096943EA010131E00268156A25F403
:101DF00080551562176A5568D669D1F8008026F4B7
:101E0000E64646EA0826D1F8088027F4005747EA54
:101E100008379A4218BF624505D1D1F814C025F49D
:101E2000804343EA8C155560D6614B681364176292
:101E30000268D36943F40063D3610268D36923F471
:101E40008063D3610268D369096943EA0121D161E2
:101E500080F839404FF0000180F83810BDE8F001FB
:101E6000084670470000014000040140002804BFFC
:101E70000120704710B5044690F8390028B90020B9
:101E800084F83800204600F00CF8022084F839006D
:101E9000211D206801F088FA012084F83900002013
:101EA00010BD704770B5044690F83800012804BF93
:101EB000022070BD012584F83850022084F83900D2
:101EC000204601F007FB2068C16821F04001C16095
:101ED0002068C16821F48041C16084F83950002035
:101EE00084F8380070BD01F0A9FBFEE710B50C4C7A
:101EF00008212046FFF7C4F838B91420FEF78EFFFA
:101F000008212046FFF7BCF808B1002010BD0821C9
:101F10002046FFF7B5F80028F9D0012010BD0000D9
:101F20000010024010B50C4C10212046FFF7A8F815
:101F300038B91420FEF772FF10212046FFF7A0F8F1
:101F400008B1002010BD10212046FFF799F80028A5
:101F5000F9D0012010BD00000010024070B52B48E0
:101F600086B00025016841F010010160016801F0B0
:101F700010010591016841F010010160016801F054
:101F800010010591016841F010010160016801F044
:101F900010010591016841F010010160016801F034
:101FA00010010591016841F01001016000680124F1
:101FB00000F010000590164ECDE900456946304608
:101FC0000294FEF73FFF0220CDE900056946029426
:101FD0003046FEF737FF0420CDE90005694602943C
:101FE0003046FEF72FFF0820CDE900056946029430
:101FF0003046FEF727FF1020CDE900056946029420
:102000003046FEF71FFF06B070BD000030380240BA
:1020100000100240002808BF704710B50446007E3B
:10202000012818BF10BD207B012804D002280DD044
:10203000032816D017E00121606801F0C7F8E28A92
:10204000B4F90E10606801F053F809E000216068EF
:1020500001F0BCF8E28AB4F91010606801F048F8A9
:1020600008B1022000E00320207610BD0123037395
:10207000C181C282037643767047006801F0C5B81B
:102080008360C0E9001200210173C1810182C18215
:102090000176704710B504460068032101F0BCF8D2
:1020A00000281CBF0121217610BD0068072101F026
:1020B000B3B80000014661F30F0044F6E61211FBCD
:1020C00002F244F6E61311FB23F10A44114449429B
:1020D000C913B1F5004FA8BF47F6FF7104DA11F537
:1020E000004FB4BF054909B261F31F4011F5004F1D
:1020F00004BF48F2010161F31F4070470080FFFFF9
:1021000070B50546084600F059F82AB203B212FB32
:1021100003F14FEA254C05141CFB05F0081AC01307
:102120001649B0F5004FA8BF47F6FF7004DA10F566
:10213000004FB4BF084600B260F30F04104E10F514
:10214000004F08BF66F30F0412FB05F01CFB03F2FF
:102150001044C013B0F5004FA8BF47F6FF7103DA73
:1021600010F5004FA8BF01B2204661F31F4011F5E2
:10217000004F08BF66F31F4070BD00000080FFFFE6
:102180000180FFFF10B50446084600F017F814FB65
:1021900000F12214031412FB03FC61444FEAE13CFA
:1021A00029466CF30F0114FB03F312FB00F0C01A75
:1021B000C01360F31F41084610BD000000F5004148
:1021C000890911F4407C00F50041C1F387121749D9
:1021D000C2F1FF0317D0BCF5807F1DD0BCF5007F96
:1021E0000AD0BCF5407F18BF704731F8133031F882
:1021F000121063F31F400DE031F8122031F8131074
:1022000062F31F400FE031F8122031F813105242F0
:1022100062F31F40494206E031F8133031F81210E2
:102220005B4263F31F4061F30F007047503C0008AE
:1022300001480068FFF721BF000000200348007834
:10224000002808BF704700F003B8000050020020CB
:1022500038B5664C2078012818BF38BD6088002842
:102260001CBF6088401E76D10020ADF80000694692
:102270005F48FEF777F85F4800F0C7FFC01E1028E0
:102280004ED2DFE800F0084E536975989FA3A3A3D0
:10229000A3A3A313202C5848006800F0D9FE1420F3
:1022A000A0801021534800F0B7FF8FE0A0880028DD
:1022B00036D151480021006800F0ACF911214D4899
:1022C00000F0AAFF82E04C480121006800F0A2F96A
:1022D00000287BD01221474800F09EFF76E044485A
:1022E000FEF7BFF80421434800F096FF00286DD0A8
:1022F00042480021016081801038006800F047F9F1
:102300003F480021006800F042F93E48006800F0B4
:10231000E7FE394D286800F03AFA286800F038FEE8
:1023200054E00521334800F077FF4FE0354D286831
:1023300000F0A8FE05F1180188800880062105F14B
:102340001E0000F069FF286800F01BFF281F0068CE
:10235000FFF760FE3AE03AE02B480068FFF75AFECC
:102360002848006800F08EFE2449888008802DE00F
:10237000214D286800F0E8FD05F10800002101600A
:1023800081801038006800F002F9281F00210068E1
:1023900000F0FDF8A5F11000006800F0A1FE28682B
:1023A00000F0F5F94FF44870E080082105F10E00C7
:1023B00000F032FF0AE0E08840B909210D4800F042
:1023C0002BFF03E000210B4800F026FF0320608074
:1023D000A08810B1A088401EA080E088002808BF17
:1023E00038BDE088401EE08038BD0000500200206B
:1023F000040100207A0200206C02002074020020F8
:10240000680200205C020020580200200148006899
:10241000FFF740BE0000002001480068FFF745BEFE
:10242000000000202DE9F35F414D83464FF0000886
:1024300005F1200185F800803E4808600E1F3E48E7
:10244000306000F019FB01F0C1FB05F12A0000F03B
:10245000DEFE3A4800F094F805F110093748C9F853
:10246000000005F10C04364820603648FEF724F8D9
:10247000D9F80010334A206800F098FE324800F086
:102480007FF8324800F07CF804F1080A2E4A04F183
:102490000C072E48CAF80020386004F1180000210B
:1024A000C0F80080A0F80480104600F070F8002109
:1024B000386800F06CF8206800F012FE306800F018
:1024C00066F9206800F065FE6862A4F104082048FF
:1024D000C8F8000004F11803991D2268FFF7D0FD29
:1024E000206800F05EFED8F8003001460022184651
:1024F000FFF7BCFDD8F80000CBF800001548D9F86C
:1025000000100160DAF800104160396881603168BC
:10251000C1600C4901612168416104F11E018161C2
:10252000019908600120287002B0BDE8F09F00000A
:10253000500200209C0100209C0000200800002088
:10254000680000200401002028000020480000202E
:102550009C030020B803002010B5FEF723FF4FF4C2
:10256000FA61B0FBF1F0FFF73BF90449081FFFF7F0
:1025700059FFBDE8104001F0B7BA00000400002088
:10258000018881804188C18000218160704781601D
:102590007047000070B4B0F90420002402FB01F67B
:1025A000B0F90620B0F914C0B0F91630002A04BF03
:1025B0000021816014D085684A43A91805D5002DF3
:1025C000C4BF002A6FF0004103E0002DBCBF002A09
:1025D0000F49C2688A42A5BF026991428260816048
:1025E000827F8168057F41FA02F246FA05F52A44A6
:1025F0006245C4BFACEB0204624603DC9342C4BF35
:102600009C1A1A462144816070BC10B270470000C9
:102610000100008070B50446002511B1012907D0E2
:1026200014E081688847B4F84200A08770B909E0D7
:10263000A08F002808BF012508D0401E0004000C10
:10264000A08703D12169204688470125284670BD0F
:102650004268104730B40AB2B0F840C0091401FB18
:102660000CF1038E49005A4349428B18A1EB020238
:1026700003EBD37302EBD2725B104FEA62024FEAB4
:102680009C0C3FD5002A13DA04214186991ACC17F5
:1026900001EB94310CEBA14CD11702EBD1310CEBD7
:1026A0006142D91703EBD131ACEB6143816A68E039
:1026B000002913DC032343868B1ADC1703EB9433C6
:1026C0000CEBA34CD31702EBD332CB170CEB6242CB
:1026D00001EBD331A2EB6143416A52E00222428610
:1026E0005A1AD41702EB94320CEBA24CDA1703EB14
:1026F000D232ACEB6243CA1701EBD23103EB614239
:10270000016A3EE0002A13DB01214186991ACC17A9
:1027100001EB94310CEBA14CD11702EBD1310CEB56
:102720006142D91703EBD131ACEB6143C16928E0B9
:10273000002913DC052242865A1AD41702EB943280
:102740000CEBA24CDA1703EBD232ACEB6243CA17A4
:1027500001EBD23103EB6142C16A12E000234386F0
:102760008B1ADC1703EB94330CEBA34CD31702EB5F
:10277000D332CB170CEB624201EBD331A2EB6143B6
:102780008169A0F834C0C286038730BC08478168DD
:102790000847000070B4416E4FF0000C8968C0F823
:1027A00044C0C0F848C0C0F84CC080F85BC00A6A9A
:1027B0004EF6AA231A400A62474A4260426E474BCD
:1027C0001279D2030265426E5279D2034265426E9B
:1027D000926880F83AC01C6824F00C041C60D3F89E
:1027E000004124F00C04C3F800416FF001051561AD
:1027F000D46844F00104D460546C44F4004454643C
:1028000090F85B201024102A09D2CA6812F0010F38
:1028100008BF80F85B4090F85B20102AF5D380F861
:102820005BC02F4A4260426E9679F6030665967940
:10283000F6034665926880F83AC0D3F800C02CF0E1
:102840000C0CC3F800C0D3F800C12CF00C0CC3F87A
:1028500000C11561D36843F00103D360536C43F4A6
:102860000043536490F85B20082A09D2CA6812F02A
:10287000010F08BF80F85B4090F85B20082AF5D371
:10288000426CD2084264826CD2088264C26CD20864
:10289000C264144A42608B694FF2F77213408B6135
:1028A000CB691A40CA61B0F858204A63B0F8582082
:1028B0008A63B0F85800C8638A6940F6080002438A
:1028C0008A61CA691043C861086A40F255521043D0
:1028D000086270BC70470000F52900080020014024
:1028E000392A0008E928000830B4436E00229B68AA
:1028F0005B0103F18443C3F8302480F85A2090F838
:1029000032403A4A3A4B47F6FF7C062C24BF30BC93
:102910007047DFE804F0284D4D030328D46B456C65
:10292000A5EB440414F5004FD8BF0B8005DDB4F5CA
:10293000004FACBFA1F800C00C80D2F83C21806CE5
:10294000A0EB420010F5004F02DC4B8030BC70471A
:10295000B0F5004F04DB00BFA1F802C030BC7047E7
:10296000488030BC7047D46B856CA5EB440414F5EB
:10297000004FD8BF4B8005DDB4F5004FACBFA1F8C8
:1029800002C04C80D2F83C21C06CC0EB4200B1F9CF
:102990000220801AB0F5004FA2BFA1F800C030BCE1
:1029A000704710F5004FD4BF0B80088030BC7047D3
:1029B000D46B456CA5EB440414F5004FD8BF0B80D5
:1029C00005DDB4F5004FACBFA1F800C00C80D2F813
:1029D0003C21C06CC0EB4200B1F90020801AB0F578
:1029E000004FB9DA10F5004FBADCAEE70020014025
:1029F0000180FFFF426E00219268520102F1844281
:102A0000C2F8301480F85A1090F85B10102928BFD3
:102A100070470849426CCB6B1A444264826CD1F80F
:102A20003C111144816490F85B10491C80F85B10E4
:102A30007047000000200140426E00219268520160
:102A400002F18442C2F8301480F85A1090F85B10FA
:102A5000082928BF70470749C26CCB6B1A44C2646F
:102A6000D1F83C111144C16490F85B10491C80F806
:102A70005B10704700200140F0B4416E89680A681D
:102A800022F001020A603A4A01F118044FF0080CE2
:102A900013781D19D31D2E681F780CFA07F73E43D3
:102AA0002E6095789F7825440CFA07F72E683E43F0
:102AB0002E6015791F7925440CFA07F72E683E43DE
:102AC0002E6092799B7922440CFA03F31468234315
:102AD00013604A6942F001024A61426E9378022B08
:102AE00003D090F83E2082B114E0D378012B04BFCC
:102AF000927B032A09D14FF001020A634A6942F02E
:102B000001024A614FF003020A63B0F85820A2F1B3
:102B100001024A62416E174A8B6817499342CB689B
:102B20000CBF43F0010343F00203CB6013498B68F1
:102B300043F001038B60124BD3F808C04CF0010C3A
:102B4000C3F808C06FF004030B604B6843F08003C8
:102B50004B60436E89689B68934221F47C11016647
:102B60000CBF41F4801141F4F011C165F0BC704715
:102B7000503E000800000140002004E00020014019
:102B800000210140F0B4416E4FF480128C68C16D99
:102B900021F44011C165B0F85830818EA3EB010CCF
:102BA0001FFA8CF6D0F864C0BCF81050AE420DD9B4
:102BB0000321418699B29CF80430491EDB0303656A
:102BC0009CF8053089B2DB0343651BE0C78ECF1B41
:102BD000BFB2B7EB460F84BFBCF81230C91A08D891
:102BE000294489B2994205D3C1EB43014FF4001245
:102BF000491E89B29CF80530DB0303659CF806305A
:102C0000DB034365C36D1A43C2652164416E828E46
:102C100089684A63C28E8A63028FCA6390F85A0039
:102C2000002818BF0120F0BC7047F0B4416E4FF48B
:102C300080128C68C16D21F44011C165B0F8583024
:102C4000C18EA3EB010C1FFA8CF6D0F864C0BCF85F
:102C50001050AE420DD90321418699B29CF8043040
:102C6000491EDB0303659CF8053089B2DB0343652D
:102C70001BE0878ECF1BBFB2B7EB460F84BFBCF8FB
:102C80001230C91A08D8294489B2994205D3C1EB38
:102C900043014FF40012491E89B29CF80430DB0353
:102CA00003659CF80630DB034365C36D1A43C265B8
:102CB0002164416E828E89684A63C28E8A63028F64
:102CC000CA6390F85A00002818BF0120F0BC704772
:102CD000F0B4416E4FF480128C68C16D21F4401144
:102CE000C165B0F85830C18EA3EB010C1FFA8CF609
:102CF000D0F864C0BCF81050AE420DD90321418613
:102D000099B29CF80430491EDB0303659CF805303A
:102D100089B2DB0343651BE0078FCF1BBFB2B7EB64
:102D2000460F84BFBCF81230C91A08D8294489B2AA
:102D3000994205D3C1EB43014FF40012491E89B2F9
:102D40009CF80430DB0303659CF80630DB03436525
:102D5000C36D1A43C2652164416E828E89684A63DD
:102D6000C28E8A63028FCA6390F85A00002818BF87
:102D70000120F0BC7047F0B4416E4FF480128C68B3
:102D8000C16D21F44011C165B0F85830018FA3EB3B
:102D9000010C1FFA8CF6D0F864C0BCF81050AE429B
:102DA00005D90321418699B2491E89B213E0C78E25
:102DB000CF1BBFB2B7EB460F84BFBCF81230C91AA5
:102DC00008D8294489B2994205D3C1EB43014FF495
:102DD0000012491E89B29CF80430DB0303659CF89D
:102DE0000530DB034365C36D1A43C2652164416E40
:102DF000828E89684A63C28E8A63028FCA6390F8A2
:102E00005A00002818BF0120F0BC7047F0B4416E92
:102E10004FF480128C68C16D21F44011C165B0F887
:102E20005830018FA3EB010C1FFA8CF6D0F864C068
:102E3000BCF81050AE4205D90321418699B2491E13
:102E400089B213E0878ECF1BBFB2B7EB460F84BFAA
:102E5000BCF81230C91A08D8294489B2994205D35E
:102E6000C1EB43014FF40012491E89B29CF80430B3
:102E7000DB0303659CF80530DB034365C36D1A4330
:102E8000C2652164416E828E89684A63C28E8A63FC
:102E9000028FCA6390F85A00002818BF0120F0BCC6
:102EA0007047F0B4416E4FF480128C68C16D21F40C
:102EB0004011C165B0F85830818EA3EB010C1FFAA8
:102EC0008CF6D0F864C0BCF81050AE420DD9032186
:102ED000418699B29CF80430491EDB0303659CF8D7
:102EE000053089B2DB0343651BE0078FCF1BBFB200
:102EF000B7EB460F84BFBCF81230C91A08D8294472
:102F000089B2994205D3C1EB43014FF40012491E27
:102F100089B29CF80530DB0303659CF80630DB03BF
:102F20004365C36D1A43C2652164416E828E896810
:102F30004A63C28E8A63028FCA6390F85A000028DF
:102F400018BF0120F0BC7047416E0022896880F8EC
:102F50003A20C86820F00100C860086A4FF6AA222B
:102F600010400862086910F0010F07D1C86810F01E
:102F7000010F04BF086910F0010FF7D0486C20F46E
:102F800000404864086A40F2555210430862704796
:102F9000416E0022896880F83A200B48026822F0CE
:102FA0000C020260D0F8002122F00C02C0F80021CF
:102FB0006FF001000861C86840F00100C860486C0B
:102FC00040F400404864704700200140D0F864C0DD
:102FD0000121DCF8082080F85A101C490B6803F026
:102FE0000C03082B05D0002B08BFBCF8003006D01E
:102FF00013E00B6803F00C030C2BFAD10DE0D2F8B0
:1030000024C09C45FBD30B6803F00C03082B04D1B0
:103010000B6803F00C030C2BFAD150F8603F8B6067
:1030200050F80439C1F80831136A43F4805313622D
:1030300002688A6050F80C29C1F8082150F8042B66
:103040008A6350F81629C1F83821704700200140E2
:10305000416E0122896880F83A20D01E0861002064
:1030600048638863C863086910F0010FFBD0486C9F
:1030700040F4004048647047B0F902007047B0F96E
:103080000000704770B50546007800280CBFAC689A
:103090006C68E968012904D9AA69A1F10101144405
:1030A00005E005D169884FEA01444FF00001E9606D
:1030B000012805D0E01704EB10400014AC6070BD8F
:1030C000E01704EB104006146869FFF7D5FF301ACB
:1030D00001B22869FFF75EFA0104C5E9014170BD3C
:1030E0000178012918BF704700690021FFF74FBA26
:1030F00030B4047801235CB1D0F804C0C58B4FEA2A
:103100002C4C8D42A4BFB0F92450A94217DA14E028
:10311000D0F808C04FEAEC750CEB154CC58C4FEAA3
:103120002C4C8D4205DAB0F928500023A9421DDA53
:1031300003E0B0F92850A94208DA002316E0058C14
:10314000A942BCBFB0F922508D42F6DB8AB1418062
:10315000848BA1EB0C0162434FF47A74B2FBF4F25E
:10316000521C090491FBF2F1C260816130BC184627
:1031700070470904012C14BF816041600021C160C7
:10318000F3E710B504464069FFF776FF000460607E
:1031900010BD0146C28D098E62F30F0061F31F401E
:1031A0007047B0F92C00704740697047C0E90412BD
:1031B00090F82A100170818D09044160C18D0904C5
:1031C000816000214180C1608161704701700021F0
:1031D000C1607047B0F802C003784CEA010C2CEAD9
:1031E00002024280B0F804C00A2B4CEA010181803F
:1031F00005D012B10A2101700B4618467047002A0B
:10320000FBD10B2101700B46F7E7007870470021D6
:103210000170418081807047024600201378132B93
:103220003AD2DFE803F00A39390D252A2F32353832
:10323000393939393939161B2000032943D02EE09A
:10324000072918BF10293ED0042918BF11293AD0E8
:1032500022E0112918BF072935D01DE0122918BF17
:10326000072930D018E0042918BF07292BD013E014
:10327000052918BF072926D00EE0062918BF0729FF
:1032800021D009E007291ED006E008291BD003E061
:10329000092918D000E0B1B1032908BF70470729F8
:1032A00008BF704751880A2B41F0800151809188F6
:1032B00041F080019180518807D0002914BF0A2174
:1032C0007047117070470120FBE7002908BF0B21F0
:1032D000F7D0704710B5084C2078022805D1FDF7CB
:1032E000DBFEFEF793FA00202070C0B2401C207075
:1032F000BDE81040FEF7A2BF800200200F48016821
:1033000041F4700101600E48016841F00101016063
:103310000C4A00211160026822F4102222F080720F
:103320000260031D084A1A60026822F480220260CB
:1033300006480160064958060860704788ED00E0BD
:103340000038024008380240103000240C38024097
:1033500008ED00E010B50D4C206A016911F0010F75
:1033600005D06FF0010101612046FDF705FB206AE1
:10337000016911F0020F08BF10BD6FF00201016179
:10338000BDE810400148FDF78FB90000040100209E
:1033900004486FF00101406E806801610148FFF749
:1033A00015BE00009C000020F0B402682A4B2B4C94
:1033B0002B4D2C4EDFF8B0C0984218BFB0F1804FB3
:1033C00007D0A04218BFA84203D0B04218BF604542
:1033D00004D14F6822F0700247EA0202984218BFF7
:1033E000B0F1804F25D0A04218BFA84221D0B042F2
:1033F00018BF60451DD0A0F18044B4F5A0341CBFB7
:10340000A0F18044B4F5A23413D0A0F18044B4F507
:10341000A4341CBFA0F18044B4F5C05409D0A0F17D
:103420008044B4F5E0541CBFA0F18044B4F50054CE
:1034300003D1CC6822F44072224302608A68C262DF
:103440000A688262984212BF6045096901634FF0C1
:1034500001014161F0BC70470000014000040040E0
:1034600000080040000C00400004014010B4026A53
:1034700022F010020262026A4368D0F818C00C6899
:103480002CF4E64C4CEA042C8C6822F0200242EA30
:103490000412A0F18044B4F580341CBFA0F1804434
:1034A000B4F582340ED1CC6822F0800242EA0412D4
:1034B0004C6923F4406343EA84038C6922F04002A0
:1034C00043EA84034360C0F818C04968816302621C
:1034D00010BC704703689A68D1F804C022F07002EB
:1034E0004CEA0202D1F800C022F007024CEA0202C4
:1034F0009A604A6812F00F0F18BF70471211082A1D
:1035000028BF7047DFE802F01212121213273D04A1
:103510000068D1E902230969D0F808C042EA012114
:103520002CF47F4C194341EA0C018160704702681A
:10353000136AD2F820C02CF0010CC2F820C0026837
:10354000D2F818C009692CF0F00C4CEA0111916115
:1035500000680362704700680B698A68016AD0F8E6
:1035600020C02CF0010CC0F820C0D0F818C021F009
:103570000A012CF0F00C4CEA031311438361016241
:10358000704700688A680969036A23F010030362C0
:103590008369D0F820C023F4704343EA01312CF052
:1035A000A00343EA021281610262704730B4D0F88E
:1035B00020C02CF0010CC0F820C0D0F818C0046A5C
:1035C000A0F18045B5F5803518BFB0F1804F21D00E
:1035D000A0F18045B5F580651CBFA0F18045B5F52B
:1035E000006517D0A0F18045B5F540651CBFA0F17E
:1035F0008045B5F582350DD0A0F18045B5F5A035F3
:103600001FBFA0F18045B5F5C0552CF0030242F074
:10361000010203D12CF0030C4CEA02024FF0F00C33
:1036200022F0F0020CEA03131A4324F00A0301F01B
:103630000A0119438261016230BC7047054810B528
:103640000068FFF781FC0022BDE81040802102489D
:10365000FFF7C0BD6C0200207A0200202DE9F8437C
:1036600000252448FCF7DCFE23480068FFF79CFD9A
:10367000FFF705FDDFF8849006466946D9F800009B
:10368000FEF7E6FF0098FEF715FD3146FEF738FD20
:1036900009F108078046B7F900000FFA88F1411ACE
:1036A000A7F110000068FEF775FF60F30F04B7F98B
:1036B0000200A0EB2841A7F10C000068FEF76AFFAA
:1036C000214660F31F41381F0068FCF717FE3146A2
:1036D000FEF758FDD9F8002001461046FEF7BAFF64
:1036E000012804D100220121B81DFFF773FD2846EF
:1036F000BDE8F883040100205C0200206C02002079
:1037000010B5FEF795FD18B1BDE81040FEF784BE78
:10371000BDE81040FEF77ABE0A4642F6AB2110FB28
:1037200001F00114A1EBE07101480068FEF79EBCB6
:103730000000002002E008C8121F08C1002AFAD1C8
:1037400070477047002001E001C1121F002AFBD121
:103750007047000096B0FDF7A7FCD448002401682C
:1037600041F080510160006800F080501190D04815
:10377000016841F4804101600068022500F4804046
:10378000119001200090000401908001CDE90650C5
:1037900004200890A820CDE9090504200B90684674
:1037A000FDF740FE0F20CDE90C054FF4A050CDE908
:1037B0000E40E802109005210CA8FDF741FDFDF731
:1037C000EBFDFDF7EFFD4FF47A71B0FBF1F0FEF782
:1037D00007F80420FDF7F8FF04210022481FFDF739
:1037E000EBFCFEF7BBFBB348016841F01001016040
:1037F000016801F010010591016841F002010160CA
:10380000016801F002010591016841F480710160D5
:10381000016801F480710591016841F08001016047
:10382000016801F080010591016841F00401016027
:10383000016801F004010591016841F00101016096
:103840000068694600F001000590012000909A4848
:10385000CDE901049948FDF7F5FA9A4998480860BE
:10386000E8034860084684600120086108468461D6
:103870000462C46294488862C7020846C760C56192
:103880000463012048610846FDF7C4F94FF00608BB
:103890000120CDF80080CDE9010400054FF4602936
:1038A000CDE907900120CDE905040326CDE90346C3
:1038B00069468448FDF7A8F84FF0080ACDE900A54D
:1038C00069468048FDF7A0F84FF0090BCDE900B636
:1038D00069467C48FDF798F87D487C490160E9031A
:1038E000C0E9011484610121046201617649C76065
:1038F000C0E90A140121C16104634161FDF78AF93D
:103900000120CDF80080CDE901040005CDE9079044
:103910000120CDE90504CDE9034669466C48FDF771
:1039200073F8CDE900A569466948FDF76DF8CDE962
:1039300000B669466648FDF767F867486549C0E91B
:1039400000144FF6FF71C0E902410461FEF71AF856
:10395000E802049004A96048FEF768F80F2000947C
:10396000CDE9014069465C480394FDF77FFF502094
:10397000CDE9080408A95848FDF7D2FF584857492F
:10398000ED01C0E900142021816041F23A21C0E933
:10399000031501214161FDF7F5FF5148FEF766FA75
:1039A0001026CDE90E860EA94D48FEF77BFA149439
:1039B00014A94B481594FDF7B3FF6020CDE900042E
:1039C00002940394049405940022694644480694A2
:1039D000FEF730F9042269464148FEF72BF9082228
:1039E00069463F48FEF726F97020009041F23F10EB
:1039F00001900C2269463A48FEF71CF9A8000D9484
:103A0000CDE90805CDE90A6407970C9407A9344865
:103A1000FDF700FF3248FEF7E5F8FEF79DFD0022B6
:103A200002211220FDF7C8FB1220FDF7B9FB00228E
:103A300011462C20FDF7C0FB2C20FDF7B1FB002226
:103A400003213220FDF7B8FB3220FDF7A9FB00224D
:103A500011460620FDF7B0FB0620FDF7A1FB4FF451
:103A6000FA70FDF7DBF9FEF7D1FC4FF4FA60FDF7D1
:103A7000D5F94FF47A714800FFF74EFE4FF4FA6023
:103A8000FDF7CCF9174C00BFFEF74CFA012806D120
:103A90004FF47A712046FFF73FFEFEF7B7FCFEF7C2
:103AA00025FA012808BFFEF7B7FCEDE740380240D1
:103AB0000070004030380240000011100010024039
:103AC00000200140940200200100000F002101406D
:103AD000DC020020000C0040240300200004014010
:103AE0006003002018FCFFFF314881B04FF4903193
:103AF0004FF40052C161C261C161C16900914FF4CC
:103B0000A0315200C161C261C161C16900914FF42D
:103B1000C0315200C161C261C161C16900912649D1
:103B2000244A2023CA61CB61CA61CA690092234A30
:103B30004023CA61CB61CA61CB690093204B4FF02F
:103B4000800CCB61C1F81CC0CB61C96900914FF4F6
:103B500088318314C161C361C161C16900914FF4AF
:103B600082310315C161C361C161C16900914FF424
:103B70008431C314C161C361C161C069009011483F
:103B80004021C261C161C261C06900900E484FF01E
:103B900001120121C261C161C261C16900910221AA
:103BA000521CC261C161C261C069009001B070471E
:103BB000001C0240200001000020024040000100E3
:103BC000800001000000024000040240164981B05C
:103BD000086810F0010F4FF0804013D04168426830
:103BE00001F0700122F0700242F02002426042694E
:103BF00042F001024261426822F0700211434160CA
:103C000001B070470A6842F001020A600A6802F0D7
:103C100001020092426942F001024261086820F00C
:103C20000100086001B07047403802400000010107
:103C3000060809000004014000000100CE0129002F
:103C4000000000000000000001020304060708094C
:103C50000000C90092015B022403ED03B6047F0556
:103C600048061107D907A2086A09330AFB0AC40BE0
:103C70008C0C540D1C0EE30EAB0F72103A11011296
:103C8000C8128F1355141C15E215A8166E17331899
:103C9000F918BE19821A471B0B1CCF1C931D571E07
:103CA0001A1FDD1F9F2061212322E522A6236724FE
:103CB0002825E825A82667272628E528A329612A9C
:103CC0001F2BDC2B992C552D112ECC2E872F4130FC
:103CD000FB30B5316E322633DF3396344D35043642
:103CE000BA366F372438D9388C39403AF23AA53B86
:103CF000563C073DB83D683E173FC53F73402141E4
:103D0000CE417A422543D0437A442445CD45754679
:103D10001C47C34769480F49B449584AFB4A9D4B61
:103D20003F4CE04C814D204EBF4E5D4FFB4F9750B6
:103D30003351CE51685202539B533254C95460558B
:103D4000F5558A561D57B0574258D3586459F35900
:103D5000825A0F5B9C5B285CB35C3E5DC75D4F5E27
:103D6000D75E5D5FE35F6860EB606E61F06171621A
:103D7000F1627063EE636C64E8646365DD655666EA
:103D8000CF664667BC673268A66819698B69FD69AA
:103D90006D6ADC6A4A6BB76B236C8E6CF86C616D74
:103DA000C96D306E966EFB6E5E6FC16F2270837050
:103DB000E27040719D71F9715472AE7207735E7357
:103DC000B5730A745F74B27404755575A575F3758F
:103DD00041768D76D87622776B77B377FA773F780E
:103DE0008478C77809794A798979C879057A417AD6
:103DF0007C7AB67AEE7A267B5C7B917BC57BF87BFE
:103E0000297C597C887CB67CE37C0E7D397D627D83
:103E1000897DB07DD57DFA7D1D7E3E7E5F7E7E7E76
:103E20009C7EB97ED57EEF7E097F217F377F4D7FD7
:103E3000617F747F867F977FA67FB47FC17FCD7FB0
:103E4000D87FE17FE97FF07FF57FF97FFD7FFE7FFF
:103E50000000000004040400000800000008000046
:103E6000803E000800000020940200008802000844
:103E7000BC3F0008940200204405000044370008BD
:103E8000811264A23223851320097BECFF85137B0A
:103E9000EC101301041208957C08E80714C0FF1FFA
:103EA000124016E0FF7F0180120413400A0A1F0E21
:103EB00020011C45F401F4012B0CFE721201A35ADF
:103EC000FF13E9281408492F1B08910413952714A0
:103ED0000851301408852B14082B2C1B08D104130F
:103EE000772D14080D2E1B08A304E34A7E031675D4
:103EF00024A33A121B2C3CDD8124043E0212C82567
:103F0000FFFF5046265555F4010614BD01051A0C55
:103F1000CE1C1C0240CC21290829322908025E103F
:103F2000008B26277CE37ECE7DC07CB87BB77A39B8
:103F30007A41794F7863777B769975BC74E4731016
:103F400073A872DB7113714E708D6FD16E176E6234
:103F50006DB06C586CAB6B016B5A6AB669156977BA
:103F600068DC674367F8666366D1654165B46429B8
:103F700064A063196394625362D1615161D4605843
:103F800060DE5F665FEF5E7A5E415ECF5D5E5DEF35
:103F90005C815C155CAB5B425BDA5AA65A415ADC29
:103FA0005979591859B7585858F9579D5702333C01
:0C3FB0003202320182101324F4000000E1
:040000050800018965
:00000001FF
