:020000040800F2
:10000000300D0020A1010008A901000841240008CA
:10001000AD010008AF010008B101000800000000B8
:10002000000000000000000000000000B301000814
:10003000B501000800000000B7010008414B0008AE
:10004000BB010008BB010008BB010008BB010008A0
:10005000BB010008BB0100086D040008BB010008DB
:10006000BB010008BB010008BB010008BB01000880
:10007000BB010008BB010008BB010008BB01000870
:10008000BB010008BB01000805030008BB01000814
:10009000BB010008BB010008BB010008BB01000850
:1000A000BB010008BB010008BB010008BB01000840
:1000B000BB010008BB010008BB010008BB01000830
:1000C000BB010008BB010008BB010008BB01000820
:1000D000BB010008795C0008BB010008BB010008F7
:1000E000BB010008BB010008BB0100089D4C0008D3
:1000F000C94C0008BB010008BB010008BB01000897
:10010000BB010008BB010008614C0008BB010008EE
:10011000BB010008BB010008BB010008BB010008CF
:10012000BB010008BB010008BB010008BB010008BF
:10013000BB010008BB010008BB010008BB010008AF
:10014000BB010008BB010008BB010008BB0100089F
:10015000BB010008BB010008BB010008BB0100088F
:10016000BB010008BB010008BB010008BB0100087F
:10017000BB010008BB010008BB0100080000000033
:10018000BB010008BB010008DFF810D000F07CF8CC
:10019000004800470D5D0008AFF30080300D0020DF
:1001A0000648804706480047FEE7FEE7FEE7FEE711
:1001B000FEE7FEE7FEE7FEE7FEE7FEE7094C000884
:1001C000890100082DE9F05F0546002092469B4614
:1001D00088460646814640241BE02846414647465D
:1001E000224600F041F853465A46C01A914110D3B6
:1001F00011461846224600F028F82D1A67EB010830
:100200004F4622460120002100F01FF817EB00099D
:100210004E41201EA4F10104DFDC484631462A4647
:100220004346BDE8F09FD2B201E000F8012B491E21
:10023000FBD270470022F6E710B513460A46044683
:100240001946FFF7F0FF204610BD202A04DB203AB4
:1002500000FA02F1002070479140C2F1200320FA19
:1002600003F3194390407047202A04DB203A21FA17
:1002700002F00021704721FA02F3D040C2F12002BF
:100280009140084319467047064C074D06E0E06868
:1002900040F0010394E8070098471034AC42F6D3CD
:1002A000FFF776FFE86400080865000870B58C1851
:1002B00010F8015B15F0070301D110F8013B2A117A
:1002C00006D110F8012B03E010F8016B01F8016B67
:1002D0005B1EF9D12B0705D40023521E0DD401F863
:1002E000013BFAE710F8013BCB1A921C03E013F82C
:1002F000015B01F8015B521EF9D5A142D8D3002061
:1003000070BD00000D4810B5016811F0040F09D050
:10031000016821F00C01016004F03CFEBDE81040D2
:1003200005F02EB9D0F8001221F00C01C0F800122F
:1003300004F030FEBDE8104005F022B90020014075
:1003400010B4024608460FFA81FC1CFB0CF40B1497
:1003500013FB0341148864438C4224BF10BC7047D4
:1003600092F8B040C4EB1161C9B202EB41014A8876
:1003700010BC0CFB02F14FEAE17C01EB5C41C913BC
:1003800061F30F0003FB02F1CA1701EB5241C913DD
:1003900061F31F40704700002DE9F04104461F4DF6
:1003A000C08EEE134FF47007012817D1204694F841
:1003B000301005F049F906FA80F197FAA7F27001BA
:1003C000B2FA82F2D04005EB800082686FF30F1220
:1003D00011438160686840F001006860208F012847
:1003E00018BFBDE8F081204694F8311005F02CF9D3
:1003F00006FA80F197FAA7F24FF48000B2FA82F27F
:10040000D04005EB800082686FF30F1211438160CA
:10041000686840F002006860BDE8F0810074004048
:10042000084490F83000704700EB4100B0F932000A
:1004300070470000C28E0849012A03D10A6842F0C1
:1004400001020A60008F012818BF7047086840F455
:10045000803008607047000000740040084480F855
:100460003020704700EB410042867047024901206E
:10047000086005F09FBA0000143C014070B40021F0
:1004800038B346780178731E3144002B18DD421CC6
:1004900016F0010F02D112F801CF614454784FF0E9
:1004A000000C5B100AD000BF12F8025F21445478A0
:1004B000AC4489B21FFA8CFC5B1EF5D1614489B251
:1004C000721E03D410448078084481B201EB1120DD
:1004D000C1B270BC08467047002141820175417568
:1004E00080F8961080F8971080F8981080F899108E
:1004F00080F89A1080F81B1180F81C1180F81D11EB
:100500007047DDF800C0002818BF80E80E10704763
:1005100010B5044600EB440000EB04121248002121
:1005200000EB4202114811605160D1601161D1832A
:10053000C2F81610C2F81A10118450F8240002F004
:1005400077FF0B48002150F8240002F071FF0948A2
:1005500050F8240004F0B4F9074850F82400BDE82E
:10056000104003F0D1B800009C070020F4050020E3
:10057000F8050020EC0500200406002070B50D46AB
:100580000446B0F96C1090F84030426A0020002B0D
:1005900046D0926AB4F884309A4224BFE080288022
:1005A00038D2E1800A0034D0A1F5FE43FF3B08BFFA
:1005B000B4F886002DD0B4F87E20A4F880202388DB
:1005C000D21A12B2A4F87C20B4F8983092FBF3F25D
:1005D000A4F8822094F87720012A0ED194F84430B0
:1005E000227F934238BFA4F8781004D3216F91FB87
:1005F000F2F1A4F8781084F87700B4F97800288034
:10060000A18A484300EB8000E17A4000090490FB96
:10061000F1F028802946204604F0F4F8014604E071
:10062000227CA272E080002128802888A0800846D1
:1006300070BDB0F90610B0F90020A1F5FE43FF3BF4
:1006400011D0B0F87E300B44A0F87E30B0F8803086
:100650000B44A0F88030B0F882300B441A4402807A
:10066000A0F8741003E0B0F8741011440180B0F9E0
:1006700000007047426AD16821F00201D160002178
:1006800080F8411080F84210012380F84030018149
:1006900080F8431080F8441080F84510A0F88210CC
:1006A000016780F8763080F86A1080F87710B0F82B
:1006B000843093625162116841F001011160D16888
:1006C00041F00201D16000F08FB8000070B4C2891F
:1006D000C37AB0F80CC05A430CFB03F39BB24FF63D
:1006E000FF7C0CEA430C036A1204416A4FEA13448C
:1006F000920CA0F8964008BF962206D002EB420268
:10070000520042F21075B5FBF2F2A0F8942092B2BA
:1007100062434FF47A7492FBF4F292B2A0F8842010
:100720001404C0F88C402F4CA0F886C0A4FB0365CD
:1007300003EB83035B00A4FB0343AE08858A9B089D
:10074000B6FBF5F6B3FBFCF33604C0F88860C0F8DE
:100750009030438BB5FBF3F35B1EA0F89830012378
:1007600080F840308A624A6942F001024A61002200
:100770000A610B6843F004030B60CB6843F002038B
:10078000CB60CB6843F00103CB604A620B6A43F055
:1007900001030B620B6843F001030B60037F002B26
:1007A00004BF70BC70474FF0000C13F001011CBF78
:1007B000A0F846204FF0010C9942A4BF70BC7047CE
:1007C00000EB4C040CF1010CA4F8462000EB4C04A7
:1007D000891CA4F846200CF1010C9942F0DB70BC96
:1007E00070470000ABAAAAAA70B4D0E90A31D0E9D8
:1007F0000D42867DD0F83CC0056BA6B12D69AC4397
:100800000CBF0124002484F001041269A4003CEA16
:1008100002020CBF0122002244EA42021B699943F2
:1008200016D0002115E012693CEA020214BF002232
:1008300001229200D5F810C034EA0C0C0CBF4FF026
:10084000010C4FF0000C42EA4C021B699943E8D1BD
:100850000121114380F87A10C9B2072926D2DFE8B6
:1008600001F0250A151020041B00018B41F255529E
:10087000114401801DE0018B43F6FF721144018099
:1008800017E0018B46F6AA22114403E0018BA1F583
:10089000D441AA3901800CE0018BA1F57C51FF39CC
:1008A000F8E7018BA1F5A8515539F3E7002180F84D
:1008B00040100188A0F87E1070BC70472DE9F0034D
:1008C00090F84010426A002900F05C81837D90F826
:1008D0007A10002B3BD0D0E90C43D0E90A65D0E96F
:1008E0000EC72469A3430CBF0123002383F0010337
:1008F000DCF810C09B0037EA0C0C0CBF4FF0010C69
:100900004FF0000C43EA4C03D6F810C035EA0C0C4B
:100910000CBF4FF0010C4FF0000C43EA0C0300BF7A
:1009200080F87A3003F0FF084FF0FF34660C0123A3
:1009300042F6AA2545F255574FF0000CB8F1070FC3
:1009400075D2DFE808F0863250417523610000F16E
:100950002C03846A93E8E8103F693CEA070C14BF53
:100960004FF0000C4FF0010C4FEA8C0C2D6936EA69
:1009700005050CBF012500254CEA450C2469A3435D
:100980000CBF012300234CEA0303C9E7042908BF75
:1009900080F876305BD001295DD180F87640018BFC
:1009A00001EB0501A0F87E1055E0052902D00329CE
:1009B00005D050E080F87630018B2944F2E780F8CA
:1009C0007640018B3944EDE7012902D0022905D098
:1009D00041E080F87630018B3944E3E780F87640D7
:1009E000018B3144DEE7032902D0062905D032E02D
:1009F00080F87630018B3144D4E780F87640018B63
:100A0000A1F5AA415539CDE7022902D0042907D022
:100A100021E080F87630018BA1F5AA415539C1E774
:100A200080F87640018BA1F52851AA39BAE710E089
:100A3000062905D0052908BF80F8764007D00AE0CE
:100A400080F87630018BA1F52851AA39AAE7018BED
:100A5000A8E780F840C090F84310F9B190F844102E
:100A6000047FA14204D290F84410491C80F844103D
:100A7000516B8CB2916A90F8455089B290F84570EC
:100A800004EB0545E7B1491C89B290F8424069433F
:100A9000002C18BF80F842C007D027E090F8431020
:100AA000491C80F84310506B6CE0946AB0F8845095
:100AB000AC421BD2946A641C946280F8423015E008
:100AC00090F841702FB1891C89B2694380F841C008
:100AD0000CE0491C89B26943B4F5AA4F06D2946A66
:100AE00024B1946A641E946280F84130D0F890205A
:100AF0008A4284BFA0F86C6080F877C040D890F834
:100B00006A40026F00EB4404B4F94640121B0267CE
:100B1000D0F88C20914206D390F86A1000EB410186
:100B2000A1F846C017E0D0F88820B2FBF1F190F8A8
:100B30006A2000EB4202A2F8461090F86A2090F971
:100B4000764000EB420211FB04F109B2A2F8461014
:100B5000026F1144016790F86A1000EB4101B1F88F
:100B60004610A0F86C1090F86A10491CC9B280F8C1
:100B70006A10027F914208BF80F86AC080F877301F
:100B800080F845C0BDE8F0030020704770B504460A
:100B9000416A90F8400000283ED094F84500401C7F
:100BA00084F84500886A4FF47A71401C4843B4F8D1
:100BB0009410B4F896205143B1FBF0F094F845102E
:100BC00080B2814228D30025E5802046FFF70CFE45
:100BD00084F84550207FB8B1002110F001001CBFFF
:100BE000A4F846500121227F82420DDD04EB410230
:100BF000491CA2F8465004EB4102801CA2F8465062
:100C0000227F491C8242F1DC84F84450A4F86C50E5
:100C1000012084F86A002567002070BD10B490F8A8
:100C20003C20012A02BF022010BC7047012280F83C
:100C30003C200A680723D0F800C0092A18D9DCF83C
:100C40000C400A3A02EB420203FA02F224EA0202E0
:100C5000CCF80C200B788A680A3B03EB430302FABA
:100C600003F30268D2F80CC043EA0C03D36015E02A
:100C7000DCF8104002EB420203FA02F224EA02021C
:100C8000CCF810200B788A6803EB430302FA03F3D5
:100C90000268D2F810C043EA0C0313610268936B38
:100CA00023F4401393630268936BB1F810C05B4C5C
:100CB00004EB0C5C43EA0C0393630A790B7CD21AB5
:100CC000D21C02EB82021F2393400268D2F838C084
:100CD0002CEA030393630A790B7CD21A0B88D21C8B
:100CE00002EB82029BB293400268D2F838C043EA1A
:100CF0000C039363CA696FF47023DA420268936845
:100D000023F4702393600268936808BF23F44013B0
:100D10000FD0D1F81CC043EA0C03936002689368BB
:100D200023F44013936002689368D1F820C043EA2B
:100D30000C0393608A69002A0268536814BF43F465
:100D4000806323F4806353604A69002A0268536811
:100D500014BF43F4805323F4805353604A68012A3C
:100D60001BD0022A26D0032A026830D0136A6FF300
:100D70000B0313620268136AD1F80CC043EA0C0338
:100D80001362284BD0F800C0254A9C4504BFD1F817
:100D900000C0BCF1120F2CD125E0026853696FF33B
:100DA0000B03536102685369D1F80CC043EA0C038A
:100DB0005361E6E7026893696FF30B03936102687E
:100DC0009369D1F80CC043EA0C039361D9E7D36966
:100DD0006FF30B03D3610268D369D1F80CC043EA07
:100DE0000C03D361CDE7D2F804C04CF4800CC2F8F8
:100DF00004C0D0F800C09C4508D10968102918BF6C
:100E0000112903D1516841F4000151604FF00001F4
:100E100080F83C1010BC0846704700000000F0FF4E
:100E2000002301400020014030B482B04FF0000C9C
:100E3000CDF804C090F83C20012A01BF022002B086
:100E400030BC7047012280F83C200A680723046800
:100E5000092A14D9E5680A3A02EB420203FA02F2BF
:100E600025EA0202E2600B788A680A3B03EB43033F
:100E700002FA03F30268D4682343D36011E02569C2
:100E800002EB420203FA02F225EA020222610B7827
:100E90008A6803EB430302FA03F3026814692343ED
:100EA00013614A681F23072A16D20468656B521E15
:100EB00002EB820203FA02F225EA020262630B7974
:100EC0000A885B1E92B203EB830302FA03F3026803
:100ED000546B234353632DE004680D2A15D2256B10
:100EE000D21F02EB820203FA02F225EA0202226317
:100EF0000B790A88DB1F92B203EB830302FA03F338
:100F00000268146B2343136314E0E56A0D3A02EBA5
:100F1000820203FA02F225EA0202E2620B790A88EF
:100F20000D3B92B203EB830302FA03F30268D46A27
:100F30002343D362254B0468234A9C4204BF0C68B8
:100F4000122C03D1546844F48004546004689C4219
:100F50002FD10B68102B18BF112B2AD1536843F4E3
:100F6000000353600968102923D11949194A0968F7
:100F7000B1FBF2F101EB810149000191009118D020
:100F8000B1F1004F1BD20029D8BF002105DD11F0BF
:100F9000010102D0019A521E0192009A491C521C72
:100FA000914206DA019B891C5B1E5B1E01939142F4
:100FB000F8DB80F83CC002B0002030BC70470199DB
:100FC000491E0191FCD1F4E70023014000200140BB
:100FD0003C06002040420F0070B504004FF00005B1
:100FE00004BF012070BD206C002628B9666484F817
:100FF0003C60204600F0A8F8206C10F0100F18BFDD
:10100000012503D084F83C60284670BD206C20F494
:10101000885040F0020020644848416821F4403183
:10102000416041686268114341602068416821F471
:101030008071416020684168226941EA0221416073
:101040002068416821F04071416020684168A268D1
:10105000114341602068816821F40061816020684B
:101060008168E26811438160A06A6FF07061C842D4
:101070002068816821F0706181602068816808BF04
:1010800021F040510BD0A26A114381602068816831
:1010900021F04051816020688168E26A11438160DB
:1010A0002068816821F00201816020688168A2695E
:1010B00041EA42018160206A00282068416808BF37
:1010C00021F400610ED041F4006141602068416864
:1010D00021F46041416020684168194B626A03EB6A
:1010E0004232114341602068C16A21F47001C1623B
:1010F0002068C16AA28B134B03EB02521143C162F9
:101100002068816821F40071816020688168226B09
:1011100041EA422181602068816821F48061816018
:1011200020688168626941EA822181606664206C7E
:1011300020F0020040F00100206463E7002301403A
:1011400000E0FFFF0000F0FF2DE9F04100680024FF
:10115000254903254026254FDFF89480A0F18042E1
:1011600086B0B2F590321ED0224A90421CBF06B023
:10117000BDE8F081086840F40070086008680096D7
:1011800000F400700590CDE901546946384600F03E
:1011900095F80095CDE901546946404600F08EF877
:1011A00006B0BDE8F081086840F480700860086807
:1011B000694600F4807005900920CDE9000502948D
:1011C0000D4800F07BF80096CDE901546946384699
:1011D00000F074F80095CDE901546946404600F0EE
:1011E0006DF806B0BDE8F0814438024000000240CE
:1011F0000004024000210140000802404379012B15
:1012000004BF0220704730B44FF0010C80F805C0D5
:101210000223037103681C6840F6FE759540AC43D9
:10122000D1E90051294391402143196001680B68BD
:10123000C02404FA02F223EA02020A6080F804C021
:101240000021417130BC08467047002804BF0120CE
:10125000704770B504460079002518B965712046BD
:1012600000F008F802202071256101202071002083
:1012700070BD000000B5006887B0A0F18041B1F5F5
:10128000E8411CBF07B000BD00210A48026842F0D7
:1012900000520260006800F000500590302000907D
:1012A0000320CDE901016946034800F007F807B0C3
:1012B00000BD000040380240000002402DE9F84F18
:1012C0000022884EDFF820E201274FF0030A4FF09A
:1012D0000F0800BF0B6807FA02F42340A34240F056
:1012E000FB80D1F804C0BCF1020F18BFBCF1120F93
:1012F00015D14FEAD20C00EB8C0CDCF820504FEAF1
:1013000042794FEAD96908FA09FB25EA0B05D1F8B9
:1013100010B00BFA09F949EA0505CCF82050D0F8CD
:1013200000904FEA420C91F804B00AFA0CF50BF069
:10133000030B29EA05090BFA0CFB4BEA0909C0F873
:101340000090D1F80490B9F1010F18BFB9F1020F64
:1013500005D0B9F1110F18BFB9F1120F18D1D0F89B
:101360000890D1F80CB029EA05090BFA0CFB4BEAFE
:101370000909C0F80890D0F8049029EA040491F80B
:101380000490C9F3001909FA02F949EA0404446017
:10139000C46824EA05048D6805FA0CFC4CEA040CC8
:1013A000C0F80CC0D1F804C01CF0805F7ED0D6F825
:1013B00000C04CF4804CC6F800C0D6F800C00CF455
:1013C000804CCDF800C022F0030C0CF1804505F5EF
:1013D0009835D5F808C84FEA82744FEA147408FAB1
:1013E00004F92CEA090CA0F18049B9F5003938D08C
:1013F000A0F18049B9F5013908BF4FF0010930D09B
:10140000A0F18049B9F5023908BF4FF0020928D090
:10141000A0F18049B9F5033908BF4FF0030920D086
:10142000A0F18049B9F5043908BF4FF0040918D07C
:10143000A0F18049B9F5053908BF4FF0050910D072
:10144000A0F18049B9F5063908BF4FF0060908D068
:10145000A0F18049B9F507390CBF4FF007094FF0EB
:10146000080909FA04F444EA0C0CC5F808C8DEF8C7
:1014700000C04C682CEA030C14F4803F18BF4CEAFF
:10148000030CCEF800C0194CD4F800C04D682CEA0B
:10149000030C15F4003F18BF4CEA030CC4F800C05D
:1014A000134CD4F800C02CEA030C00E014E04D68A3
:1014B00015F4801F18BF4CEA030CC4F800C00D4C93
:1014C000D4F800C04D682CEA030C15F4001F18BFB7
:1014D0004CEA030CC4F800C0521C102AFFF4FAAE08
:1014E000BDE8F88F44380240003C0140043C014014
:1014F000083C01400C3C01400148806870470000F6
:1015000030060020024881680278114481607047EB
:10151000300600200B4810B5016841F400710160ED
:10152000016841F480610160016841F480710160EB
:10153000032000F0A9F8042000F006F800F024F8D9
:10154000002010BD003C024070B50D4D04464FF424
:101550007A712878B1FBF0F00A490968B1FBF0F024
:1015600000F094FB48B9102C07D200222146501EEF
:1015700000F058F800206C6070BD012070BD0000C4
:10158000300600203C0600201E4808B5016841F4E2
:1015900080410160006800F4804000901A480168B2
:1015A00041F080510160006800F0805000900420FC
:1015B00000F06AF8002211466FF00B0000F032F8DC
:1015C000002211466FF00A0000F02CF800221146AC
:1015D0006FF0090000F026F800221146501F00F0BD
:1015E00021F800221146101F00F01CF800221146BD
:1015F000901E00F017F800220421BDE80840481FA3
:1016000000F010B8443802404038024000F01F019A
:10161000012202FA01F14009800000F1E020C0F847
:1016200000117047174B10B41B68C3F30223C3F1BA
:10163000070CBCF1040F88BF4FF0040C1C1D072CD5
:1016400034BF0023DB1E012404FA0CFCACF1010CB6
:101650000CEA0101994004FA03F35B1E1A4011439E
:1016600000284FEA0111A1BF00F1E02080F800142A
:1016700010BC704700F00F0000F1E02080F8141D4E
:1016800010BC70470CED00E0074900F007000A6845
:101690004FF6FF031A4042EA002040F0FD7040F090
:1016A00080600860704700000CED00E0002804BF77
:1016B000012070472DE9F0474D4E04460F46306833
:1016C00001F0FF0800F00F00B84206D286F8008053
:1016D000306800F00F00B84261D12068454D10F02D
:1016E000020F14D010F0040F03D0286840F4E0502B
:1016F0002860207810F0080F03D0286840F460407C
:1017000028602868A16820F0F0000843286020784D
:1017100010F0010F37D060683749012823D0022824
:1017200018BF0328096823D011F0020F37D02968A9
:1017300021F0030141EA00002860FFF7DDFE814649
:101740002868616800F00C00B0EB810F18BF41F20F
:10175000883A18D0FFF7D0FEA0EB090050450BD90E
:101760000320BDE8F087096811F4003FDFD116E0DF
:1017700011F0007FDBD112E02868616800F00C00F6
:10178000B0EB810FE6D1306800F00F00B84209D904
:1017900086F80080306800F00F00B84202D00120C7
:1017A000BDE8F087207810F0040F05D02868E168C4
:1017B00020F4E05008432860207810F0080F06D08D
:1017C0002868216920F4604040EAC100286000F0E8
:1017D00045F82968094AC1F30311515CC84008491A
:1017E00008600420FFF7B0FE0020BDE8F08700008D
:1017F000003C02400838024000380240BC62000849
:101800003C06002001490120C8647047000047429F
:1018100001480068704700003C0600200448054964
:1018200000680968044AC1F38221515CC8407047CE
:101830003C06002008380240CC62000804480549F4
:1018400000680968044AC1F34231515CC8407047DE
:101850003C06002008380240CC62000818480068A6
:1018600010F00C02174808BF70471749042A04BF3C
:1018700008467047082A18BF704710B5134C2268F5
:10188000236802F03F0213F4800F08D02068002381
:10189000C0F38810A0FB0101FEF794FC07E021686B
:1018A0000023C1F38811A1FB0001FEF78BFC216826
:1018B000C1F30141491C4900B0FBF1F010BD00002B
:1018C000083802400024F40000127A000438024074
:1018D000002804BF012070472DE9F84F0446007826
:1018E000DA4D10F0010F59D0D948016801F00C0110
:1018F00004290AD0006800F00C0008280ED105F178
:101900000400006810F4800F08D0286810F4003F2D
:1019100044D06068002800F096813FE06068B0F530
:10192000803F19D0B0F5A02F28680CBF40F480206C
:1019300020F48030286028680CBF40F4803020F408
:10194000802028606068B8B1FFF7D6FD0646286899
:1019500010F4003F05D021E0286840F48030286072
:10196000F0E7FFF7C9FD801B642800F22A81286890
:1019700010F4003FF5D011E0FFF7BEFD06462868E1
:1019800010F4003F0AD000BFFFF7B6FD801B6428AB
:1019900000F21781286810F4003FF5D12078AD4F90
:1019A00010F0020F4FF0000847D0A948016811F06D
:1019B0000C0F16D0006800F00C00082804D1A648CF
:1019C000006810F4800F0CD0E06820B34FF00100E5
:1019D0003860FFF791FD0646286810F0020F09D025
:1019E00011E0286810F0020F1CBFE06801280AD03F
:1019F00000F029B9FFF780FD801B02287ED82868F7
:101A000010F0020FF6D02868216920F0F80040EAB3
:101A1000C100286011E0C7F80080FFF76DFD0646A1
:101A2000286810F0020F08D0FFF766FD801B02281F
:101A300064D8286810F0020FF6D1207810F0080F53
:101A40002AD08648864E616999B101210160FFF76D
:101A500053FD8146306810F0020F1DD1FFF74CFD99
:101A6000A0EB0900022849D8306810F0020FF5D029
:101A700012E0C0F80080FFF73FFD8146306810F0AB
:101A8000020F09D0FFF738FDA0EB0900022835D876
:101A9000306810F0020FF5D1207810F0040F77D0E5
:101AA00070484FF0000B006810F0805F0AD16D485D
:101AB000016841F08051016000684FF0010B00F0B7
:101AC00080500090684E306810F4807F14D13068E8
:101AD00040F480703060FFF70FFD8146306810F4ED
:101AE000807F09D1FFF708FDA0EB0900022868D824
:101AF000306810F4807FF5D05C4E00E061E0A068B3
:101B000001281BD0052830680CBF40F0040020F0ED
:101B10000100306030680CBF40F0010020F004008C
:101B2000C6F80000A06841F2883AB8B1FFF7E4FCBB
:101B30008146306810F0020F05D021E0306840F097
:101B400001003060EEE7FFF7D7FCA0EB090050453D
:101B500037D8306810F0020FF5D011E0FFF7CCFC59
:101B60008146306810F0020F0AD000BFFFF7C4FCB6
:101B7000A0EB0900504524D8306810F0020FF5D1D1
:101B8000BBF1000F04D03748016821F0805101609B
:101B9000A069E8B32E49096801F00C01082952D068
:101BA0000228C7F860800FD0FFF7A6FC044628681B
:101BB00010F0007F44D000BFFFF79EFC001B0228FE
:101BC0003AD90320BDE8F88FFFF796FC064628684F
:101BD00010F0007F09D000BFFFF78EFC801B0228A9
:101BE000EFD8286810F0007FF6D1D4E90701084348
:101BF000A16A1F4A490802EB0141626A41EA821167
:101C0000084394F82C1040EA01611348016000E099
:101C100016E001203866FFF76FFC0446286810F0D4
:101C2000007F0DD1FFF768FC001B0228C9D8286887
:101C300010F0007FF6D003E0286810F0007FBBD1E1
:101C40000020BDE8F88F0120BDE8F88F0038024081
:101C5000083802400000474204380240800E4742E4
:101C60007438024040380240007000407038024032
:101C70000000FFFF4FF0E021042808690CBF40F08E
:101C8000040020F00400086170477047411EB1F164
:101C9000807F24BF012070474FF0E0204161054A5A
:101CA000F02182F8141D00218161072101610020CB
:101CB000704700000FE000E010B5FFF7E6FF10BD31
:101CC00090F83820012A04BF02207047012280F8D2
:101CD0003820CA688B6822F440721A434B6822F499
:101CE00080621A430B6822F400621A430B6922F4E3
:101CF00080521A434B6922F400521A43896922F434
:101D000080420A4322F400421143026851640021D8
:101D100080F8381008467047002804BF012070473B
:101D200030B5044687B002200D4684F839002046BD
:101D300000F04BF8211D206802F0D2FFAB68296843
:101D40000322206803F0CEF82068816921F00C019D
:101D50008161206881696A681143816120684168F6
:101D600041F0800141602068816821F0700181604C
:101D70002068816841F0400181602068816821F01D
:101D8000070181602068816841F0040181600020C2
:101D90007021059000910490069003900290E868ED
:101DA00001906946206802F0FDFF2068416821F03B
:101DB000700141602068416841F05001416001209C
:101DC00084F8390007B0002030BD704790F8382003
:101DD000012A04BF0220704710B4012280F8382085
:101DE000022380F839300368D3F804C02CF0700C5B
:101DF000C3F804C00368D3F804C00C684CEA040CB0
:101E0000C3F804C00368D3F808C02CF0800CC3F8F2
:101E100008C00368D3F808C049684CEA010199601A
:101E200080F83920002180F8381010BC084670472F
:101E3000002804BF0120704710B5044690F839000F
:101E400028B9002084F83800204600F00DF8022060
:101E500084F83900211D206802F042FF012084F837
:101E60003900002010BD000000B500680021A0F17D
:101E7000804287B0B2F5406211D0A0F18041B1F547
:101E800082311CBF07B000BD1048016841F002015B
:101E90000160006800F00200059007B000BD0C482A
:101EA000026842F008020260006800F00800059035
:101EB0004FF4E05000900220CDE90101039004901E
:101EC00069460448FFF7FAF907B000BD44380240FC
:101ED00040380240001C024090F83820012A0DBF13
:101EE0000220012380F83830704730B4022280F895
:101EF00039200268D2F808C02CF0770C2CF47F4C03
:101F0000C2F808C00A68502A41D00CDC202A77D0D9
:101F100004DC002A75D0102A74D0B1E0302A72D0C7
:101F2000402A72D0ACE0602A4ED0702A0BD0B2F5B5
:101F3000805F03D0B2F5005F17D0A1E001688A6826
:101F400022F007023EE00268D1F804C08C68C9683C
:101F500095684CEA012125F47F452143294391608E
:101F600001688A6842F077022CE00268D1F804C068
:101F70008C68C96895684CEA012125F47F452143A6
:101F80002943916001688A6842F480421AE002683D
:101F9000D1F804C0C968146A156A25F001051562F4
:101FA000956924F00A0425F0F00545EA011144EA98
:101FB0000C0C9161C2F820C001688A6822F070029E
:101FC00042F057028A605BE00268D1F804C0CC6836
:101FD000116A21F0100111629569116A25F47045AA
:101FE00045EA043421F0A00141EA0C119461116228
:101FF00001688A6822F0700242F067028A603FE05E
:102000002FE01EE025E034E0FFE70268D1F804C0CD
:10201000CC68116A156A25F001051562956921F0F1
:102020000A0125F0F00545EA041441EA0C01946127
:10203000116201688A6822F0700242F047028A60E9
:102040001EE001688A6822F0700242F007028A608E
:1020500016E001688A6822F0700242F017028A6076
:102060000EE001688A6822F0700242F027028A605E
:1020700006E001688A6822F0700242F037028A6046
:1020800080F83930002180F8381030BC084670479D
:1020900030B5006885B0A0F18041B1F582311CBF38
:1020A00005B030BDE0200224CDE9000403250294F0
:1020B00069460948CDE90345FFF700F94FF4604050
:1020C000CDE90004029469460448CDE90345FFF7D1
:1020D000F5F805B030BD000000200240001C0240B1
:1020E00090F83830012B04BF022070472DE9F00131
:1020F000012480F83840022380F83930844BDFF81F
:1021000014C242B1042A45D0082A7DD00C2A00F01E
:10211000C28000F0F3B80268156A25F00105156267
:10212000156A56689769D1F8008027F0730748EA66
:102130000707D1F8088025F0020548EA05059A420C
:1021400018BF624511D1D1F80CC025F008034CEA44
:10215000030323F00405D1F814C026F440734CEABD
:102160000303D1F818C04CEA0306566097614B6828
:10217000536315620268936943F008039361026830
:10218000936923F00403936102689369096943EA40
:1021900001013FE00268156A25F010051562156A15
:1021A00056689769D1F8008027F4E64747EA082780
:1021B000D1F8088025F0200545EA08159A4218BF95
:1021C000624511D1D1F80CC025F0800343EA0C130D
:1021D00023F04005D1F814C026F4406343EA8C0391
:1021E000D1F818C043EA8C06566097614B68936338
:1021F00015620268936943F400639361026893690E
:1022000023F48063936100E006E002689369096942
:1022100043EA0121916171E00268156A25F4807535
:102220001562166A5568D769D1F8008027F07307E0
:1022300048EA0707D1F8088026F4007646EA08261F
:102240009A4218BF624511D1D1F80CC026F4006340
:1022500043EA0C2323F48066D1F814C025F44053DC
:1022600043EA0C13D1F818C043EA0C155560D76146
:102270004B68D36316620268D36943F00803D361E5
:102280000268D36923F00403D3610268D369096942
:1022900043EA010131E00268156A25F480551562B0
:1022A000176A5568D669D1F8008026F4E64646EAF2
:1022B0000826D1F8088027F4005747EA08379A42E1
:1022C00018BF624505D1D1F814C025F4804343EA14
:1022D0008C155560D6614B68136417620268D36928
:1022E00043F40063D3610268D36923F48063D3614C
:1022F0000268D369096943EA0121D16180F8394054
:102300004FF0000180F83810BDE8F0010846704732
:102310000000014000040140002804BF0120704774
:1023200010B5044690F8390028B9002084F8380028
:10233000204600F00CF8022084F83900211D2068A6
:1023400002F0CEFC012084F83900002010BD704757
:1023500070B5044690F83800012804BF022070BD13
:10236000012584F83850022084F83900204602F014
:102370004DFD2068C16821F04001C1602068C1683E
:1023800021F48041C16084F83950002084F838007D
:1023900070BD002804BF0120704770B5044690F856
:1023A0003900002520B984F83850204600F022F882
:1023B000242084F839002068C16821F40051C160EC
:1023C000204602F049FE2068016921F49041016134
:1023D0002068416921F02A0141612068C16841F407
:1023E0000051C160E563202084F8390084F83A0088
:1023F000002070BD00B5006887B0A0F18041B1F544
:1024000088311CBF07B000BD00210B48026842F0B4
:1024100010020260006800F010000590C0200090DB
:102420000220CDE901010720CDE9031069460348E8
:10243000FEF744FF07B000BD4438024000040240EC
:1024400082B002F097FD184CD4F82001006810F01B
:10245000080F0AD0144802F0A7FFD4F82001016841
:1024600000914068009003F0D9FAD4F82001006888
:1024700010F0800F1CBF0C4803F046F8D4F8200180
:10248000016811F0200FDFD04068C1B2064802F0A9
:1024900095FF0088012804D0022808BF03F0BEFA87
:1024A000D2E703F0B5FACFE7A4040020012908BF62
:1024B000002115D0042908BF012111D0102908BF1F
:1024C00002210DD0402908BF032109D0B1F5807F3A
:1024D00008BF042104D0B1F5806F0CBF052106218F
:1024E000084B18305B5C1844074BD0F800C0595CAF
:1024F00073238B402CEA030302FA01F119430160B4
:1025000070470000D4640008DB64000810B504467E
:10251000406802F02EFAA168086110BD0068012130
:1025200002F08DBA002808BF704710B50446007E3F
:10253000012818BF10BD217B0020012904D00229E9
:1025400010D003291ED026E0A16881F824000121C3
:10255000606802F036FAE28AB4F90E10606802F0A0
:10256000B7F90CE0A16881F824000021606802F04E
:1025700028FAE28AB4F91010606802F0A9F950B1A3
:10258000022009E0A168012081F82400A068D4F8A5
:1025900012100161F4E70320207610BD01230373BC
:1025A000C181C2820376437670470223037301829E
:1025B000C28201210176002141767047006802F055
:1025C0000CBA10B5406802F0EAF9BDE8104002F01C
:1025D00009B9407E7047806800687047806840682D
:1025E00070478068C0687047806800697047027BE8
:1025F0000021012A08BFB0F90E1008467047406854
:1026000002F0C1B9006802F013BA8068B0F91E0088
:1026100070478068D0F81A0070478068D0F81600BC
:1026200070478360C0E9001200210173C1810182FB
:10263000C1820176704703220273418209148182AC
:1026400001210176002141767047826851828068BD
:102650008182704710B504460068032102F0EFF94B
:1026600000281CBF0121217610BD0068072102F05F
:10267000E6B9406802F0A9B9014661F30F0044F6DB
:10268000E61211FB02F244F6E61311FB23F10A44B1
:1026900011444942C913B1F5004FA8BF47F6FF7175
:1026A00004DA11F5004FB4BF054909B261F31F40C8
:1026B00011F5004F04BF48F2010161F31F4070475C
:1026C0000080FFFF70B50546084600F059F82AB2B1
:1026D00003B212FB03F14FEA254C05141CFB05F075
:1026E000081AC0131649B0F5004FA8BF47F6FF708F
:1026F00004DA10F5004FB4BF084600B260F30F04CF
:10270000104E10F5004F08BF66F30F0412FB05F0E2
:102710001CFB03F21044C013B0F5004FA8BF47F6EE
:10272000FF7103DA10F5004FA8BF01B2204661F334
:102730001F4011F5004F08BF66F31F4070BD000039
:102740000080FFFF0180FFFF10B50446084600F03F
:1027500017F814FB00F12214031412FB03FC61446C
:102760004FEAE13C29466CF30F0114FB03F312FB23
:1027700000F0C01AC01360F31F41084610BD0000EE
:1027800000F50041890911F4407C00F50041C1F3D6
:1027900087121749C2F1FF0317D0BCF5807F1DD007
:1027A000BCF5007F0AD0BCF5407F18BF704731F8F8
:1027B000133031F8121063F31F400DE031F812208E
:1027C00031F8131062F31F400FE031F8122031F896
:1027D0001310524262F31F40494206E031F81330B1
:1027E00031F812105B4263F31F4061F30F00704732
:1027F000D4620008F8B58C460446DDE90710069D52
:10280000C4F830C0C4E930010B481E46174600909A
:102810000A4B0B4A21466046FDF773FE6763C4E925
:102820000E65206BA847802084F8C800A16B206B40
:1028300001B0BDE8F04008474528000861280008BD
:10284000D12E000810B50446006BE16B884780204C
:1028500084F8C800A16B206BBDE810400847000059
:102860002DE9F04300269BB0994615460F460446D5
:102870005FEA511815D0A8F10102002103F0E6F833
:10288000002804BF0B208DF8040000F01683D4F854
:10289000C40007F01F0720B1A8F10102002103F0D6
:1028A000D5F80D2F80F00783DFE807F0B607A5B550
:1028B000B4B4B3B2B1B0AFAEAD002F7805208DF88F
:1028C0000400462F58D027DC0E2F74D00ADC0E2FC0
:1028D00040D2DFE807F0623F3F713F8787878787F5
:1028E00087878787162F7DD009DCA7F10F0007287F
:1028F00030D2DFE800F07741412F2F7777001C2F8F
:1029000061D004DC172F18BF182F23D16AE01D2FC8
:1029100061D0412F66D01DE0612F63D010DCA7F19C
:102920004700152816D2DFE800F0272715151515E2
:1029300015155D1515155D5D5D5D5D5D5D1527000A
:10294000772F19D010DC742F36D008DC642F18BF15
:10295000652F47D04FF002008DF8040093E1752FEA
:1029600018BF762FF6D107E0782F18BF792F03D044
:102970007D2F18BF7E2FEDD16878A9782A7900EBDA
:102980000120E9784FEA014101EB026100EB01020D
:102990003946204603F05AF813E06D7839462A4646
:1029A000D4F8C40003F052F82A463946204603F012
:1029B0004DF8064667E115E06A783946204603F08F
:1029C00045F806465FE16A780021D4F8C40003F0B8
:1029D00038F8012657E16A780121D4F8C40003F0E1
:1029E00030F84FE16878A97800EB0122394620469B
:1029F00003F02CF8E5E7297803208DF804008329FB
:102A000080F06B8109E028E212E203E2E0E1B0E14C
:102A10009CE16EE14FE264E1D4E1880078444068D3
:102A2000874400000C020000960200000C02000027
:102A30000C02000096020000740200007402000004
:102A400074020000740200007402000074020000AE
:102A5000740200007402000074020000740200009E
:102A6000740200007402000074020000740200008E
:102A7000740200007402000074020000740200007E
:102A8000740200007402000074020000740200006E
:102A9000740200002C0200004402000096020000B4
:102AA0007402000074020000740200000C020000B6
:102AB000B6020000B6020000B6020000B602000036
:102AC000B6020000B6020000B6020000B602000026
:102AD000B6020000B6020000B6020000B602000016
:102AE000B6020000B6020000B6020000B602000006
:102AF000B6020000B6020000B6020000B6020000F6
:102B0000B6020000B6020000B6020000B6020000E5
:102B1000B6020000B6020000B6020000B6020000D5
:102B2000B6020000B602000074020000B602000007
:102B3000B6020000B6020000B602000096020000D5
:102B40009602000096020000740200007402000069
:102B500074020000740200000C02000096020000E3
:102B6000740200007402000074020000740200008D
:102B7000740200007402000074020000740200007D
:102B80007402000074020000740200000C020000D5
:102B900096020000B60200007402000074020000F9
:102BA000740200007402000074020000B60200000B
:102BB000B602000074020000740200000C02000063
:102BC0000C0200009602000096020000960200002F
:102BD00096020000960200000C0200007402000041
:102BE0007402000096020000B602000074020000A9
:102BF000740200000C020000960200009602000021
:102C00009602000096020000960200009602000064
:102C10009602000096020000960200009602000054
:102C2000960200000C020000B60200000C02000038
:102C3000204602F009FD0090B0F1FF3F00F03D8119
:102C4000D4E90C0C01236A46F02100F002B900BF60
:102C5000D4F8C400002800F03081002102F0EAFC22
:102C60008DF80000ECE700BFD4F8C40058B1012192
:102C700002F0E0FC8DF80000D4E90C0C01236A4658
:102C8000F021E0470126002E00F017810023D4E94F
:102C90000C0C1A46F021DCE0204602F0D5FC009036
:102CA000B0F1FF3F00F00981D4E90C0C02236A4621
:102CB000F021E0471BB0BDE8F083204602F0C4FCE1
:102CC0000090B0F1FF3F7DD0D4E90C0C04236A469C
:102CD000F021E0471BB0BDE8F08303208DF804002D
:102CE000EBE0297807208DF80400204602F058FC1C
:102CF00067E60020029003900490059006900790EC
:102D0000089002AA099005E01318401CC0B2D970BF
:102D10001D2804D2D4F8C010095C0929F4D1D4F8D4
:102D2000C020411D2023515C8DF80810C11D0930C1
:102D3000515C8DF80910D4F8C01002AA085C8DF817
:102D40000A00D4E90C0CF021E0479FE72879697963
:102D5000EB7800EB012082B22878697800EB012043
:102D6000A978090401EB03610144204602F050FCFC
:102D700027E619A8009029781AAB18AA204602F075
:102D8000F1FDBDF9680012AA00EB400040008DF88B
:102D90004800010A8DF84910010C8DF84A10000E08
:102DA0008DF84B00BDF864008DF84C00000A8DF8DA
:102DB0004D00BDF860008DF84E00000A8DF84F0000
:102DC000082300E076E0D4E90C0CF021E04774E041
:102DD000E8792A7AAB7800EB022082B2687895F81D
:102DE00004C000EB0320EB7829781B0403EB0C6391
:102DF0001844354B95F806C083FB0030A0EBE0701B
:102E000003B2687900EB0C2000B20090204602F07B
:102E1000BFFED6E528786978EA7800EB012001B298
:102E2000A87800EB022002B2204602F0FDFD2DE75B
:102E30000C208DF8040016958DF85C90234916A897
:102E400002F000FCB0B32148F02103790268D4E914
:102E50000C0CE0471BB0BDE8F08300200AAA04E098
:102E60001154401CC0B2202804D2D4F8C010095C10
:102E70000029F5D1C0F12001002914DD1044401EC5
:102E800011F0010F02D0002200F8012FC1F3470119
:102E9000002918BF002206D04270491E00F8022FF8
:102EA00011F0FF01F8D1D4E90C0C20230AAAF0217B
:102EB000E047EBE601E0012010E7D4E90C0C012328
:102EC00001AAFF21C5E70000ABAAAA2A0C00002036
:102ED00010B50446006BE16B8847802084F8C80079
:102EE000A16B206BBDE81040084700000148006856
:102EF000FFF788BB040000202DE9F0411E4C20782C
:102F0000002808BFBDE8F08100F03EF820780128D5
:102F10002DD11A480026006800F028FA184D0746FF
:102F2000286800F0FDFA0743E06901F0F0FB40EA91
:102F30000701C84382B205F11004204601F058FD94
:102F4000204601F075FD0A2805D00B2804BF28682B
:102F500000F0DAFB09E0286800F0D6FB3046FDF708
:102F6000D7FA0848006800F0D5F901F00BFBBDE87E
:102F7000F04102F037BD0000E0050020000600200F
:102F8000040600200806002038B55A4C2078012895
:102F900018BF38BD608800281CBF6088401E7AD1E9
:102FA0000020ADF8000069465348FDF7E7FA5348A2
:102FB000006800F085FA524801F03AFDC01E102862
:102FC00042D2DFE800F0083D4259697C8387878759
:102FD00087878713202C4B48006801F06BFA142078
:102FE000A0801021464801F02AFD73E0A088002847
:102FF00070D144480021006800F094FA1121404843
:1030000001F01DFD66E03F480121006800F08AFAEA
:1030100000285FD012213A4801F011FD5AE03648ED
:10302000FDF728FB0421364801F009FD002851D0A6
:103030000020FDF76DFA3348006801F0B1F949E06E
:1030400005212F4801F0FBFC44E02F4D95F82400AA
:1030500028B92E48006801F005FCE8832882062183
:10306000274801F0ECFC2948006801F07AFC284868
:103070000068FFF757FA2DE025480068FFF752FA7D
:10308000214D95F8240000BB2048006801F0EAFBC0
:10309000E88328821EE01EE01A48006801F045F926
:1030A0000020FDF735FA1548006800F033F94FF4B9
:1030B0004870E0800821124801F0C1FC0AE0E08875
:1030C00018B909210E4801F0BAFC03E000210C48B0
:1030D00001F0B5FC03206080A08810B1A088401EDC
:1030E000A080E088002808BF38BDE088401EE0804E
:1030F00038BD0000E0050020740200200806002012
:1031000014060020040600209C070020EC05002087
:10311000E805002001480068FFF79CBA0400002081
:1031200001480068FFF7A1BA040000202DE9F35F11
:10313000524E002406F12C01347051480860A1F170
:1031400008085048C8F8000000F048FC03F04CF8AC
:1031500006F1340001F06EFC4B4800F05FF906F117
:10316000100B4948CBF8000006F10C0547482860D1
:103170004748FDF7ABFADBF80010454A286801F034
:1031800010FC444800F04AF9434800F047F905F1C3
:1031900008094048C9F8000005F10C0A3E48CAF881
:1031A00000003E48F06101F0F5FA05F11C013C48D1
:1031B0000860F1693B4FC0E943713B4800F011F9E9
:1031C00005F114003849016005F124013748086011
:1031D00001F06CFA0020FDF79BF9012087F824002C
:1031E000286801F0C6FB3861286801F0C2FB0014B2
:1031F000B88207F128002F1FA0F12803386005F1DD
:1032000028012A68FFF70DFA286801F0C2FB3B6825
:10321000014600221846FFF7C1F90098396801609D
:103220002348DBF800100160D9F800104160DAF89B
:103230000010C0E90214D8F80010C0E904141449C1
:10324000C0E9061404622968416205F1280181621F
:1032500014390968C162F169C0E90C1405F11C0157
:1032600084630968C0E90F1444648464C4640199E8
:1032700008600120307002B0BDE8F09FE00500203A
:10328000F0030020E001002028010020AC01002014
:103290007402002054010020800100203803002027
:1032A000140000209C07002010030020DC030020F5
:1032B000E007002070B4B0F8002120F81210B0F838
:1032C0000021A0F80221521C92B2A0F80021802A0D
:1032D00024BF0022A0F800210246B0F90030B0F966
:1032E00002504FF0000C3F2432F9046F2B44B2F926
:1032F0000250B444641EF7D103EB0C02B0F9FE3067
:103300001A44D31702EB5362D211A0F8042170BC07
:103310000846704710B504464FF48071FCF78AFFE9
:103320000020A4F80001A4F8020110BDB0F90401C6
:103330007047000008B5FEF76BFA4FF4FA61B0FB76
:10334000F1F0FEF7A3FC0749081FFFF7EFFE02F0BC
:10335000C1FE044B04481A1F00900121101F02F007
:1033600033FC08BD080000204862000810B5044680
:10337000007800281CBF0020E08201D080B210BD80
:1033800094F8260001F0BEF8A0F57F41FF3907D080
:10339000218B238A4A1E03FB0200B0FBF1F020823E
:1033A000208A618B884288BF082004D8A18B814283
:1033B0008CBF0020E08AE082E0E70178002918BF96
:1033C000808A01D000B27047018A026A891AB0F976
:1033D0001E20808C5143CA1701EB124100EB2140A3
:1033E000F0E770B504460078002518B1E582608AE0
:1033F000208270BD201D01F0E7F884F826002582A8
:1034000070BDB0F922007047B0F906007047408BDC
:103410007047B0F904007047008B704701888180C5
:103420004188C180018C41840021816081627047A4
:103430008160704741847047C180704781807047C8
:1034400070B4B0F90420002402FB01F6B0F90620A4
:10345000B0F914C0B0F91630002A04BF0021816011
:1034600014D085684A43A91805D5002DC4BF002A89
:103470006FF0004103E0002DBCBF002A0F49C26875
:103480008A42A5BF0269914282608160827F816821
:10349000057F41FA02F246FA05F52A446245C4BFA7
:1034A000ACEB0204624603DC9342C4BF9C1A1A468A
:1034B0002144816070BC10B27047000001000080A0
:1034C00070B5D0F80C110446C868D1F8161010FB7E
:1034D00001F210FB3121C81701EB10400514D4F89C
:1034E000100102F0FFFBD4F8081148434FF41671A5
:1034F00090FBF1F0684300EB40000849400081FB7D
:1035000000108110A1EBE071C81701EB104001140D
:103510002046BDE87040FFF7CDBE000067666666D6
:10352000016B084770B50446002511B1012908D088
:1035300017E081688847B4F86200A4F8520080B9A7
:103540000BE0B4F85200002808BF012509D0401E46
:103550000004000CA4F8520003D1216920468847DA
:103560000125284670BD4268104730B40AB2B0F851
:1035700060C0091401FB0CF1B0F8443049005A4313
:1035800049428B18A1EB020203EBD37302EBD27218
:103590005B104FEA62024FEA9C0C42D5002A14DA13
:1035A0000421A0F84610991ACC1701EB94310CEBCA
:1035B000A14CD11702EBD1310CEB6142D91703EBCF
:1035C000D131ACEB6143816A6DE0002914DC032347
:1035D000A0F846308B1ADC1703EB94330CEBA34CAA
:1035E000D31702EBD332CB170CEB624201EBD33192
:1035F000A2EB6143416A56E00222A0F846205A1A23
:10360000D41702EB94320CEBA24CDA1703EBD23254
:10361000ACEB6243CA1701EBD23103EB6142016AA2
:1036200041E0002A14DB0121A0F84610991ACC17BA
:1036300001EB94310CEBA14CD11702EBD1310CEB27
:103640006142D91703EBD131ACEB6143C1692AE088
:10365000002914DC0522A0F846205A1AD41702EBE0
:1036600094320CEBA24CDA1703EBD232ACEB624390
:10367000CA1701EBD23103EB6142C16A13E00023A8
:10368000A0F846308B1ADC1703EB94330CEBA34CF9
:10369000D31702EBD332CB170CEB624201EBD331E1
:1036A000A2EB614381691FFA8CFCA0F848C092B27A
:1036B000A0F84A209BB2A0F84C30B0F85C40012C36
:1036C00001D030BC0847B0F95640002CB0F85E403D
:1036D000CCBFA444ACEB040CA0F848C0B0F958C06F
:1036E000BCF1000F1FFA84FCCCBF6244A2EB0C02B9
:1036F000A0F84A20B0F95A20002AA2B2CCBF1A443E
:103700009A1AA0F84C20DCE781680847D0F890109E
:103710000A7D022A0FD18A69898C09049161D0F847
:103720009020116A928B12048A61D0F890108A6AF4
:10373000898D09049161012180F88C105430704703
:10374000F0B50446D0F8900000278568E766276743
:10375000676784F88370286A4EF6AA2108402862B9
:1037600032486060D4F890000079C003A067D4F8B4
:1037700090004079C003E067204600F011FE94F805
:1037800083001026102809D2E86810F0010F08BF46
:1037900084F8836094F883001028F5D384F883704C
:1037A00023486060D4F890008179C903A1678079CB
:1037B000C003E067204600F0F3FD94F8830008287A
:1037C00009D2E86810F0010F08BF84F8836094F80C
:1037D00083000828F5D3E06EC008E066206FC008BB
:1037E0002067606FC008606712486060A9694FF287
:1037F000F7700140A961E9690840E861B4F8800008
:103800006863B4F88000A863B4F88000E863A9692D
:1038100040F608000143A961E9690843E861286AA4
:1038200040F2555108432862F0BD000055390008A8
:10383000993900083938000830B4D0F890300022A7
:103840009B685B0103F18443C3F8302480F8822035
:1038500090F846203D4BDFF8F8C047F6FF74062A83
:1038600065D2DFE802F01E414103031EDA6BC56E2C
:10387000A5EB420212F5004FD8BFA1F800C004DD4D
:10388000B2F5004FACBF0C800A80D3F83C21036F27
:10389000A3EB420212F5004F45DDB2F5004F3DDAD1
:1038A00044E0DA6B056FA5EB420212F5004FD8BF7A
:1038B000A1F802C004DDB2F5004FACBF4C804A80D5
:1038C000D3F83C21436FC3EB4202B1F90230D21A64
:1038D000B2F5004FA8BF0C8029DA12F5004FD4BF13
:1038E000A1F800C00A8022E0DA6BC56EA5EB4202A7
:1038F00012F5004FD8BFA1F800C004DDB2F5004FAB
:10390000ACBF0C800A80D3F83C21436FC3EB42026A
:10391000B1F90030D21AB2F5004F01DB4C8006E05D
:1039200012F5004F02DCA1F802C000E04A800A88CC
:10393000A0F856204A88A0F858200A8849881144DF
:103940004942A0F85A1030BC7047000000200140E6
:103950000180FFFFD0F8902000219268520102F10F
:103960008442C2F8301480F8821090F88310102935
:1039700028BF70470749C26ECB6B1A44C266026FFC
:10398000D1F83C111144016790F88310491C80F86C
:103990008310704700200140D0F8902000219268E9
:1039A000520102F18442C2F8301480F8821090F87B
:1039B0008310082928BF70470749426FCB6B1A4410
:1039C0004267D1F83C111144416790F88310491CBB
:1039D00080F883107047000000200140F0B4D0F858
:1039E000901089680A6822F001020A60DFF830C18D
:1039F00001F1180208249CF800309D180CF107030F
:103A00002E681F7804FA07F73E432E609CF8025098
:103A10009F78154404FA07F72E683E432E609CF801
:103A200004501F79154404FA07F72E683E432E60B0
:103A30009CF806C09B79624404FA03F3D2F800C0F4
:103A40004CEA03031360D0F8902092F8302032B192
:103A50006FF080020A61CA6842F08002CA604A6957
:103A600042F001024A61D0F890209378022B03D0F3
:103A700090F8542082B114E0D378012B04BF927BDC
:103A8000032A09D14FF001020A634A6942F0010298
:103A90004A614FF003020A63B0F88020A2F10102EC
:103AA0004A62D0F890101F4A8B681F499342CB6836
:103AB0000CBF43F0010343F00203CB601B498B684A
:103AC00043F001038B601A4BD3F808C04CF0010C93
:103AD000C3F808C06FF004030B604B6843F0800329
:103AE0004B60CB6A23F47003CB62D0F890308968C6
:103AF0009B68934221F47C11C0F888100CBF41F4FC
:103B0000801141F4F011C0F88410002180F88C106D
:103B1000A0F85C10B0F86410A0F85E10F0BC70471C
:103B2000D464000800000140002004E000200140AF
:103B30000021014090F88C200021012A03D140216E
:103B4000002280F88C2008467047000070B50546BA
:103B5000D0F89000846895F85500012818BF70BD12
:103B6000602201212046FEF7A1FC206A40F00100FE
:103B70002062D5F89000007D012804BF206A40F043
:103B8000040005D0022804BF206A20F0040000D100
:103B90002062B5F880004008606360221021204652
:103BA000FEF784FC206A40F010002062D5F89000F7
:103BB000007D012804BF206A40F0400005D00228A3
:103BC00004BF206A20F0400000D12062B5F88000D8
:103BD0004008A06360224FF480712046FEF766FC27
:103BE000206A40F480702062D5F89000007D0128A2
:103BF00004BF206A40F4806005D0022804BF206A18
:103C000020F4806000D12062B5F880004008E063B5
:103C100005486860054868610548E8600548A8608F
:103C2000002085F8550070BD39380008B5440008FB
:103C3000A14300082B43000870B50546D0F890005A
:103C4000846895F85500002840D160220121204663
:103C5000FEF72CFC206A40F001002062206A20F070
:103C60000400206200206063D5F89000007D0128E8
:103C700002D002280DD019E0102211462046FEF78E
:103C800015FC206A20F010002062206A40F04000FD
:103C90000BE0202210212046FEF708FC206A40F0AD
:103CA00010002062206A20F04000206270224FF451
:103CB00080712046FEF7FAFB206A20F480702062B3
:103CC000206A20F480602062286FE86605486860FA
:103CD000054868610548E8600548A860012085F846
:103CE000550070BD913D00088D3E0008C53D00089F
:103CF0002B4300080246D0F890008368B2F8800099
:103D00004843010CA2F84810D86948F6FF710840F2
:103D1000D861D86940F4C040D861B2F88000B2F8E8
:103D20006610401A1864B2F86800D863B2F8480008
:103D300058631649D2F888008860D2F88800C1F824
:103D40000801186A40F480501862D2F88400886034
:103D5000D2F88400C1F80801D2F890004079C0037D
:103D60008863D2F890000079C003C1F8380118695F
:103D700010F0010018BF0120B2F84E10012918BF41
:103D8000704701200021A2F84E107047002001402A
:103D9000002280F88220094AD26B006FA0EB42001B
:103DA000074A9042D8BF104605DD47F6FF729042A1
:103DB000A8BF47F6FF700880488070470020014088
:103DC0000180FFFFD0F890106FF0010389680B614C
:103DD0000A6912F0010FFBD00B6101224A63B0F8AF
:103DE0008020521F0A640A6912F0010FFBD04A6C4E
:103DF00042F400424A64D0F89020137D022B24D173
:103E00000B6A40F2555C13EA0C0F0ED0D2E9063271
:103E10009A61D0F89030D3E908239361D0F89030BC
:103E20009A6A9B8D1B0493610FE09369928B120435
:103E30009A61D0F890301A6A9B8C1B049361D0F879
:103E400090309A6A9B8D1B0493610F4AD0F888309A
:103E50009360D0F88830C2F808310B6A43F480537D
:103E60000B62D0F884109160D0F88410C2F8081169
:103E7000D0F890104979C9039163D0F89000407947
:103E8000C003C2F83801704700200140D0F89010FC
:103E9000002289684A63921E0A610A6912F0010FC2
:103EA000FBD04A6C42F400424A64D0F890100A7D7C
:103EB000022A18BF7047D1E906219161D0F89020FD
:103EC000116A928C12048A61D0F89010886A898DE8
:103ED000090481617047F0B4D0F890104FF480125B
:103EE0008C68D0F8841021F44011C0F88410B0F828
:103EF0008030B0F84810A3EB010C1FFA8CF6D0F814
:103F000090C0BCF81050AE420ED90321A0F8461064
:103F100099B29CF80430491EDB0383679CF8053096
:103F200089B2DB03C3671CE0B0F84A70CF1BBFB295
:103F3000B7EB460F84BFBCF81230C91A08D8294421
:103F400089B2994205D3C1EB43014FF40012491ED7
:103F500089B29CF80530DB0383679CF80630DB03ED
:103F6000C367D0F884301A43C0F884202164D0F8A5
:103F70009010B0F8482089684A63B0F84A208A63F4
:103F8000B0F84C20CA6390F88200002818BF0120C6
:103F9000F0BC7047F0B4D0F890104FF480128C68E9
:103FA000D0F8841021F44011C0F88410B0F88030AB
:103FB000B0F84A10A3EB010C1FFA8CF6D0F890C0B1
:103FC000BCF81050AE420ED90321A0F8461099B2A9
:103FD0009CF80430491EDB0383679CF8053089B2E6
:103FE000DB03C3671CE0B0F84870CF1BBFB2B7EB70
:103FF000460F84BFBCF81230C91A08D8294489B2C8
:10400000994205D3C1EB43014FF40012491E89B216
:104010009CF80430DB0383679CF80630DB03C3673E
:10402000D0F884301A43C0F884202164D0F890106E
:10403000B0F8482089684A63B0F84A208A63B0F82B
:104040004C20CA6390F88200002818BF0120F0BC01
:104050007047F0B4D0F890104FF480128C68D0F80C
:10406000841021F44011C0F88410B0F88030B0F80A
:104070004A10A3EB010C1FFA8CF6D0F890C0BCF8E4
:104080001050AE420ED90321A0F8461099B29CF808
:104090000430491EDB0383679CF8053089B2DB03DB
:1040A000C3671CE0B0F84C70CF1BBFB2B7EB460F34
:1040B00084BFBCF81230C91A08D8294489B2994281
:1040C00005D3C1EB43014FF40012491E89B29CF89D
:1040D0000430DB0383679CF80630DB03C367D0F84A
:1040E00084301A43C0F884202164D0F89010B0F8CE
:1040F000482089684A63B0F84A208A63B0F84C20A7
:10410000CA6390F88200002818BF0120F0BC7047F5
:10411000F0B4D0F890104FF480128C68D0F884106E
:1041200021F44011C0F88410B0F88030B0F84C1081
:10413000A3EB010C1FFA8CF6D0F890C0BCF810501D
:10414000AE4206D90321A0F8461099B2491E89B2A1
:1041500014E0B0F84A70CF1BBFB2B7EB460F84BF74
:10416000BCF81230C91A08D8294489B2994205D33B
:10417000C1EB43014FF40012491E89B29CF8043090
:10418000DB0383679CF80530DB03C367D0F884301A
:104190001A43C0F884202164D0F89010B0F8482069
:1041A00089684A63B0F84A208A63B0F84C20CA6331
:1041B00090F88200002818BF0120F0BC7047F0B4CE
:1041C000D0F890104FF480128C68D0F8841021F44D
:1041D0004011C0F88410B0F88030B0F84C10A3EB58
:1041E000010C1FFA8CF6D0F890C0BCF81050AE420B
:1041F00006D90321A0F8461099B2491E89B214E0ED
:10420000B0F84870CF1BBFB2B7EB460F84BFBCF805
:104210001230C91A08D8294489B2994205D3C1EB92
:1042200043014FF40012491E89B29CF80430DB03AD
:1042300083679CF80530DB03C367D0F884301A43EA
:10424000C0F884202164D0F89010B0F84820896824
:104250004A63B0F84A208A63B0F84C20CA6390F8E9
:104260008200002818BF0120F0BC7047F0B4D0F8DD
:1042700090104FF480128C68D0F8841021F4401113
:10428000C0F88410B0F88030B0F84810A3EB010CEF
:104290001FFA8CF6D0F890C0BCF81050AE420ED980
:1042A0000321A0F8461099B29CF80430491EDB03A4
:1042B00083679CF8053089B2DB03C3671CE0B0F864
:1042C0004C70CF1BBFB2B7EB460F84BFBCF81230A7
:1042D000C91A08D8294489B2994205D3C1EB4301D0
:1042E0004FF40012491E89B29CF80530DB03836746
:1042F0009CF80630DB03C367D0F884301A43C0F85B
:1043000084202164D0F89010B0F8482089684A636E
:10431000B0F84A208A63B0F84C20CA6390F8820053
:10432000002818BF0120F0BC7047D0F89010002280
:10433000896880F85020CA6822F00102CA600A6ABF
:104340004FF6AA231A400A620A6912F0010F07D138
:10435000CA6812F0010F04BF0A6912F0010FF7D00A
:104360004A6C22F400424A64D0F89020137D022B5C
:104370000FD19369928B12049A61D0F890301A6A27
:104380009B8C1B049361D0F89020906A928D12044C
:104390008261086A40F2555210430862704700007B
:1043A000D0F890100022896880F850201F4A1368C6
:1043B00023F00C031360D2F8003123F00C03C2F891
:1043C00000316FF001020A61CA6842F00102CA605E
:1043D0004A6C42F400424A64D0F89020137D022BCC
:1043E00018BF7047096A40F2555319420CD0D2E900
:1043F00006128A61D0F89010D1E908219161D0F8B5
:104400009010D1E90A010EE09169928B12048A6141
:10441000D0F890100A6A898C09049161D0F8901044
:10442000886A898D0904816170470000002001407D
:10443000D0F890C00121DCF8082080F882101C49D7
:104440000B6803F00C03082B05D0002B08BFBCF849
:10445000003006D013E00B6803F00C030C2BFAD1EC
:104460000DE0D2F824C09C45FBD30B6803F00C038D
:10447000082B04D10B6803F00C030C2BFAD150F875
:10448000883F8B6050F80439C1F80831136A43F44F
:104490008053136202688A6050F80C29C1F8082121
:1044A00050F8042B8A6350F82829C1F83821704746
:1044B00000200140D0F890100122896880F8502037
:1044C000D21E0A6100224A638A63CA630A6912F033
:1044D000010FFBD04A6C42F400424A64D0F89010BD
:1044E0000A7D022A18BF7047D1E906219161D0F8F0
:1044F0009020D2E908128A61D0F89010D1E90A011F
:10450000816170471D4910B451F82020D2F800C0D5
:10451000127902EB4203092A99BF4FF0007444EA72
:104520000353174C04EB03531A434FF4407494FAAB
:10453000A4F44FF40073B4FA84F4E3400CEB830367
:1045400002F01F02D3F82CC02CF01F0C4CEA020220
:10455000DA6251F820201268D36C0123520102F173
:104560008442C2F8783151F820000068016811F0E7
:10457000020FFBD0C06C10BC80B270473008002026
:10458000000020FE10B50E4C6078012818BF10BD49
:104590002078FFF7B7FF6080014602206070094A6B
:1045A000207852F83030002B08BF10BD4FF0000CBF
:1045B00002EBC00284F801C05268BDE81040184701
:1045C0001A0600204008002070B40146FF20344B3A
:1045D0000C79002253F822C0BCF1000F02D104284C
:1045E00088BF10469CF80450A54206D1DCF800C0F4
:1045F0000D68AC4504BF10460422521CD2B2042AF6
:10460000E8D3042824BF70BC704743F82010002270
:10461000244B43F830200A68936813F0010F03D14C
:10462000936843F0010393600A68D36A23F470032C
:10463000D3620A790B684FF0007C092A02EB42042E
:1046400092BF4CEA0454184D05EB045422438C6885
:1046500002F000719CFAACFCBCFA8CFC21FA0CF163
:1046600003EB81014FF0F87393FAA3F502F0F872AF
:10467000B5FA85F522FA05F5072606FA05F593FA47
:10468000A3F3D1F80CC0B3FA83F3DA402CEA050C9B
:1046900004FA02F24CEA0202CA6070BC70470000E1
:1046A0003008002040080020000020FE002141606A
:1046B00041808160C16001210161704790F848002C
:1046C000704701EB410100EB81008089704701EBED
:1046D000410100EB8100B0F90E00704701EB410190
:1046E00000EB8100B0F91000704701EB410100EBD5
:1046F00081008281704701EB410100EB8100C281A2
:10470000704701EB410100EB81000282704770B5F8
:10471000044690F83400FFF7F5FEA0F57F4105460A
:10472000FF392AD094F8330004EB4000C583238B73
:104730000020ABB104F11C0113F0010F18BF31F8D8
:10474000020F4FF0000CC3F3470242B14E88521ED5
:10475000304431F8046F12F0FF02B444F6D16044E3
:10476000B0FBF3F0E080A58094F83300591E884236
:10477000B4BF401C002084F83300E088618B88427D
:1047800088BF022004D8A18B81428CBF0420002066
:10479000208170BD10B504460C30FFF715FF84F87A
:1047A0003400608BA18B08444108208BA0B100220B
:1047B00010F001001CBFE1830122238B83420BDD3B
:1047C00004EB4203521CD98304EB4203801CD983BF
:1047D000238B521C8342F3DCA180E180002084F80B
:1047E000330010BDB0F904007047B0F90000704705
:1047F000B0F90410B0F90C00C1EBC13191FBF0F03D
:1048000000B2704730B4B1F90050012490F810C0E4
:104810000023827A002DBABF694289B2098885894E
:104820008D4238BF0123C5898D4288BF0123B0F96D
:1048300008100029BABF494289B20189458A8D42D0
:1048400028BF002B04D062453CBF511CCAB202E015
:10485000624538BF0022624508BF002482722046AC
:1048600030BC704770B50546007800280CBFAC68B6
:104870006C68E968012904D9AA69A1F1010114440D
:1048800005E005D169884FEA01444FF00001E96075
:10489000012805D0E01704EB10400014AC6070BD97
:1048A000E01704EB104006146869FFF79BFF301A0D
:1048B00001B22869FEF7C4FD0104C5E9014170BDDC
:1048C0000178012918BF704700690021FEF7B0BDCB
:1048D00030B4047801235CB1D0F804C0C58B4FEA32
:1048E0002C4C8D42A4BFB0F92450A94217DA14E031
:1048F000D0F808C04FEAEC750CEB154CC58C4FEAAC
:104900002C4C8D4205DAB0F928500023A9421DDA5B
:1049100003E0B0F92850A94208DA002316E0058C1C
:10492000A942BCBFB0F922508D42F6DB8AB141806A
:10493000848BA1EB0C0162434FF47A74B2FBF4F266
:10494000521C090491FBF2F1C260816130BC18462F
:1049500070470904012C14BF816041600021C160CF
:10496000F3E710B504464069FFF73CFF00046060C0
:1049700010BD0146C28D098E62F30F0061F31F4026
:104980007047C08B70474068C11700EB114000149E
:104990007047B0F92C007047B0F9240070474069A7
:1049A0007047C0E9041290F82A100170818D090443
:1049B0004160C18D0904816000214180C160816135
:1049C000704701700021C160704702780021012A00
:1049D00001D1C160012108467047027800210B2AED
:1049E00004D109210170002181800121084670470E
:1049F000B0F802C003784CEA010C2CEA02024280B3
:104A0000B0F804C00A2B4CEA0101818005D012B134
:104A10000A2101700B4618467047002AFBD10B2172
:104A200001700B46F7E78188408841EA00407047F3
:104A300000787047002101704180818070470246F4
:104A400000201378132B6AD2DFE803F00D263B3EDB
:104A5000575C6164676E69690A2C3136484D5200B3
:104A6000002965D05BE003291CBF01290C295FD018
:104A7000072908BF704751880A2B41F080015180F7
:104A8000918841F080019180518854D0002914BF51
:104A90000A2170471170704707291CBF0D290E2984
:104AA00046D03CE00E2918BF072941D037E00F2936
:104AB00018BF07293CD032E0022918BF072937D098
:104AC0002DE0072934D02AE0072918BF10292FD05C
:104AD00004291CBF112901292AD020E0112918BF5F
:104AE000072925D01BE0122918BF072920D016E07E
:104AF000042918BF07291BD011E0052918BF072971
:104B000016D00CE0062918BF072911D007E00729A5
:104B10000ED004E008290BD001E0092908D00329B0
:104B200014BF01297047A3E7002918BF0C29F6D14B
:104B30004FF00100AEE7002908BF0B21AAD0704753
:104B400010B5084C2078022805D1FCF7DBFCFDF7F6
:104B5000B3F800202070C0B2401C2070BDE81040A7
:104B6000FEF7CAB91E06002030B5254893B00025CF
:104B7000016841F080510160006800F080501190A0
:104B80002048016841F4804101600068022400F47B
:104B90008040119001200090000401908001CDE937
:104BA00006400420CDE90A40A821CDE90801684665
:104BB000FCF78EFE00B1FEE70F20CDE90C044FF4A8
:104BC000A050CDE90E504FF48050109005210CA854
:104BD000FCF76CFD00B1FEE7FCF714FEFCF718FED5
:104BE0004FF47A71B0FBF1F0FDF750F80420FDF7B7
:104BF00041F804210022481FFCF714FD13B030BD1A
:104C000040380240007000400F48016841F47001D4
:104C100001600E48016841F0010101600C4A002169
:104C20001160026822F4102222F080720260031DDB
:104C3000084A1A60026822F4802202600648016075
:104C4000064958060860704788ED00E000380240C9
:104C500008380240103000240C38024008ED00E013
:104C600010B50D4C606A016911F0010F05D06FF0AD
:104C7000010101612046FBF789FF606A016911F0BB
:104C8000020F08BF10BD6FF002010161BDE81040C6
:104C90000148FBF713BE000074020020094810B55C
:104CA000D0F890008068016911F0800F05D06FF096
:104CB000800101610348FEF729FDBDE81040FEF7C1
:104CC00063B90000E001002004486FF00101D0F852
:104CD0009000806801610148FFF7AABBE001002055
:104CE000F0B402682A4B2B4C2B4D2C4EDFF8B0C091
:104CF000984218BFB0F1804F07D0A04218BFA84219
:104D000003D0B04218BF604504D14F6822F0700252
:104D100047EA0202984218BFB0F1804F25D0A04266
:104D200018BFA84221D0B04218BF60451DD0A0F1E5
:104D30008044B4F5A0341CBFA0F18044B4F5A23483
:104D400013D0A0F18044B4F5A4341CBFA0F180447A
:104D5000B4F5C05409D0A0F18044B4F5E0541CBFB0
:104D6000A0F18044B4F5005403D1CC6822F4407221
:104D7000224302608A68C2620A688262984212BF55
:104D80006045096901634FF001014161F0BC704762
:104D9000000001400004004000080040000C0040FA
:104DA0000004014010B4026A22F010020262026A9A
:104DB0004368D0F818C00C682CF4E64C4CEA042C7C
:104DC0008C6822F0200242EA0412A0F18044B4F57B
:104DD00080341CBFA0F18044B4F582340ED1CC687D
:104DE00022F0800242EA04124C6923F4406343EA51
:104DF00084038C6922F0400243EA84034360C0F8D4
:104E000018C049688163026210BC704703689A68E1
:104E1000D1F804C022F070024CEA0202D1F800C0BE
:104E200022F007024CEA02029A604A6812F00F0F61
:104E300018BF70471211082A28BF7047DFE802F038
:104E40001212121213273D040068D1E902230969E6
:104E5000D0F808C042EA01212CF47F4C194341EA02
:104E60000C01816070470268136AD2F820C02CF0F0
:104E7000010CC2F820C00268D2F818C009692CF0F1
:104E8000F00C4CEA01119161006803627047006800
:104E90000B698A68016AD0F820C02CF0010CC0F8B8
:104EA00020C0D0F818C021F00A012CF0F00C4CEA18
:104EB0000313114383610162704700688A680969BE
:104EC000036A23F0100303628369D0F820C023F43F
:104ED000704343EA01312CF0A00343EA02128161DE
:104EE0000262704730B4D0F820C02CF0010CC0F83A
:104EF00020C0D0F818C0046AA0F18045B5F580350F
:104F000018BFB0F1804F21D0A0F18045B5F5806584
:104F10001CBFA0F18045B5F5006517D0A0F1804514
:104F2000B5F540651CBFA0F18045B5F582350DD0C3
:104F3000A0F18045B5F5A0351FBFA0F18045B5F5BE
:104F4000C0552CF0030242F0010203D12CF0030CF7
:104F50004CEA02024FF0F00C22F0F0020CEA0313CC
:104F60001A4324F00A0301F00A0119438261016225
:104F700030BC7047054810B50068FFF7D6F900222D
:104F8000BDE8104080210248FFF732BD0406002032
:104F9000140600202DE9F84F4FF000092A48FBF7CE
:104FA00048FB2A480068FFF7FAFCFFF71EFCDFF811
:104FB000A08006466946D8F80000FEF7D4FA0098AB
:104FC000FDF75AFB07463146FDF77CFB214C0546B1
:104FD00029B2B4F91000411AA8F110000068FEF7D8
:104FE0002FFA514660F30F01B4F912008A46A0EB84
:104FF0002541A8F10C000068FEF722FA514660F343
:105000001F4108F10800C4F816100068FBF798F972
:105010003146FDF799FB82465146D8F80000FEF76D
:10502000A4FA0099E560C4E90017C4F81AA0268420
:10503000012805D10022012108F11000FFF7D8FC5A
:105040004846BDE8F88F000074020020EC050020FF
:10505000040600209C0700202DE9F041044600686A
:105060000169E26821F44051114301612068C1687F
:105070002369A268D4F81CC01A43636921F4037140
:1050800043EA0C0321F414411A431143C160206820
:105090004169A26921F4407111434161E2693226FC
:1050A000B2F5004FBA48BB49BB4D22685DD08A4279
:1050B00018BF824240F01281FCF7C0FB00EBC00138
:1050C00001EB001061688900B0FBF1F7FCF7B6FB5B
:1050D00000EBC00101EB001061688900B0FBF1F04A
:1050E000A5FB001040096FF01801484307EB800052
:1050F00006EB0010A5FB0010400900F0F007FCF7DC
:105100009DFB00EBC00101EB001061688900B0FB62
:10511000F1F0A5FB0010400907EB0017FCF78EFB30
:1051200000EBC00101EB001061688900B0FBF1F8F1
:10513000FCF784FB00EBC00101EB00106168890003
:10514000B0FBF1F0A5FB001040096FF018014843D7
:1051500008EB800006EB0010A5FB00102168C0F3EF
:10516000431038448860BDE8F0818A4218BF82420B
:1051700059D1FCF763FB00EBC00101EB0010616843
:105180004900B0FBF1F0A5FB001040090701FCF756
:1051900055FB00EBC00101EB001061684900B0FB5A
:1051A000F1F8FCF74BFB00EBC00101EB001061686C
:1051B0004900B0FBF1F0A5FB001040096FF01801A9
:1051C000484308EB800006EBC000A5FB0010400937
:1051D00000F0F80007EB4007FCF730FB00EBC001E4
:1051E00001EB001061684900B0FBF1F8FCF726FB09
:1051F00000EBC00101EB001061684900B0FBF1F069
:10520000A5FB001040096FF01801484308EB80002F
:1052100006EBC000A5FB00102168C0F34210384423
:105220008860BDE8F081FCF7F9FA00EBC00101EB02
:10523000001061684900B0FBF1F0A5FB00104009C7
:105240000701FCF7EBFA00EBC00101EB001061680D
:105250004900B0FBF1F8FCF7E1FA00EBC00101EB0B
:10526000001061684900B0FBF1F0A5FB0010400997
:105270006FF01801484308EB800006EBC000A5FB67
:105280000010400900F0F80007EB4007FCF7C6FAF1
:1052900000EBC00101EB001061684900B0FBF1F8C0
:1052A000FCF7BCFA00EBC00101EB0010616849009B
:1052B000B0FBF1F0A5FB001040096FF01801484366
:1052C00008EB800006EBC000A5FB00102168C0F3CE
:1052D000421038448860BDE8F08100BFFCF79EFAB8
:1052E00000EBC00101EB001061688900B0FBF1F731
:1052F000FCF794FA00EBC00101EB00106168890033
:10530000B0FBF1F0A5FB001040096FF01801484315
:1053100007EB800006EB0010A5FB0010400900F031
:10532000F007FCF77BFA00EBC00101EB00106168AD
:105330008900B0FBF1F0A5FB0010400907EB001756
:10534000FCF76CFA00EBC00101EB0010616889000A
:10535000B0FBF1F8FCF762FA00EBC00101EB0010C2
:1053600061688900B0FBF1F0A5FB001040096FF007
:105370001801484308EB800006EB0010A5FB001065
:105380002168C0F3431038448860BDE8F081000014
:1053900000140140001001401F85EB51002180F8EE
:1053A0001C117047FBF798B808B508218DF800105C
:1053B00001236A46FF2100F06FF808BD38B590F868
:1053C0001C21284D0446002A49D094F81D21C9B259
:1053D0009AB1012A04BF84F89A10022013D094F8DD
:1053E0009A309B1C9A4211D204F19900115494F8FE
:1053F0001D01401C84F81D0131E084F89910208AB9
:10540000194D6082012084F81D0128E084F81B11E9
:1054100000216182D4F82001144DC26822F02002DC
:10542000C26084F81C1104F19900FBF727F894F886
:105430001B1188420AD1D4F808C094F89A3094F825
:10544000991004F19B022068E04708E00A208DF8DB
:10545000000001236A46FF21204600F01DF828467F
:1054600038BD0000E2640008E4640008E664000857
:1054700090F81C1100291CBF01207047002180F802
:105480001D11012180F81C11D0F82001C16841F0E4
:105490002001C1600220704710B5044690F89700C3
:1054A00000281CBF012010BD04F116002175637592
:1054B000191EA3F1010313DD511E401E13F0010F4D
:1054C00003D111F8012F00F8012F5A1C521007D0F8
:1054D0004B78437011F8023F00F8023F521EF7D19B
:1054E00004F11400FAF7CAFF84F89600002184F84A
:1054F0009810012184F89710D4F82001C16841F078
:105500008001C160022010BD90F897200146002A5A
:1055100008BF704791F89820002A08BF0A7D0CD078
:10552000012A08BF4A7D08D04B7D9B1C9A423ABF96
:1055300001F11403D25C91F89620D0F820315A6022
:105540004B7D91F898209B1C9A423EBF501C81F8DD
:1055500098007047D1F82001C26822F08002C26032
:10556000002081F89700D1E90001084781690029EE
:1055700008BF704708474169002908BF70470847BE
:1055800070B5064C0546A06800F011FAA84218BF95
:1055900070BDA068BDE87040FFF7E8BF200600209E
:1055A00070B5026A90F82C0001240F2952F820509F
:1055B0002AD2DFE801F0291915082A2A111D212510
:1055C0002929292915002846FDF71CF8062804BFBB
:1055D0002846FDF74EF818E02846FDF713F818B1F5
:1055E0002846FDF742F810E02846FDF733F80CE0B6
:1055F0002846FCF7E3FF08E02846FCF78FFF04E0AD
:105600002846FCF783FF00E00024204670BD000020
:1056100010B5036A90F82C0053F82000044B83FB6C
:105620000131A1EBE17109B2FCF7B8FF012010BD17
:10563000ABAAAA2A034683209A68002A08BF7047AB
:1056400018461047002070472DE9F0410346406A94
:1056500093F82CC0232950F82C20186A50F82C40BD
:105660004FF0FF306FD017DC232928BFBDE8F08151
:10567000DFE801F0666A6F744B79838D92989DA282
:10568000A7ADB2B73D3D3D3D3D3D3D3D3DBCC1C6F5
:10569000CBD1DCE4E83DEC0002250126302900F006
:1056A00025810DDCA1F124010C2928BFBDE8F08182
:1056B000DFE801F0D7DDE1C4C8E5EFF3F7FBFFE970
:1056C0006E2955D029DC402900F0378111DC3D29B5
:1056D00000F025813E2900F029813F2918BFBDE84F
:1056E000F081506AFFF74DF900EB40004000BDE843
:1056F000F081412965D05B2918BFBDE8F0812046C3
:10570000FCF767FF012800F020812046FCF777FFB7
:1057100000EB40004000BDE8F081722904BF042086
:10572000BDE8F08106DC6F292CD0702908BF8C48B9
:10573000BDE8F08173291CBF8129BDE8F0810CE12F
:105740006046BDE8F08186E0906ABDE8F041FFF771
:105750006AB9906ABDE8F041FFF76AB92046BDE832
:10576000F041FCF736BF1068BDE8F041FDF751BECF
:105770001068BDE8F041FDF74FBE1068BDE8F0418C
:10578000FDF742BE1068BDE8F041FDF740BE10686D
:10579000BDE8F041FDF735BE2046FCF725FF00B21D
:1057A000BDE8F0815068BDE8F041FDF732BE5068B9
:1057B000BDE8F041FDF728BE5068BDE8F041FDF7B7
:1057C00020BE2046FCF710FF0014BDE8F081906871
:1057D000BDE8F041FDF71DBE9068BDE8F041FDF762
:1057E00013BE9068BDE8F041FDF70BBE106BBDE83D
:1057F000F04100F077BAD06ABDE8F041FDF7DDBDB9
:10580000D06BBDE8F041FDF791BD00219A6883207F
:1058100042B9BDE8F0819A6801218320002A08BFBF
:10582000BDE8F0811846BDE8F04110472046FCF77E
:10583000C8FE00EB40004000BDE8F0812046FCF7C8
:10584000D0FE0BE02046FCF7CCFE0DE05069BDE831
:10585000F041FEF733BF2046FCF7BDFE00B2BDE8C5
:10586000F0812046FCF7B7FE0014BDE8F081204629
:10587000FCF7B4FEF2E72046FCF7B0FEF4E7204662
:10588000FCF7B2FEEAE718E013E00EE009E004E0FE
:10589000FFE72046FCF7A8FEE6E72046FCF7BDFE42
:1058A000DCE72046FCF7B9FEDEE72046FCF7B1FE58
:1058B000D4E72046FCF7ADFED6E7996A51F82C30C4
:1058C0000021B5EB137F14BFB6EB137F9169C3F3CF
:1058D0000363022B14BF012BD169002908BFBDE867
:1058E000F0810846BDE8F041FEF77FBF996A51F8A4
:1058F0002C300021B5EB137F14BFB6EB137F9169F9
:10590000C3F30363022B14BF012BD169002908BF25
:10591000BDE8F0810846BDE8F041FEF769BF1A69AD
:10592000DAB1BDE8F0410021184610471A69A2B16A
:10593000BDE8F041012118461047506AFFF72CF8E6
:1059400000EB40004000BDE8F0812046FCF74FFE30
:1059500000EB40004000BDE8F0810020BDE8F08190
:105960007A84A6342DE9F0478946416A90F82C00E4
:105970000124DDF8208051F820001E4617464569B5
:10598000002D08BF00240FD049462846FEF799FE97
:10599000388049462846FEF79AFE30804946284618
:1059A000FEF79CFEA8F800002046BDE8F08790F8BE
:1059B0002C00704710B5FDF799FA18B1BDE81040FA
:1059C000FDF7AEBBBDE81040FDF7A4BBDDF800C09D
:1059D00001770021C0E9082380F82C10C0F828C006
:1059E000704700000948418811B14188491E418033
:1059F0008188012902D98188491E81800188012975
:105A000098BF70470188491E01807047200600201A
:105A100001494F208880704720060020014900205E
:105A20008880704720060020D0F820C090F82C0015
:105A300061F30F0319465CF8200062F31F41FCF785
:105A4000FABD4368002B08BF704718472DE9F041A5
:105A50000346164693F82C20406AD3F820C001254F
:105A600050F822005CF8227034B20A2959D008DCC0
:105A70000A291FD2DFE801F0161E1E201E373C4106
:105A800046500E2966D006DC0B294FD00C2952D087
:105A90000D295AD00EE00F2961D0412964D05B292D
:105AA00067D007E0197FF0B20125814288BF83F8F3
:105AB0002C0068D8002566E016F0FF0F07D13846A5
:105AC000FCF7A3FD014600223846FCF76EFDF0B25C
:105AD000012858D13846FCF792FD0146002238468D
