:020000040800F2
:10000000300D002031640008556400089D6100082F
:10001000596400085D640008616400080000000085
:1000200000000000000000000000000065640008FF
:1000300069640008000000006D64000805620008A3
:100040007164000875640008796400087D64000824
:10005000816400088564000829620008896400083A
:100060008D64000891640008956400089964000894
:100070009D640008A1640008A5640008A964000844
:10008000AD640008B164000895600008B56400081C
:10009000B9640008BD640008C1640008C5640008B4
:1000A000C9640008CD640008D1640008D564000864
:1000B000D9640008DD640008E1640008E564000814
:1000C000E9640008ED640008F1640008F5640008C4
:1000D000F96400082F610008FD640008016500084C
:1000E00005650008096500080D650008D76000086F
:1000F000C56000081165000815650008196500084D
:100100001D65000821650008FD60000825650008E0
:10011000296500082D65000831650008356500086F
:10012000396500083D65000841650008456500081F
:10013000496500084D6500085165000855650008CF
:10014000596500085D65000861650008656500087F
:10015000696500086D65000871650008756500082F
:10016000796500087D6500088165000885650008DF
:10017000896500088D650008916500080000000091
:10018000956500089965000830B581B004462146A0
:10019000D4F89020906800F042F8D4F89000DFF88E
:1001A0005C2C8368DFF8581C934204D10D6845F03D
:1001B00001050D6003E00B6843F002030B606FF074
:1001C0000405DFF8401C8B6843F001038B60D1F815
:1001D000083143F00103C1F808310D604B6843F06A
:1001E00080034B60CB6A23F47003CB62806890423B
:1001F000886820F47C10C4F888000CBF40F480119B
:1002000040F4F011002084F88C00A4F85C00C4F8DD
:100210008410B4F86400A4F85E0001B030BD026838
:1002200052085200026000F11802136843F00803FC
:100230001360D2F800C04CF4006C42F804CB136891
:1002400043F008031360D2F800C04CF4006CC2F80D
:1002500000C0D1F8903093F8302032B16FF08003B5
:100260000361C26842F08002C260426942F001024A
:100270004261D1F890209378022B0DD1D378012BD5
:1002800004BF927B032A0AD103630323426942F02D
:1002900001024261036302E091F854201AB9B1F8F7
:1002A0008010491E4162704730B5054681B0D5F8CF
:1002B00090000FF2012284680021E96629676967CE
:1002C00085F883104EF6AA20216A014021626A60F7
:1002D000D5F890000179D5F89000C903A967417954
:1002E000C903E967284600F04FF905E0E068C10757
:1002F0005CBF102085F8830095F883001028F5D3A3
:10030000002185F883100FF2F110D5F89010686085
:100310008879C003A867D5F890008179C903E96797
:10032000284600F031F905E0E068C1075CBF102005
:1003300085F8830095F883000828F5D3E86E0FF25E
:1003400055016960C008E866286FC0082867686FB3
:10035000C00868674FF2F770A1690140A161E269C6
:100360001040E061B5F880006063B5F88010A163CB
:10037000B5F88000E06340F60800A1690143A1617F
:10038000E2691043E06140F25550216A0143216265
:1003900001B030BD10B4D0F890209368DFF8602B26
:1003A00003F1200402EB44120023136080F8823032
:1003B00090F84620052A6DD8DFE802F0224848036D
:1003C0000322DFF8402B1468C36EA3EB4403DFF86D
:1003D000384BA342B8BF234604DBB3F5004FA8BF98
:1003E00047F6FF730B80D2F80031026FA2EB430295
:1003F000A2424CDBB2F5004F4BDB47F6FF7248E000
:10040000DFF8002B1468036FA3EB4403DFF8F84A0E
:10041000A342B8BF234604DBB3F5004FA8BF47F69D
:10042000FF734B80D2F80021436FC3EB4203B1F955
:1004300002209A1AB2F5004FA8BF47F6FF7203DAFE
:10044000A242B8BF0C8025DB0A8023E0DFF8B42A83
:100450001468C36EA3EB4403DFF8AC4AA342B8BFF1
:10046000234604DBB3F5004FA8BF47F6FF730B80AC
:10047000D2F80021436FC3EB4203B1F900209A1A6E
:10048000B2F5004FACBF47F6FF72A24201DA4C80D2
:1004900000E04A800A88A0F856204B88A0F858301F
:1004A000B1F9002049885242521AA0F85A2010BCD3
:1004B00070470000D0F890108A68DFF8441A02F103
:1004C000200301EB431100220A6080F8822090F89B
:1004D000831010290FD2DFF82C2AC36E1168CB18B5
:1004E000C366036FD2F80011CB18036790F883201E
:1004F000521C80F883207047D0F890108A68DFF88B
:10050000001A02F1200301EB431100220A6080F877
:10051000822090F8831008290ED2DFF8E819436F83
:100520000A68D3184367D1F80011CB18436790F8D5
:100530008320521C80F883207047D0F8901089687F
:10054000012280F850206FF001030B6100224A6302
:100550008A63CA630A69D307FCD54A6C42F4004235
:100560004A64D0F890100A7D022A0CD1CA698969C0
:100570008A61D0F890104A6A096A8A61D0F89000BE
:10058000C16A806A81617047D0F890108968002242
:1005900080F85020DFF87429136823F00C031360EF
:1005A000D2F800C12CF00C0CC2F800C16FF00102AF
:1005B0000A61CB6843F00103CB604A6C42F400420D
:1005C0004A64D0F89020137D022B1FD19369D26921
:1005D000096A40F2555C11EA0C0F09D09A61D0F813
:1005E00090104A6A096A8A61D0F89000C16A0BE0EB
:1005F00012049A61D0F890104A6A096A12048A615A
:10060000D0F89000C16A0904806A81617047D0F80F
:1006100090108A68002380F85030D168490849005A
:10062000D1604FF6AA21136A0B4013621169CB0700
:1006300002D4D168CB07F9D5516C21F40041516443
:10064000D0F890100B7D022B0FD1CB6989691B0468
:100650008B61D0F890104B6A096A1B048B61D0F84B
:100660009000C16A806A0904816140F25550116AA4
:10067000014311627047F0B5D0F89020D0F8843073
:100680009268D0F89040B0F84850B0F8806023F4F9
:100690004013C0F88430771B238A1FFA87FE734506
:1006A0004FF480110ED2D0F890400323A0F84630CA
:1006B0002579D0F89040B0F88030ED0385675B1E57
:1006C00065791BE0B0F84AC03F04A5EB0C0CFF0BAA
:1006D0001FFA8CFC674502D2638AEB1A08E05B19AB
:1006E0009BB2B34204DBC3EB46034FF400115B1E25
:1006F0006479E4038467D0F89040A579D0F8844009
:10070000ED032143C567C0F884109BB21364D0F891
:1007100090108968B0F848204A63B0F84A308B637B
:10072000B0F84C20CA6390F88200401E8041C0435C
:10073000C00FF0BDF0B5D0F89020D0F884309268AA
:10074000D0F89040B0F84A50B0F8806023F44013DD
:10075000C0F88430771B238A1FFA87FE73454FF455
:1007600080110ED2D0F890400323A0F846302579AE
:10077000D0F89040B0F88030ED0385675B1E657956
:100780001BE0B0F848C03F04A5EB0C0CFF0B1FFAB0
:100790008CFC674502D2638AEB1A08E05B199BB2B6
:1007A000B34204DBC3EB46034FF400115B1E247914
:1007B000E4038467D0F89040A579D0F88440ED0335
:1007C0002143C567C0F884109BB21364D0F8901021
:1007D0008968B0F848204A63B0F84A308B63B0F8B3
:1007E0004C20CA6390F88200401E8041C043C00F75
:1007F000F0BDF0B5D0F89020D0F884309268D0F8F1
:100800009040B0F84A50B0F8806023F44013C0F82C
:100810008430771B238A1FFA87FE73454FF48011BB
:100820000ED2D0F890400323A0F846302579D0F8B6
:100830009040B0F88030ED0385675B1E65791BE062
:10084000B0F84CC03F04A5EB0C0CFF0B1FFA8CFC5E
:10085000674502D2638AEB1A08E05B199BB2B34288
:1008600004DBC3EB46034FF400115B1E2479E40361
:100870008467D0F89040A579D0F88440ED032143F7
:10088000C567C0F884109BB21364D0F890108968D3
:10089000B0F848204A63B0F84A308B63B0F84C2077
:1008A000CA6390F88200401E8041C043C00FF0BD73
:1008B000F0B5D0F89020D0F884309268D0F890400D
:1008C000B0F84C50B0F8806023F44013C0F8843086
:1008D000771B238A1FFA87FE73454FF480110BD2D2
:1008E000D0F890400323A0F846302579B0F8803046
:1008F000ED035B1E856718E0B0F84AC03F04A5EB26
:100900000C0CFF0B1FFA8CFC674502D2638AEB1AB2
:1009100008E05B199BB2B34204DBC3EB46034FF420
:1009200000115B1E2479E40384679BB2D0F89040E9
:100930006579D0F88440ED032143C567C0F8841081
:100940001364D0F890108968B0F848204A63B0F872
:100950004A308B63B0F84C20CA6390F88200401E86
:100960008041C043C00FF0BDF0B5D0F89020D0F862
:1009700084309268D0F89040B0F84C50B0F8806065
:1009800023F44013C0F88430771B238A1FFA87FEB4
:1009900073454FF480110BD2D0F890400323A0F898
:1009A00046302579B0F88030ED035B1E856718E08E
:1009B000B0F848C03F04A5EB0C0CFF0B1FFA8CFCF1
:1009C000674502D2638AEB1A08E05B199BB2B34217
:1009D00004DBC3EB46034FF400115B1E2479E403F0
:1009E00084679BB2D0F890406579D0F88440ED03DD
:1009F0002143C567C0F884101364D0F8901089684B
:100A0000B0F848204A63B0F84A308B63B0F84C2005
:100A1000CA6390F88200401E8041C043C00FF0BD01
:100A2000F0B5D0F89020D0F884309268D0F890409B
:100A3000B0F84850B0F8806023F44013C0F8843018
:100A4000771B238A1FFA87FE73454FF480110ED25D
:100A5000D0F890400323A0F846302579D0F8904094
:100A6000B0F88030ED0385675B1E65791BE0B0F858
:100A70004CC03F04A5EB0C0CFF0B1FFA8CFC674528
:100A800002D2638AEB1A08E05B199BB2B34204DB23
:100A9000C3EB46034FF400115B1E6479E4038467E3
:100AA000D0F89040A579D0F88440ED032143C56784
:100AB000C0F884109BB21364D0F890108968B0F825
:100AC00048204A63B0F84A308B63B0F84C20CA63C0
:100AD00090F88200401E8041C043C00FF0BD30B48A
:100AE000D0F89030DFF824249C68012180F882102F
:100AF000116801F00C0108291ED1116801F00C01E8
:100B00000C29FAD1D0F888109160D0F88830C2F85A
:100B10000831216A41F480512162D0F8841091603B
:100B2000D0F88430C2F80831816F9163C36FC2F886
:100B30003831543030BC704700291D88E2D1616AD9
:100B4000A942FCD3116801F00C010829DAD111681F
:100B500001F00C010C29FAD1D4E7D0F890100A7DED
:100B6000022A0BD14A6A8B6912049A610B6ACA691C
:100B700012049A61CA6A896A12048A61012280F8A1
:100B80008C20543070470146002091F88C20012AB7
:100B900003D10022402081F88C20704730B4D0F877
:100BA00090108A6890F85510002945D102F118017B
:100BB00000250C6824F0730444F060040C60146A8F
:100BC00044F001041462146A24F0040414625563AE
:100BD000D0F89040247D012C0DD10C6824F4E6441B
:100BE00044F480540C60136A23F010031362136AF8
:100BF00043F040030EE0022C0DD10C6824F4E644CF
:100C000044F400540C60136A43F010031362136A37
:100C100023F04003136251F8043F23F0730343F0C1
:100C200070030B60116A21F480711162116A21F462
:100C300080611162016FC1660FF299120FF2C91142
:100C4000426041610FF20922B149C2608160012214
:100C500080F8552030BC7047D0F8901090F855209F
:100C60008968012A00D0704730B401F11802146875
:100C700024F0730444F0600414600C6A44F001042E
:100C80000C62D0F89040247D012C03D10C6A44F012
:100C9000040404E0022C03D10C6A24F004040C6266
:100CA000B0F8804064084C63156825F4E64545F4C7
:100CB000C04515600B6A43F010030B62D0F890300A
:100CC0001B7D012B03D10B6A43F0400304E0022B90
:100CD00003D10B6A23F040030B62B0F880305B084D
:100CE0008B6352F8043F23F0730343F060031360F7
:100CF0000A6A42F480720A62D0F89020127D012ABA
:100D000003D10A6A42F4806204E0022A03D10A6A2B
:100D100022F480620A62B0F880205208CA637D49DA
:100D20007D4A416042617D49794AC160826000210B
:100D300080F8551030BC7047D0F89020B0F8803063
:100D400092685943090CA0F8481048F6FF71D3691E
:100D50000B40D361D36943F4C043D361B0F866104C
:100D6000B0F880305B1A1364B0F86830D363B0F821
:100D700048105163D0F8883069490B60D0F888C0BA
:100D8000C1F800C1136A43F480531362D0F8843071
:100D90000B60D0F884C0C1F800C1D0F8903093F84F
:100DA00005C04FEACC3CC1F830C0D0F8903093F881
:100DB00004C04FEACC3CC1F830C11169B0F84E20F4
:100DC000012A01F0010103D100220121A0F84E20E7
:100DD00008467047002280F882204A4B1A68006F4C
:100DE000A0EB4200484A904203DD47F6FF72904272
:100DF00000DB10460880488070470000000001407A
:100E00000C2004E000200140D0F8901089680022F6
:100E10004A636FF001030B610A69D307FCD54A6C82
:100E200042F400424A64D0F890100A7D022A0ED1A2
:100E3000CA6989698A61D0F890104A6A096A1204FD
:100E40008A61D0F89000C16A806A090481617047A4
:100E500030B4D0F8901089686FF001020A610B6914
:100E6000DC07FCD50A6101224A63B0F880305B1FC1
:100E70000B640A69D307FCD54A6C42F400424A6409
:100E8000D0F89020137D022B19D19369D2690C6A96
:100E900040F255552C4204D09A61D0F89020536A04
:100EA00005E012049A61D0F89020536A1B04126A7C
:100EB0009361D0F89020D36A926A1B049361184A18
:100EC000D0F888301360D0F88840C2F800410B6A2F
:100ED00043F480530B62D0F884101160D0F8843052
:100EE000C2F80031D0F890104B79DB031363D0F8CF
:100EF00090004179C903C2F8301130BC704700003E
:100F0000300000423C2001400180FFFF00200140F2
:100F10000F060008950300083B0500088905000836
:100F20000820014070B40246D47AD0899589536A6A
:100F30006043000415FB04F1146A240C800C490082
:100F4000A2F8964008B9962006E000EB400542F270
:100F500010746800B4FBF0F0A2F89400A2F88610B8
:100F6000B2F89440B2F896003C4D444384FB0565CA
:100F7000AD1105EBD575A2F8845089B2B2F88400A2
:100F8000374D968A0004C2F88C00106AA0FB055405
:100F9000A408B4FBF6F63604106AC2F8886000EBC9
:100FA000800464002E4E908AA4FB0665AD08B5FB54
:100FB000F1F1C2F89010518B90FBF1F14C1E012021
:100FC000B2F88410A2F8984082F84000996200219B
:100FD000586940F0010058611961186840F0040038
:100FE0001860D96841F00201D9600021D86840F04A
:100FF0000100D8605962186A40F00100186219684F
:1010000041F0010119600023107F012823DB10F05B
:10101000030108D002F146050024DEB25B1C25F86E
:101020001640491EF6D1800800F0158002F14604F2
:101030000021DDB224F815105B1CDDB224F8151078
:101040005B1CDDB224F815105B1CDDB25B1C24F8C0
:101050001510401EEAD170BC70470000D34D6210DD
:10106000ABAAAAAA416ACA6822F00202CA60002397
:1010700080F84130002280F84220012380F840307F
:101080000281002380F8433080F8442080F8453006
:10109000A0F882200367012280F8762080F86A3069
:1010A0000022B0F8843080F877208B624A620B68A7
:1010B00043F001030B60CA6842F00202CA6065E2B5
:1010C000B0F90610B0F9002047F6FF73994213D02B
:1010D000B0F87EC0B0F88030A0F874108C44A0F84E
:1010E0007EC0CB18B0F882C0A0F880308C44624437
:1010F0000280B0F900007047B0F874108A180280BE
:10110000B0F90000704730B5044681B094F8400053
:10111000B4F96C2000280D464DD0606A806AB4F89E
:101120008430984203D30020E08028803BE0E280B6
:1011300012B90020288036E047F6FF739A422FD07C
:10114000B4F97E10B4F89830A4F880102088091AF9
:10115000A4F87C1009B294F9770091FBF3F101280F
:10116000A4F882100ED1207F94F84410814231BF40
:10117000A4F87820216F91FBF0F0A4F87800002209
:1011800084F87720B4F978102980A08AE37A414363
:1011900001EB810251001B0491FBF3F0288002E077
:1011A000B4F9861029802946204600F086FA2A885C
:1011B000A28001B030BD217CA1720022E2802A8091
:1011C0002A88A28001B030BDF0B490F84010426A85
:1011D000002900F07C8190F87A30817DE1B9846B40
:1011E000C16B2569446B0D408D42056B2E69C56A44
:1011F0000CBF012100212640A642866A37690CBF38
:10120000012400242F40AF420CBF012500256400BB
:1012100044EA810425431DE0046B416B2569C46BDE
:101220000D408D42856B2E69C56A0CBF01210021DE
:101230002640A642866A37690CBF012400242F404D
:10124000AF420CBF01250025890081F0040141EA6D
:1012500044010D4380F87A5090F87A10491E052910
:1012600000F28980DFE801F015472E710360042B3E
:1012700008BF012179D0012B40F08080038B03F55A
:1012800028534FF0FF31AA3380F87610A0F87E3053
:1012900074E0052B09D1038B03F528530121AA33F0
:1012A00080F87610A0F87E3068E0032B66D1038BBF
:1012B00003F5AA434FF0FF31553380F87610A0F8BC
:1012C0007E305BE0012B09D1038B03F5AA4301219A
:1012D000553380F87610A0F87E304FE0022B4DD1C8
:1012E000038B03F5FE434FF0FF31FF3380F8761098
:1012F000A0F87E3042E0032B09D1038B03F5FE43B7
:101300000121FF3380F87610A0F87E3036E0062BFE
:1013100034D14FF0FF3180F8761045F25551038BF0
:10132000591AA0F87E1029E0022B09D1012180F87A
:10133000761045F25551038B591AA0F87E101DE026
:10134000042B1BD14FF0FF3102E0062B09D1012104
:1013500080F8761042F6AA21038B591AA0F87E1065
:101360000CE0052B0AD14FF0FF31038B80F876108B
:10137000A0F87E3002E0002180F8401090F8431081
:1013800041B990F84310491C80F84310506BF0BCF1
:101390000020704790F84410037F994204D290F8DF
:1013A0004410491C80F84410546B936A90F84550DF
:1013B00090F84510A4B29BB204EB0545A9B15B1CA3
:1013C0009BB290F842106B4319B1002280F8422082
:1013D00023E0916AB0F88440A1421ED2916A491C70
:1013E0009162012280F8422017E090F8411031B15B
:1013F0009B1C9BB200216B4380F841100DE05B1CED
:101400009BB26B43B4F5AA4F07DA916A29B1916A8E
:10141000491E9162012280F84120D0F890108B4241
:1014200007D247F6FF720021A0F86C2080F87710F1
:101430004AE000F1460190F86A40026F31F9141059
:10144000521A0267D0F88C2090F86A10934205D3A4
:1014500000F14604002324F811301EE0D0F8882063
:10146000B2FBF3F200F1460300F1460423F8112029
:1014700000F1460290F86A1032F8113090F97620A7
:1014800013FB02F224F8112000F1460290F86A30B2
:10149000016F32F913208918016700F1460390F8B3
:1014A0006A1033F8112090F86A10A0F86C20491CDB
:1014B00080F86A10C9B2027F914204BF002180F80F
:1014C0006A10012280F87720002180F84510002062
:1014D000F0BC704730B5044681B094F84000616AB2
:1014E00000284FD094F84500401C84F845004FF484
:1014F0007A708A6AB4F89430B4F89610521C4B4350
:101500004243B3FBF2F094F8451080B2814239D3E4
:101510000022E280204600F039F8002184F84510CE
:10152000207F28B304F146000022CBB220F813201C
:10153000491C207FCDB285421AD204F14603491CD2
:1015400023F81520C8B2227F904211D20020CDB2DC
:1015500023F81500491C207FCAB2824208D200221B
:10156000CDB223F81520491C227FC8B29042D9D3AE
:10157000002084F8440000210120A4F86C1084F8B5
:101580006A002167002001B030BD000030B4817DC9
:10159000E1B9826BC16B1369426B0B408B42036BE9
:1015A0001C69C36A0CBF0121002114409442846A63
:1015B00025690CBF012200221D409D420CBF012362
:1015C0000023520042EA810213431DE0026B416B8B
:1015D0001369C26B0B408B42836B1C69C36A0CBFDF
:1015E0000121002114409442846A25690CBF012224
:1015F00000221D409D420CBF012400248B0083F07B
:10160000040343EA4203234380F87A3090F87A20B7
:10161000B0F90010521E052A40D8DFE802F00D2173
:101620001735032B018B01F5A85155310180018835
:10163000A0F87E1030BC7047018B01F57C51FF3162
:1016400001800188A0F87E1030BC7047018B01F545
:10165000D441AA3101800188A0F87E1030BC7047C7
:10166000018B46F6AA22891A01800188A0F87E1013
:1016700030BC7047018B43F6FF72891A01800188E4
:10168000A0F87E1030BC7047018B41F25552891A88
:1016900001800188A0F87E1030BC7047002380F8DC
:1016A000403001800188A0F87E1030BC7047B0F94E
:1016B00000007047B0F9040070470122F0B4002523
:1016C000495F037C847A0E0048BF494286898FB205
:1016D000BE42C68938BF012589B2B142B0F90810AF
:1016E00038BF01250E0048BF4942468A89B28E4262
:1016F00000D31DB19C4204DA641C02E09C42B8BFD6
:101700000024E1B2994208BF002284721046F0BC66
:101710007047B0F90410B0F90C00C1EBC13191FB76
:10172000F0F000B27047F0B40246106895681318E4
:10173000506803EB5004C0071DD54D441BE013F85F
:10174000017B05F8017B491EF9D1A0B1B60813F859
:10175000011B06F00306032E08BF13F8016B01EB13
:1017600006214942801C294405D011F8016B05F877
:10177000016B401EF9D1A3420ED013F8016B16F095
:10178000030104BF13F8011BC91C30090F28DAD16B
:1017900013F8010B0F30D6E7F0BC02F10C007047D4
:1017A00081B0DDF804C0017702620021436280F855
:1017B0002C10C0F828C001B0704790F82C0070477A
:1017C00070B5164682B0046A426A90F82C3054F81C
:1017D000235052F823200124E1B1032923D0052905
:1017E00037D0062938D0072939D008293AD0092915
:1017F0003FD00A2940D00B2941D00C2942D00D29D5
:101800004DD00E2952D00F2957D041295CD05B29E9
:1018100061D06EE0027FF1B291426AD280F82C6012
:10182000204602B070BDF0B250B9284600F0C6FBA9
:1018300001460022284600F016FB204602B070BD8B
:10184000F6B2012E56D1284600F089FB002201464F
:1018500049E0106831B224E0106831B228E0106825
:1018600031B22CE0284600F092FB0090ADF8006009
:101870000EE0506831B214E0506831B218E05068A0
:1018800031B21CE0284600F082FB0090ADF8026007
:101890002846009900F0F0FA204602B070BD90682A
:1018A00031B200F0A5FB204602B070BD906831B2A5
:1018B00000F0A0FB204602B070BD906831B200F08D
:1018C000A7FB204602B070BD31B2284600F07AFB7B
:1018D000204602B070BDDFF8880486FB001000EBE4
:1018E000D071002209B2284600F0B6FA204602B0B4
:1018F00070BD0024204602B070BD000030B5024625
:1019000081B0506A92F82C4050F82430106A50F898
:10191000245081294FF0FF3000F2C381DFE811F03D
:10192000820085008B00910097009900A100A9001A
:10193000AB00B300B500B700B900C100C700CD00CF
:10194000C101C101C101C101C101C101C101C10187
:10195000C101D300D900DF00E500E700ED00F5008C
:10196000FD00C10105010B0113011B012301F5005D
:10197000FD002B0133013B0143014B0153015B018E
:101980007201C101C101C101C101C101C101C10196
:10199000C101C101C101C101C10189018E019601CD
:1019A0009E01B900C101C101C101C101C101C10153
:1019B000C101C101C101C101C101C101C101C10117
:1019C000C101C101C101C101C101C101C101C10107
:1019D000C101C101C101A601C101C101C101C10112
:1019E000C101C101C101C101C101C101C101C101E7
:1019F000C101C101C101C101C101C1019B00A3001D
:101A0000BA01C101BD01C001C101C101C101C101D2
:101A1000C101C101C101C101C101C101C101C101B6
:101A2000C101C001204601B030BD986A01B0BDE8D7
:101A3000304000F0B9BB986A01B0BDE8304000F01A
:101A4000A6BB284601B0BDE8304000F071BA284678
:101A500019E1186826E0186801B0BDE8304000F0D0
:101A6000D3BA186824E0186801B0BDE8304000F02F
:101A7000CDBA186822E0284600F089FA0090BDF936
:101A8000000001B030BD58680CE0586810E058689C
:101A900014E0284600F07BFA0090BDF9020001B086
:101AA00030BD986801B0BDE8304000F0A5BA986834
:101AB00001B0BDE8304000F0A2BA986801B0BDE8BE
:101AC000304000F0A7BA186B01B0BDE8304000F01C
:101AD00071BBD86A01B0BDE8304000F0ADBBD86B37
:101AE00001B0BDE8304000F012BC002100E001214F
:101AF00001B0BDE8304010469AE1284600F025FAD2
:101B000000EB4001480001B030BD284600F038FA33
:101B10000090BDF9000001B030BD284600F030FA59
:101B20000090BDF9020001B030BD586901B0BDE8B8
:101B3000304000F015BC284600F014FA0090BDF9C2
:101B4000000001B030BD284600F00CFA0090BDF94D
:101B5000020001B030BD284600F00BFA0090BDF93C
:101B6000000001B030BD284600F003FA0090BDF936
:101B7000020001B030BD284600F009FA0090BDF91E
:101B8000000001B030BD284600F001FA0090BDF918
:101B9000020001B030BD284600F000FA0090BDF907
:101BA000000001B030BD284600F0F8F90090BDF902
:101BB000020001B030BD284600F0F8F90090BDF9F0
:101BC000000001B030BD284600F0F0F90090BDF9EA
:101BD000020001B030BD916A51F824200021140F99
:101BE000022C14BF012C9969C2F30362022A14BFAC
:101BF000012AD969002954D001B0BDE83040084617
:101C0000FFF755BD916A51F824400021220F022AA6
:101C100014BF012A9969C4F30362022A14BF012A7E
:101C2000D96900293DD001B0BDE830400846FFF732
:101C300070BD1369002B33D0002102E013697BB320
:101C4000012101B0BDE8304010461847586A00F045
:101C500035FC00EB4001480001B030BD586A00F08F
:101C60002FFC00EB4001480001B030BD284600F0D9
:101C70005FF90128284606D100F05CF900EB40012D
:101C8000480001B030BD00F06AF900EB40014800A7
:101C900001B030BD334801B030BD042001B030BDCB
:101CA000002001B030BD000030B581B0026A90F86C
:101CB0002C000124491E52F820500D2939D8DFE8A4
:101CC00001F007090B393916262C32383838380913
:101CD000284612E0284615E0284600F026F9062896
:101CE00028D1284600F02EF9204601B030BD284604
:101CF00000F01BF90028284604D100F0CCF820465B
:101D000001B030BD00F0D1F8204601B030BD28460A
:101D100000F0CFF8204601B030BD284600F0CCF8E6
:101D2000204601B030BD284600F050F9204601B0F1
:101D300030BD0024204601B030BD30B581B0056A09
:101D4000074B81FB034303EBD37190F82C3055F81C
:101D5000230009B200F080F8012001B030BD00007E
:101D6000ABAAAA2A7A84A6342DE9F04381B088462A
:101D7000416A90F82C0051F820104C69164699469B
:101D80000125A4B1089F4146204600F0D5FA3080D5
:101D90004146204600F0D6FAA9F800004146204608
:101DA00000F0D7FA388001B02846BDE8F08300255E
:101DB000284601B0BDE8F083F0B50C461D4681B061
:101DC000416A90F82C0051F820305F69BDF9186025
:101DD0002146384600F09EFA2A462146384600F051
:101DE0009FFA32462146384600F0A0FA012001B0A1
:101DF000F0BD82B0ADF80010ADF80220026A90F894
:101E00002C30009952F8230002B000F035B80020C1
:101E100070474169002918BF084770478169002948
:101E200018BF084770474368002B18BF1847704712
:101E300000B581B0836883220BB1984702461046F3
:101E400001B000BD01604260002183600173C18167
:101E50000182C1820176704701230373C181C2826E
:101E60000376437670470182C28202230121002259
:101E7000037301764276704702B403210173BDF803
:101E8000002042820122BDF80210818202760021E8
:101E9000417601B0704710B504460321206800F078
:101EA00003F9012808BF207610BD0068072100F063
:101EB000FBB8006800F06DB90068012100F0F4B8CB
:101EC00010B5040030D0207E01282DD1217B0020C8
:101ED000012904D00FD303291BD00FD30BE0A26834
:101EE00082F82400606800F071FAE28AB4F90E10FA
:101EF000606800F06FFAA8B1022014E0A068002129
:101F000080F82410606800F061FAE28AB4F91010D9
:101F1000EEE7A068012180F82410D4F812200261B5
:101F2000022000E00320207610BD006800F02FB9E9
:101F3000407E7047014600200A7B012A08BFB1F9A4
:101F40000E007047406800F0BEBA00B581B040682E
:101F500000F02CFA01B05DF804EBFFF7ABBB406872
:101F600000F02EBA81B0806801680091084601B087
:101F7000704781B0806841680091084601B07047A1
:101F800081B08068C1680091084601B0704781B097
:101F9000806801690091084601B0704781B080688F
:101FA000D0F816100091084601B0704781B08068E3
:101FB000D0F81A100091084601B070478068B0F957
:101FC0001E007047806841828182704710B50446C8
:101FD000606800F080FAA168086110BD018842883D
:101FE0008180C2800022018C4184826082627047BD
:101FF00081807047C1807047B0F904007047B0F924
:102000000600704781607047008B7047408B7047B7
:1020100041847047B0F922007047F0B4B0F9043041
:10202000B0F91450B0F91660B0F9062000244B4303
:102030000AB9002115E0514382688F1806D5002A9D
:10204000C8BF002906DD6FF0004703E0002A44BF47
:102050000029114FC168B94203DB0169B942B8BF19
:102060003946878B81603B41C78B0A4642FA07F1AC
:10207000CB189D4206DAEC1AA4182B46846018B2DD
:10208000F0BC7047B342BCBFF41A3346A418846056
:1020900018B2F0BC70470000010000800021017000
:1020A000418081807047000010B403780022122B19
:1020B0000DD8DFE803F0202749334347494B4D5102
:1020C0000C0C0A2D2F313D3F41000C0048D0032954
:1020D0001CBF012907290BD0418841F080014180B4
:1020E0000A2B818841F08001818001D00A21017092
:1020F00010BC104670470C46032C31D0012C2DD15A
:102100000122F4E7072918BF0D2929D00E2920E064
:102110000E2914E00F2912E0022910E0072918BF48
:1021200010291DD0042918BF112919D0012910E048
:10213000112904E0122902E0042900E0052903D155
:102140000122D4E706290BD0072902E0082900E084
:102150000929BCD10122CAE70C0001D00C2CB6D150
:102160000122C4E730B403465C889D8818780C438C
:1021700024EA020229430A285A80998002D122B90E
:102180000B2001E00AB10A20187030BC70470078BB
:102190007047014600200A780B2A04D109200870F4
:1021A00000228A800120704701468888498840EAD9
:1021B000014070470146C88849884843000C704771
:1021C000018A428B8A4201D208207047828B914259
:1021D00001D200207047C08A704710B504462078AD
:1021E00038B9201D00F08AF984F8260000202082EA
:1021F00010BD608A20820021E18210BD10B5044626
:102200002078A8B994F8260000F0CEF94FF6FF71B7
:10221000884207D0218B238A4A1E03FB0200B0FBB1
:10222000F1F020822046FFF7CBFFE082E08A10BD6C
:102230000020E082E08A10BD017869B9018A026A53
:102240008A1AB0F91E10808C4A43D31302EB134252
:1022500000EB224000B27047808A00B2704730B471
:10226000002513E050F8042BD30744BFA9F1010364
:102270009A18091F042942F8045BFAD213468C0706
:1022800044BF15809B1CC90748BF1D7050F8041B34
:102290000029E7D130BC704710B504464FF4807177
:1022A00000F0D6F90022A4F80021A4F8022110BD04
:1022B000F0B402460023B2F8000122F81010B2F880
:1022C0000001B2F80041A2F80241401CA2F800014E
:1022D000144680B2802828BFA2F800315FF02000A9
:1022E00034F9025B34F9026B34F9027B5B199B19F8
:1022F00034F9025BDB19401E2B44F1D1981103EB3A
:102300005063DB11A2F804310846F0BC7047B0F905
:102310000401704701EB410300EB830082817047A9
:1023200001EB410300EB8300C281704701EB4103E5
:1023300000EB83000282704701EB410200EB820058
:102340008089704701EB410200EB8200B0F90E007A
:10235000704701EB410200EB8200B0F910007047BA
:1023600090F848007047084480F8302070470844CF
:1023700090F83000704700EB41004286704700EB58
:102380004100B0F9320070470161426190F82A10B3
:102390000170B0F92C20B0F92E101204426009042B
:1023A000002281604280C26082617047406970474C
:1023B0000178012903D100690021FFF723BE70478E
:1023C0004068C11300EB11400014704701700021F8
:1023D000C1607047F0B4047801230D46D4B9866813
:1023E000F71306EB1746C78C3614AF42B0F92870C6
:1023F000B8BF0023B9421DDB1F002DD0F2B92D0458
:10240000012C0CBF456085600021C16082611846C7
:10241000F0BC70474668C78B3614AF42A4BFB0F912
:102420002470B94206DB078CBD42BCBFB0F92270F4
:102430008F42E3DAF0BC0023184670474180AD1BA1
:10244000818B074F4A43A2FB0774610A491CC16094
:102450002D0495FBF1F181611846F0BC7047000036
:10246000986E128370B504462078E26800280CBF8D
:10247000A5686568012A04D9A169521E4D19E26058
:1024800005E004D1B4F9025000212D04E160EA1303
:1024900005EB1246361401280AD16069FFF70AF9E4
:1024A000361A206931B2FFF7B8FD6560064635047B
:1024B000A560304670BDB0F92C007047C08B7047E6
:1024C000B0F924007047014600200A78012A04BFB1
:1024D000C8600120704781B0B0F92E10ADF800102F
:1024E000008EADF80200009801B0704710B50446A8
:1024F0006069FFF7DFF80004606010BDF0B40146CA
:102500000E790B68504CFF225FF0000504F12400A7
:10251000EFB250F8270018B9D7B2042FC8BF2A4627
:102520000779B74201BF006898422A4604256D1C0E
:10253000E8B20428EADBD0B2042832DA04F1240538
:10254000002645F8201044F830609868C00703D48E
:102550009C6844F001049C60D86A20F47000D86242
:1025600008790A2806D200EB400440EA045040F003
:10257000007005E0A0F10A0404EB440440EA0450B2
:10258000C40D0C3304F00404E318000D89681C68C2
:1025900000F01F0007258540AC4301FA00F02043FE
:1025A0001860D0B2F0BC7047274901EB8000406A48
:1025B00001790A2906D201EB410241EA025141F0B8
:1025C000007105E0A1F10A0202EB420241EA025168
:1025D00002682C3252F8083F61F3040313600123B0
:1025E0000168CA6C194A083102EB41121360016894
:1025F0000A689207FCD5C86C80B2704730B5124C9F
:1026000094F82100012881B01BD194F82000FFF735
:10261000CBFF022194F8203084F8211060841D46FD
:1026200054F8351069B1002284F8212004EBC5016B
:102630004A680146184654F8353001B0BDE83040CC
:10264000184701B030BD0000F008002078000042BB
:10265000002200F001B80000401810F0030308D079
:10266000C91A1FD3DB0748BF00F8012D28BF20F887
:10267000022D130030B414461546103928BF20E946
:102680003C00FAD8490728BF20E90C0048BF40F8B1
:10269000042D890028BF20F8022D48BF00F8012D25
:1026A00030BC7047C91818BF00F8012DCB0728BFF0
:1026B00000F8012D704700002DE9F0430446DFF8D3
:1026C0002866DFF82876DFF82886DFF828960020CD
:1026D00086F878000D46DFF82016DFF82006C6F8E9
:1026E000A410C6F89C0081B0FDF74EFD00F028FB59
:1026F00006F1C800FFF7D2FC3846FFF76FFCC6F8BA
:102700008870DFF8FC05DFF8FC75C6F884003846F1
:10271000FEF708FCD6F88810D6F884003A46FFF792
:1027200033FE4046FFF75AFC4846FFF757FCDFF8F8
:10273000D805C6F89400C6F88C80C6F8909000F0D2
:1027400031FBDFF8C805D6F89410DFF8C485C6F869
:10275000A000C0F81011C0F80C614046FFF73DFD25
:10276000DFF8B005C6F8A800C6F8988000F0BEFBF8
:10277000002000F026F9012086F82400D6F8840015
:10278000FFF7A9FE3061D6F88400FFF7A4FE0090A1
:1027900006F1AC01BDF80200B082C6F880103346E5
:1027A000D6F8842006F1C80106F1AC00FFF74AFB19
:1027B000D6F88400FFF77FFE0146D6F8800000229D
:1027C000FFF74AFBD6F88000206037640122D6F874
:1027D0008810D6F88C00B162F0620020D6F8901014
:1027E00031637063F0637064B06406F1C800D6F8BA
:1027F0009C10B1633065D6F88410D6F89400F1646B
:10280000B0650020D6F89810716530660021F1653A
:10281000B066F0663067706706F12800D6F8A01041
:102820007166286086F8782001B0BDE8F08310B5A5
:10283000DFF8B44494F8780070B100F00EF894F822
:102840007800012804D1002000F05DF9FFF7D6FEE2
:10285000BDE8104000F0ADBB10BD10B5DFF88844F6
:1028600094F8780001281DD1B4F87A0028B1B4F8A2
:102870007A00411EA4F87A1004E000F015F8032055
:10288000A4F87A00B4F87C0020B1B4F87C00411EB2
:10289000A4F87C10B4F87E0020B1B4F87E00411E8C
:1028A000A4F87E1010BD000030B581B00022ADF854
:1028B00000206946DFF84C44DFF82C542046FEF730
:1028C00022FCD5F8A00000F0C3FB05F1C800FFF71B
:1028D0005EFCC01E0F2800F27280DFE800F00838AE
:1028E0003A4C55666B707070707070111C25D5F87D
:1028F0009C00FDF722FE1420A5F87C0010215AE070
:10290000B5F87C0000285AD1D5F89C00002100F0D1
:102910009CFC11214FE0D5F89C00012100F095FCB2
:1029200000284CD0122146E02046FEF79BFB0421F4
:1029300005F1C800FFF7B8FB012840D1002000F0E6
:1029400040F8D5F89C00FDF71FFE01B030BD052111
:1029500031E0002000F061F8062105F1C800FFF722
:10296000A3FBD5F88400FFF7C1FDD5F88000FFF781
:10297000A7FA01B030BDD5F88000FFF7A1FA00201A
:1029800000F04BF801B030BDD5F89C00FDF73FFEDC
:10299000002000F016F8D5F8A000FFF77DFC4FF4FA
:1029A0004870A5F87E00082105E0B5F87E0030B932
:1029B000092100E0002105F1C800FFF775FB01B017
:1029C00030BD10B50FF270310FF27032C64B09688E
:1029D0001268262414FB00F41C4421606160E1604D
:1029E0002161C4F816200021E183C4F81A20218453
:1029F00003EB8004D4F88C00FFF704FBD4F89000BC
:102A00000021FFF7FFFAD4F88400FFF7D1FCD4F8D7
:102A10009C00BDE8104000F016BC10B52623B24A59
:102A200013FB00F3D41894F8241039B902EB800298
:102A3000D2F88400FFF716FDE083208210BD00B5B8
:102A400081B0B048FEF73CFB002000F00AF80128F6
:102A500004D100220121B048FFF784FB002001B01F
:102A600000BD2DE9F0410746DFF87C8208EB8704C2
:102A700084B0D4F88400FFF799FCFEF718FE0546F1
:102A8000D4F89C0002A900F01FFB029800F000FCA3
:102A90000646294600F01CFC0190262010FB07F793
:102AA0004744BDF90400B7F91010091AD4F88C0096
:102AB000FFF7B3FAADF80000B7F91210BDF9060040
:102AC000091AD4F89000FFF7A8FAADF802000098B0
:102AD000C7F816000099D4F8A40000F0A5FD294617
:102AE00000F026FC8046D4F89C00414600F0EEFA47
:102AF000029939607E60019AFA60C7F81A803D84B5
:102B000004B0BDE8F0812DE9F0410446DFF8D8813A
:102B100008EB8405D5F89800FFF770FB0646D5F85A
:102B20009C0000F0B2FB0643200004D1D8F89400CA
:102B300000F07CF9064304EB440008EB4007F04347
:102B400082B2314607F1C800FFF70CFB07F1C8005D
:102B5000FFF71DFB0A2803D00B280ED0BDE8F0813B
:102B6000D5F89C0000F06FFB2046FFF72AFFD5F850
:102B7000A000BDE8F041FFF78FBBD5F89C00BDE891
:102B8000F04100F060BB10B5574CD4F89C00FDF745
:102B90003EFD04F1C800BDE8104000228021FFF78F
:102BA000E1BA5E4881B04FF4903101604FF40052B9
:102BB000026001604FF48043016800914FF4A0313E
:102BC000009A0160036001604FF4004301680091C6
:102BD0004FF4C031009A0160036001602023016856
:102BE00000914FF0800C009A4D49C0F80014C0F8D5
:102BF0000034C0F800144023D0F800140091009A6B
:102C00004849C0F80014C0F80034C0F80014D0F8E7
:102C100000240092009B444AC0F80024C0F800C47D
:102C2000C0F800244FF4805CD0F8002400924FF4E8
:102C30008832009B0260C0F800C002604FF4806CD4
:102C4000026800924FF48232009B0260C0F800C01C
:102C500002604FF4006C026800924FF48432009BD3
:102C60000260C0F800C002604023006800904FF08E
:102C7000020C009A2D48016003600160082301687E
:102C80000091009A2A49C0F80018C0F80038C0F82E
:102C900000180123D0F8001800914FF00111009A9C
:102CA000C0F80014C0F80034C0F80014D0F80024B4
:102CB0000092009B1F4AC0F80024C0F800C4C0F86E
:102CC0000024D0F8002400920122009BC0F80018D4
:102CD000C0F80028C0F80018D0F80008009000994B
:102CE00001B0704700000000C4060020140100205D
:102CF000400100206C010020DC030020CC010020FA
:102D00009801002060020020240300200000002021
:102D1000FC020020C80300208C0700201C1C02407D
:102D20002000010040000100800001001C00024062
:102D30000800010002000100000000000000000087
:102D40001648174981B00268D20712D4036843F0CD
:102D500001030360026802F001020092009A0B690D
:102D600043F001030B61016849084900016001B0AB
:102D7000704708680A6822F0700242F020020A6078
:102D800000F070000A6942F001020A610B6823F04A
:102D900070031843086001B0704700BF403802401C
:102DA0000400004010B5044604F10C00FFF7A6FB38
:102DB00084F834002046BDE8104000BF30B4418B99
:102DC000828B5218018B5208002339B300F11E0484
:102DD0009DB224F815205B1C048B99B2A1421DD230
:102DE00000F11E019DB221F815205B1C018B9CB2E5
:102DF0008C4213D200F11E049DB224F815205B1CF6
:102E0000048B99B2A14209D200F11E019DB221F8B2
:102E100015205B1C018B9CB28C42D7D30021828091
:102E2000C28080F8331030BC70470000F0B5044613
:102E300081B094F83400FFF7B7FB4FF6FF72904271
:102E400001463FD004F11E0094F8332020F8121000
:102E50000022208B002338B304F11E05DEB235F8C2
:102E6000160012185B1C208BDDB285421CD204F1C7
:102E70001E075FFA83FC37F81C505B1C5219DEB248
:102E8000864211D25FFA83FC37F81C505B1C521942
:102E9000DEB2864208D25FFA83FC37F81C505B1C16
:102EA0005219DEB28642D7D3B2FBF0F0E080A180A7
:102EB000228B94F83300521E9042B4BF401C002075
:102EC00084F83300204600F003F8208101B0F0BD03
:102ED000C188428B8A4201D202207047808B814296
:102EE00001D204207047002070470000002141609B
:102EF00041808160C1600121016170472DE9F04F7F
:102F00000446DFF80C914348DFF80CA1C9F8CC0067
:102F10000D4616461F4683B0BAE80E58DDF83080DD
:102F2000A0E80E58BAE80E58A0E80E5830380094C1
:102F30003B4632462946FEF733FCD9F8CC00FEF773
:102F400068FFD9F8CC0023220021FEF76CFFD9F8E6
:102F5000CC0024220121FEF766FFAAF1300AC9F84D
:102F6000D090BAE80F50A9E80F50BAE80F50A9E87E
:102F70000F50A9F13009DFF8A4A0504600F080FB03
:102F8000D9F8CC002649274B274A01900091CDF86B
:102F900008805146D9F8D00000F09CFCD9F8D00048
:102FA00000943B4632462946FEF7FAFB03B0BDE8E3
:102FB000F08F1E49088810B10A88501E08804A8880
:102FC000022A02D34888421E4A808888022802D3F7
:102FD0008888421E8A80704730B50D4D0446D5F86A
:102FE000CC0081B0FEF7E9FBA04206D1D5F8CC00B9
:102FF00001B0BDE83040FEF711BF01B030BD0B4954
:1030000000204880704709494F20488070470000E1
:10301000F00500208C0300205C03002090040020B9
:10302000C1380008173800083D380008E8050020BE
:1030300000B581B000F0C4FE20B901B05DF804EB2A
:1030400000F0B6BE01B05DF804EB00F0B5BE0000C4
:10305000F0B5044681B0D4F80C01194FB0F90E2038
:10306000B0F90C10B0F91630B0F9180012FB00F6E8
:10307000D4F8100111FB03F5FFF79CF87519114AFC
:10308000E91305EB1145D4F80811484380FB0232DF
:1030900090112D1400EBD070454305EB45067500EB
:1030A00001B085FB07C7B91001EBD171C81301EB63
:1030B00010412046BDE8F0400914FFF7F9B800BF01
:1030C00067666666B5814E1B4268104770B481B072
:1030D00002B481B0B0F86020BDF90650BDF90440DB
:1030E000B0F8441055436D424C436D0063192C1BDE
:1030F00003EBD37304EBD4745B1064109208002BC1
:1031000039D5002C12D51D1B6E1405EB96351E14F7
:1031100002EBA54203EBD633251404EBD534A2EB26
:103120006345836A042102EB64445DE02914002DA9
:1031300005EBD1360FDC2D1B6B1405EB933502EB41
:10314000A542251404EBD53402EB6444436A032101
:10315000A4EB664548E05D1B6C1405EB943502EB6F
:10316000A5421D1403EBD533A2EB6345036A02218C
:1031700005EB664438E0002C12D41D1B6E1405EBE1
:1031800096351E1402EBA54203EBD633251404EB4F
:10319000D534A2EB6345C369012102EB644423E00B
:1031A0002914002D05EBD1360FDC5D1B6C1405EBEB
:1031B000943502EBA5421D1403EBD533A2EB634516
:1031C000C36A052105EB66440EE02D1B6B1405EB6D
:1031D000933502EBA542251404EBD53402EB64448D
:1031E00083690021A4EB6645A0F84610A0F84820AA
:1031F000A0F84A40A0F84C50B0F85C1001291FD14B
:10320000B0F95640B0F84810B0F85E20002CCCBFA2
:103210005118891AA0F84810B0F95840B0F84A106F
:10322000002CCCBF5118891AA0F84A10B0F95A40A6
:10323000B0F84C10002CCCBF52188A1AA0F84C20C1
:1032400003B070BC18478168084730B504460025B4
:10325000080081B008D1A16820468847B4F8620010
:10326000A4F8520070B909E001290BD1B4F852005A
:1032700038B1401EA4F8520080B218B92169204626
:1032800088470125284601B030BD016B0847000082
:1032900001B481B044F6E612BDF90400ADF80000B7
:1032A00001465E4811FB00F0BDF9061011FB02F269
:1032B000A0EB4200C01300F30F00ADF8020010F5C0
:1032C000004F04BF5649ADF80210009802B0704795
:1032D00071B583B008B200F04BF80190BDF904203D
:1032E000BDF90C30BDF90600BDF90E1013FB02F458
:1032F00000FB1144E41304F30F04ADF8004013FB8A
:1033000000F0BDF90050474CA54204BF444EADF853
:10331000006011FB0200C01300F30F00ADF80200C3
:10332000A04204BF3E49ADF80210009804B070BD41
:1033300031B582B008B200F01BF80190BDF904303D
:10334000BDF90840BDF90610BDF90A2014FB03F5CC
:1033500012FB03F012FB015501FB1401ED13C9131D
:10336000ADF80050ADF80210009803B030BD000079
:10337000A0F500410904890D11F4407081B028D0F6
:10338000B0F5807F38D0B0F5007F05D0B0F5407F34
:1033900012D0009801B0704723A0CAB230F81230A2
:1033A000ADF80230C1F1FF01C9B230F91100ADF83A
:1033B0000000009801B070471BA2C1F1FF00C0B22D
:1033C00032F81030ADF80230C9B232F9111049426A
:1033D0001EE000BF14A0CAB230F912305B42C1F146
:1033E000FF01ADF80230C9B230F911004042ADF82A
:1033F0000000009801B070470BA2C1F1FF00C0B2FD
:1034000032F910305B42ADF80230C9B232F9111016
:10341000ADF80010009801B0704700001AB6FFFF29
:103420000180FFFF0080FFFF0000C90092015B02E6
:103430002403ED03B6047F0548061107D907A20847
:103440006A09330AFB0AC40B8C0C540D1C0EE30EE4
:10345000AB0F72103A110112C8128F1355141C15BC
:10346000E215A8166E173318F918BE19821A471BF1
:103470000B1CCF1C931D571E1A1FDD1F9F2061219F
:103480002322E522A62367242825E825A8266727E6
:103490002628E528A329612A1F2BDC2B992C552DE2
:1034A000112ECC2E872F4130FB30B5316E322633B2
:1034B000DF3396344D350436BA366F372438D93871
:1034C0008C39403AF23AA53B563C073DB83D683E40
:1034D000173FC53F73402141CE417A422543D04337
:1034E0007A442445CD4575461C47C34769480F4972
:1034F000B449584AFB4A9D4B3F4CE04C814D204E0D
:10350000BF4E5D4FFB4F97503351CE51685202531F
:103510009B533254C9546055F5558A561D57B057C0
:103520004258D3586459F359825A0F5B9C5B285C0C
:10353000B35C3E5DC75D4F5ED75E5D5FE35F686015
:10354000EB606E61F0617162F1627063EE636C64F6
:10355000E8646365DD655666CF664667BC673268BA
:10356000A66819698B69FD696D6ADC6A4A6BB76B7D
:10357000236C8E6CF86C616DC96D306E966EFB6E4F
:103580005E6FC16F22708370E27040719D71F9713E
:103590005472AE7207735E73B5730A745F74B2745B
:1035A00004755575A575F37541768D76D8762277B5
:1035B0006B77B377FA773F788478C77809794A7957
:1035C0008979C879057A417A7C7AB67AEE7A267B4F
:1035D0005C7B917BC57BF87B297C597C887CB67CA5
:1035E000E37C0E7D397D627D897DB07DD57DFA7D60
:1035F0001D7E3E7E5F7E7E7E9C7EB97ED57EEF7E8A
:10360000097F217F377F4D7F617F747F867F977F22
:10361000A67FB47FC17FCD7FD87FE17FE97FF07F38
:10362000F57FF97FFD7FFE7F02B481B00091BDF987
:103630000420BDF90610B0F800C012FB02F311FB24
:1036400001330CFB0CFC9C4516D200F1020C90F8E7
:10365000B0001B0E1B1ADBB23CF81300424341437F
:103660009313881302EB534201EB5041D213C91359
:10367000ADF80020ADF80210009802B070470000CD
:1036800000F0A4BB30B50546ADF1040D95F81C0162
:103690008DA400286CD095F81D01020002D00128ED
:1036A0000ED017E085F89910288A95F81D116882C8
:1036B00011F1010185A485F81D11204601B030BD2E
:1036C00095F81D0185F89A10401C85F81D0101B080
:1036D000204630BD95F89A20921C90420ADA05F1F6
:1036E0009903195495F81D01401C85F81D0101B07E
:1036F000204630BD0020688285F81B115FF0000273
:10370000D5F8200172A4C16821F02001C16085F8BC
:103710001C2105F1990000F079FB95F81B118842F6
:103720000BD195F89A3095F89910286805F19B020D
:10373000AD68A847204601B030BD95F89700B8B9EC
:10374000FF212975012068750A21A97505F114006A
:1037500000F05CFB85F896000121002085F89800B8
:1037600085F89710D5F82001C16841F08001C1604B
:10377000204601B030BD014691F8970060B391F842
:103780009800020002D0012802D003E0087D0AE080
:10379000487D08E04A7D921C9042BABF01F11403B3
:1037A000185C91F89600D1F8202150604A7D91F87C
:1037B0009800921C904203DA401C81F898007047F0
:1037C000D1F82001C26822F08002C260002381F893
:1037D0009730086849680847704710B5044694F860
:1037E0009700B8B9FF212175012060750821A175E6
:1037F00004F1140000F00AFB84F896000121002077
:1038000084F8980084F89710D4F82001C16841F03A
:103810008001C16010BD90F81C1169B9002201211E
:1038200080F81D2180F81C11D0F82001C16841F0FA
:103830002001C160022070470120704730B5044666
:1038400081B094F89700C0BB180004F116052175EB
:1038500063751DD013F0030000F0068012F8011B01
:1038600005F8011B401EF9D19B0811D012F8010B7D
:1038700005F8010B5B1E12F8011B05F8011B12F87D
:10388000010B05F8010B12F8011B05F8011BEDD126
:1038900004F1140000F0BAFA84F896000121002027
:1038A00084F8980084F89710D4F82001C16841F09A
:1038B0008001C160022001B030BD012001B030BDE7
:1038C000002180F81C11704700000000010000007A
:1038D00002000000F0B581B0044608461546069F78
:1038E0000799089AC4F8C4102063C4F8C0201E4683
:1038F0000FF221010FF23D030FF235020091214634
:1039000000F079FA6563A663E763204601B0BDE87D
:10391000F04000E000BF10B50446206BE16B884723
:10392000802084F8C800A16B206BBDE810400847D8
:10393000F1E700002DE9F04188465FEA58158AB0AA
:10394000044616461F461AD06D1E2A460021FDF772
:1039500037FF58B90B208DF80400012301AAFF217D
:10396000206B646BA0470AB0BDE8F081D4F8C400B6
:1039700008F01F0818B12A460021FDF721FFB8F111
:103980000C0F00F20F82DFE818F00D000E008D0022
:103990001C010D020D02240166017901A601C60178
:1039A000D401E501D9E7317805207E298DF804009E
:1039B00000F27680DFE801F0407474587464646447
:1039C000646464646464646469697474646464648D
:1039D000647474745A6174747474747474747474E4
:1039E0007474747474747474747474747474747497
:1039F00074747474747474747464747474746969AD
:103A000069747474747474647474746464646464E1
:103A100064647469747474747464747464647474C1
:103A20007474747474747474747474745869696993
:103A300069697474746969007578D4F8C4002A4699
:103A40000021FDF7BDFE2A4600212046FDF7B8FE05
:103A500000283FF482AF00230022206B646BF0212A
:103A6000A0470AB0BDE8F0817278EEE772780021D5
:103A7000D4F8C400FEF7D7F9EDE772780121F7E733
:103A80007078B27800EB0222DFE77078B278337991
:103A900000EB0222F07802EB004202EB0362D4E773
:103AA000022058E73178032082298DF804003FF680
:103AB00054AFDFE801F0437A43437A6E6E6E6E6E68
:103AC0006E6E6E6E6E6E6E6E6E6E6E6E6E6E6E6E16
:103AD0006E6E4F5D7A6E6E6E434242424242424289
:103AE00042424242424242424242424242424242B6
:103AF000424242424242426E424242427A7A7A6EA6
:103B00006E6E6E437A6E6E6E6E6E6E6E6E6E6E6EF4
:103B1000437A426E6E6E6E6E42426E6E43437A7AA6
:103B20007A7A7A436E6E7A426E6E437A7A7A7A7ACB
:103B30007A7A7A7A7A7A434243000EE72046FDF792
:103B4000DDFE10F1010F00903FF407AF01236A463C
:103B5000F02105E7D4F8C40000283FF4FEAE0021B0
:103B6000FEF766F98DF8000001236A46F021F7E6BA
:103B7000D4F8C40000283FF4F0AE0121FEF758F954
:103B80008DF8000001236A46206B656BF021A84781
:103B900061E72046FDF7B2FE10F1010F00903FF4FF
:103BA000DCAE02236A46F021DAE62046FDF7A6FEE7
:103BB00010F1010F00903FF4D0AE04236A46F021CB
:103BC000CEE6317807208DF804002046FEF76CF829
:103BD0003EE702A800210022002300252EC02EC0AF
:103BE000D4F8C0201278092A02A821D0C27001217D
:103BF0000DF10B03D4F8C020525C092A18D05A5496
:103C0000491CD4F8C020525C092A11D05A54491CCE
:103C1000D4F8C020525C092A0AD05A54491CD4F85E
:103C2000C020525C092A03D05A54491C1D29E1DBEB
:103C3000D4F8C020531D5D5C8DF80850D4F8C02026
:103C40000A44D3794370D4F8C020114402AA4B7AB5
:103C50008370202398E730797179F37800EB0122A3
:103C60003078717800EB0121B07801EB004192B21D
:103C700001EB03612046FEF760F8E9E60DF106006E
:103C800000900DF10A03317802AA2046FEF76CF885
:103C9000BDF90A0000EB4001480003A902128DF8AB
:103CA0000C004A7003140016BDF90620C8701212E9
:103CB000BDF806004A7108718B700823BDF8082012
:103CC000BDF808008871120ACA71206B656B03AADF
:103CD000F021A84741E67079B17900EB012212B2D8
:103CE00000927078B17800EB0122F078317902EB24
:103CF000004202EB01622C48F17982FB003000EBBC
:103D0000D073307A01EB002231781BB292B2204698
:103D1000FEF752F89CE6B078F17800EB012230789B
:103D2000717800EB012112B209B22046FEF761F86A
:103D300091E60C218DF8041002968DF80C7002A803
:103D40001A4D2946FEF763F800283FF406AE2B799A
:103D50002A6882E6002202A9D4F8C000805CB0B1D3
:103D60008854521CD4F8C000805C80B18854521C26
:103D7000D4F8C000805C002809D08854521CD4F8C4
:103D8000C000805C18B18854521C202AE4DB202A31
:103D900005DA02A8C2F120011044FEF759FC2023E5
:103DA00002AAF1E60120D6E5ABAAAA2A240900203E
:103DB00005480068FEF76FB803480068FEF775B85D
:103DC00001480068FEF7B1B8CC050020002141820F
:103DD0000175417580F8961080F8971080F898105A
:103DE00080F8991080F89A1080F81B1180F81C1147
:103DF00080F81D11704781B030B1DDF804C001605A
:103E000042608360C0F80CC001B07047B0B40021BC
:103E100038B342780178891889B20023F2B1821C44
:103E2000DCB25B1C155D42784919DCB2944215D2B4
:103E3000851CDFB25B1CEC5D2144DCB294420DD2E8
:103E4000DFB25B1CEC5D2144DCB2944206D2DFB2EF
:103E50005B1CEC5D2144DCB29442E0D3080401EB2E
:103E60001061B0BCC8B2704710B5040001D1012088
:103E700010BD94F8390028B9002184F83810204684
:103E800000F0D7FB022084F83900211D206800F0E3
:103E900083F9012084F83900002010BD10B504001A
:103EA00001D1012010BD94F8390028B9002184F80F
:103EB0003810204600F04EFC022084F83900211D05
:103EC000206800F069F9012084F83900002010BD55
:103ED00030B5044681B094F8380001280D4608BF7B
:103EE000022068D0012084F8380002210C2A84F8CE
:103EF000391059D8DFE802F0075858581B5858585D
:103F00003058585844002068294600F0F5F92068D8
:103F1000816941F0080181612068816921F0040113
:103F2000816121688A69286902438A613CE02068CE
:103F3000294600F0B3F92068816941F4006181618C
:103F40002068816921F480618161206881692A6922
:103F500041EA0221816127E02068294600F0F5F955
:103F60002068C16941F00801C1612068C16921F080
:103F70000401C1612168CA6928690243CA6113E06A
:103F80002068294600F00DFA2068C16941F40061FB
:103F9000C1612068C16921F48061C1612068C16983
:103FA0002A6941EA0221C161012084F83900002117
:103FB00084F83810002001B030BD70B490F838207B
:103FC000012A08BF022000F0C180012280F83820B9
:103FD000022380F83930DFF8142403689C68144009
:103FE0009C600B68002B00F08E80102B00F09280FC
:103FF000202B00F09680302B00F09A80402B68D068
:10400000502B31D0602B49D0702B0BD0B3F5805F93
:1040100003D0B3F5005F16D091E001688A68D2083A
:10402000D2008BE0CA684B6804688968A56825F4EB
:104030007F4529430B4343EA0223A36001688A6852
:1040400042F077027AE0CA684B6804688968A5681C
:1040500025F47F4529430B4343EA0223A36001680B
:104060008A6842F4804269E0CA684B680168183186
:104070008C688D686D086D008D6024F00A040E68F0
:1040800026F0F00646EA02160E6023438B600168B4
:104090008A6822F0700242F057024FE0CA684B680B
:1040A000016818318C6824F010048C600C688D68ED
:1040B00024F4704444EA023425F0A0050C6045EA7B
:1040C00003158D6001688A6822F0700242F0670271
:1040D00034E0CA684B68016818318C688D686D08D7
:1040E0006D008D6024F00A040E6826F0F00646EAA2
:1040F00002160E6023438B6001688A6822F070020A
:1041000042F047021AE001688A6822F0700242F029
:10411000070213E001688A6822F0700242F0170279
:104120000CE001688A6822F0700242F0270205E084
:1041300001688A6822F0700242F037028A60012129
:1041400080F83910002280F83820002070BC7047B9
:10415000000010B5044694F83800012801D102206F
:1041600010BD012084F83800022284F8392020464E
:1041700000F054F92068C16821F04001C160206856
:10418000C16821F48041C160012084F83900002118
:1041900084F83810002010BD30B4954B0468984264
:1041A00018BFB0F1804F0BD0924A90421CBF924D85
:1041B000A84205D0914A90421CBF914DA84210D10F
:1041C0004A6824F070041443984218BFB0F1804F3D
:1041D0001BD0884A90421FBF874DA842874A904211
:1041E00013D0874DA8421CBF864A90420DD0864D01
:1041F000A8421CBF854A904207D0854DA8421FBFE8
:10420000844A9042844DA84203D1CA6824F4407481
:104210001443046098428C68C4620A68826219BFC1
:10422000774B9842096901630122426130BC7047B3
:10423000F0B4046A6E4E640864000462B04284699B
:10424000056A18BFB0F1804F11D06A4EB0421CBF52
:10425000694FB8420BD0694EB0421CBF684FB8429C
:1042600005D0684EB0421CBF694FB84203D1A408C4
:1042700042EA840203E0A208920042F001021B011C
:1042800022F0F00203F0F0031A4325F00A0501F0D2
:104290000A01826129430162F0BC704770B4026A6E
:1042A000534E22F010020262B042056A43688469EC
:1042B0000A6824F4E64444EA02248A6825F02005CA
:1042C00045EA02151CBF4E4A90420DD1CA684E699C
:1042D00025F0800545EA02158A6923F440631643F8
:1042E00025F0400543EA86034360846149688163A1
:1042F000056270BC70470000F0B4026A52085200B8
:104300000262066A446885690B688A6825F073054D
:104310001D4326F002061643354B98421CBF384F0A
:10432000B8420BD1CA684B6926F0080624F44074E1
:1043300016438A691C4326F00406144344608561D1
:10434000496841630662F0BC704770B4026A22F4A7
:1043500080720262056A4368C4690A688E6824F044
:104360007304144325F40075214A45EA062590425A
:104370001CBF234EB0420DD1CA684E6925F40065BA
:1043800045EA02258A6923F44053164325F48065E3
:1043900043EA06134360C4614968C163056270BCA7
:1043A000704770B4026A124E22F480520262B04228
:1043B000046A4268C3690D6823F4E64343EA0523AF
:1043C0008D6824F4005444EA05341CBF0C4DA84207
:1043D00004D14D6922F4804242EA85124260C361F1
:1043E00049680164046270BC704700008800FFFFE8
:1043F000000001400004004000080040000C0040A4
:1044000000040140004001400044014000480140D8
:1044100000180040001C0040002000400368D3F852
:1044200008C04A6808682CF0700C42EA0C0C4FEA8D
:10443000DC0C40EACC0CC3F808C04A68402A13D010
:10444000502A1FD0602A35D0702A47D108698A685F
:10445000C968D3F808C02CF47F4C41EA0C010A4328
:1044600042EA00229A607047186A1A6A520852009B
:104470001A629A69096922F0F00242EA01129A610D
:1044800018627047086989681A6AD3F820C04FEA31
:104490005C0C4FEA4C0CC3F820C022F00A02D3F89F
:1044A00018C02CF0F00C4CEA001CC3F818C01143E3
:1044B00019627047086989681A6A22F010021A6244
:1044C0009A69D3F820C022F4704242EA00322CF0FC
:1044D000A00C9A614CEA011CC3F820C07047000090
:1044E00000B581B00020009000228D48416841F461
:1044F00080414160416801F480410091009900923F
:10450000036843F080530360006800F0805000901F
:104510000098042000F020F9002200216FF00B0029
:1045200000F027F9002200216FF00A0000F021F9C5
:10453000002200216FF0090000F01BF90022002189
:104540006FF0040000F015F9002200216FF0030065
:1045500000F00FF9002200216FF0010000F009F9CE
:1045600001B05DF804EB002204214FF0FF3000F0B1
:1045700000B900B587B000686A49884216D10020AA
:10458000059003226848016841F4807101600921A7
:10459000006800F4807005900598644800910192CD
:1045A00000210291694600F045F90EE06049884219
:1045B0001ED1002005905C48016841F40071016043
:1045C000006800F40070059005985A484021009159
:1045D0000322002102910192694600F02BF9032089
:1045E00000900190002202926946534800F022F99F
:1045F00007B000BD00685149884200D0704700B53F
:1046000087B00022464800920322016841F0005121
:1046100001603021006800F000500090009845488B
:10462000019102920021039101A900F003F907B062
:1046300000BD00B587B00068414988421AD100200A
:10464000009002223648016841F0080101604FF4F1
:10465000E051006800F0080000900098394801918E
:104660000292002103910492059201A900F0E2F860
:1046700007B000BD344988420BD100200090284883
:10468000416841F002014160406800F00200009082
:10469000009807B000BD00682B49884200D07047E1
:1046A00000B585B0E02200920221019102910391B0
:1046B000032204926946254800F0BCF84FF460419B
:1046C0000091022203210491019202920392694611
:1046D0001C4800F0AFF805B000BD00681C498842D6
:1046E00000D0704700B587B000220F480092022228
:1046F000016841F010010160C021006800F0100065
:10470000009000980C4801910292002103910491BD
:104710000721059101A900F08DF807B000BD000048
:104720004038024000200140443802400008024066
:1047300000210140000002400004024000740040DB
:10474000000C0040001C0240000401400020024018
:1047500000100140704700002E4B19684FF6FF0211
:104760000002114000F4E06008432B490843186040
:10477000704730B4274B1C68C4F30223C3F107040D
:10478000052C28BF04241D1D072D34BF0023DB1E6C
:10479000012505FA04F4641E2140994005FA03F34B
:1047A0005B1E1A4011430901020007D51B4A00F0A5
:1047B0000F00104400F8041C30BC7047184B19540B
:1047C00030BC7047012200F01F01164B8A4040099F
:1047D00043F820207047401EB0F1807F01D30120B4
:1047E000704711494860F02081F8130D00228A605B
:1047F000072008600020704704280B4904D108688E
:1048000040F00400086070470A6822F004020A6061
:10481000704700000CED00E00000FA0518ED00E024
:1048200000E400E000E100E010E000E000F000B88B
:10483000704700002DE9F04F03460C464FF000088A
:1048400081B0C146C24666486649674A012505FAF5
:1048500008FC25680CEA050EE64540F0B380656863
:10486000022D18BF122D12D14FEAD80503EB850592
:104870000AF01C062F6A4FF00F0B0BFA06FB27EA13
:104880000B07D4F810B00BFA06F63E432E62032550
:104890001E68277905FA09F5ED4307F003072E4056
:1048A00007FA09F73E431E606668012E18BF022E04
:1048B00003D0112E18BF122E10D19E68E7682E402B
:1048C00007FA09F73E439E605E6826EA0C076668B1
:1048D000C6F3001606FA08F63E435E60DE68354011
:1048E000A66806FA09F63543DD606568EE0069D50D
:1048F000002500954FEA980C166846F4804616602D
:104900000F26156805F480450095009D51F82C7020
:104910000AF00C05AE4027EA0606344FBB4208BF3A
:10492000002723D0324FBB4208BF01271ED0314F92
:10493000BB4208BF022719D02F4FBB4208BF032735
:1049400014D02E4FBB4208BF04270FD02C4FBB42C0
:1049500008BF05270AD02B4FBB4208BF062705D04A
:10496000294FBB420CBF0727082700BF07FA05F5F0
:10497000354341F82C506FEA0E0C056866680CEA66
:104980000505F70348BF4EEA0505056045686668FA
:104990000CEA0505B70348BF4EEA05054560856882
:1049A00066680CEA0505F70248BF4EEA0505856012
:1049B000C56866680CEA0505B60248BF4EEA0505FB
:1049C000C0F80C5008F10108B8F10F0F0AF1040A01
:1049D00009F102097FF63AAF01B0BDE8F08F00009F
:1049E000003C0140083801404438024000000240C9
:1049F0000004024000080240000C02400010024087
:104A00000014024000180240001C024010B58AB099
:104A100000F098FA00F0EBF800200090DFF8E04496
:104A2000DFF8E004016841F010010160026802F063
:104A300010020092002200990092036843F00203E2
:104A40000360016801F0020100910099009203687F
:104A500043F480730360016801F480710091009950
:104A60000092036843F080030360016801F0800155
:104A7000009100990092036843F004030360016809
:104A800001F0040100910099009201210368DFF810
:104A9000782443F001030360006800F001000090F7
:104AA0000098DFF86804019102920021039101A9A6
:104AB000FFF7C0FE00F0F3F800F059F9DFF85004FA
:104AC000E06704F17C0000F059FA00B1FEE73C21F8
:104AD0000222009101926946002204F17C0000F05C
:104AE00061FA00B1FEE71022694604F17C0000F093
:104AF00059FA00B1FEE7DFF81C042064002161646C
:104B00000020A0644FF6FF712065E16404F14000CD
:104B1000FFF7AAF900B1FEE74FF48050069006A90E
:104B200004F14000FFF749FA00B1FEE700210291CD
:104B300000220F2104910392059202A904F1400082
:104B400000F056FA00B1FEE75021009100220192D8
:104B5000694604F1400000F0A4FA00B1FEE700F05D
:104B60005EF9DFF8B40320604FF4E1310C2000223D
:104B700060616160A260E2602261A261E261204640
:104B800000F0EAFA00B1FEE700F042FC0022022148
:104B90001220FFF7EEFD1220FFF714FE0022002185
:104BA0002C20FFF7E6FD2C20FFF70CFE012204214C
:104BB0002B20FFF7DEFD2B20FFF704FE0022032150
:104BC0003220FFF7D6FD3220FFF7FCFD0122032142
:104BD0002520FFF7CEFD2520FFF7F4FD0022002160
:104BE0000620FFF7C6FD0620FFF7ECFDFEE700B547
:104BF00093B0002000904FF48033C848016841F022
:104C0000805101600021006800F080500090009801
:104C1000C3480091026842F48042026001220068A9
:104C200000F48040009006A80099069202214FF4FB
:104C300080020C910D920421A8220E910F92022164
:104C4000042207931091119200F024FC00B1FEE7BA
:104C500002210291002203920F204FF4A0510190F3
:104C600004914FF480520592052101A800F0BCFD8B
:104C700000B1FEE700F046FE00F048FEA94AA0FBA6
:104C80000221480AFFF7A7FD0420FFF7B5FD002227
:104C900004214FF0FF30FFF76CFD13B000BDA248B8
:104CA0004FF48031002210B5A04C2060012020611B
:104CB0006160A260A2612262E26222634FF400613D
:104CC0009B48A06201220220E061E16062618EB037
:104CD000204600F06FFE00B1FEE70121059103229E
:104CE0000021069108924FF460214FF480120B913D
:104CF0000C92062001210490002209910A92079249
:104D000004A9204600F0B8FF00B1FEE70821049195
:104D10000222059204A9204600F0AEFF00B1FEE792
:104D2000092104910322059204A9204600F0A4FF62
:104D300000B1FEE70A2100910122019203210291B4
:104D4000002203926946204600F05FFE00B1FEE7B4
:104D50000222019202920D210091002203926946E3
:104D6000204600F052FE00B1FEE70EB010BD7148C3
:104D70004FF4803110B5704C2060012020616160DB
:104D800000226B48A0624FF400610120E061606185
:104D9000A260A2612262E262E16022638EB02046DC
:104DA00000F008FE00B1FEE701210191032200217D
:104DB000029104924FF460214FF4801207910892FF
:104DC0000620012100900022059106920392694677
:104DD000204600F051FF00B1FEE7082100910222B9
:104DE00001926946204600F047FF00B1FEE7092125
:104DF0000091032201926946204600F03DFF00B178
:104E0000FEE70620012109900A9100220B9209A9D0
:104E1000204600F0FAFD00B1FEE70EB010BD474895
:104E2000002130B5464C2060616041F268002022CC
:104E3000E0600121A2604FF48075616195B0256149
:104E40002046FFF711F800B1FEE72046FFF726F8ED
:104E500000B1FEE7062110911022119210A9204600
:104E6000FFF777F900B1FEE700210791089120468E
:104E700007A900F016F900B1FEE7602000210090BC
:104E800001910022039105910292049206926946D3
:104E90002046FFF71DF800B1FEE7042269462046D0
:104EA000FFF716F800B1FEE7082269462046FFF733
:104EB0000FF800B1FEE7702140F66D72009101928B
:104EC00069460C222046FFF703F800B1FEE74FF4D5
:104ED00080610A914FF40060102109900C9100222A
:104EE0000D920E920F920B9509A9204600F004F93D
:104EF00000B1FEE72046FFF7CEFB15B030BD000045
:104F000094070020303802400000211000100240B9
:104F100000740040000C0040001001404038024086
:104F200000700040986E1283002001402408002089
:104F30000100000F002101406C0800200004014026
:104F4000B408002000B50C4881B0016841F400713C
:104F50000160026842F480620260016841F480717D
:104F600001600320FFF7F8FB042000F04FFFFFF77C
:104F7000B7FA002001B000BD003C024010B50400AB
:104F800001D1012010BD207920B900216171204696
:104F9000FFF730FB022020710021216101202071E8
:104FA000002010BD70B44379012B08BF02201CD033
:104FB000012343710224047140F6FE7503681C68E6
:104FC0000E68496895400E43AC43964034431C60DC
:104FD000C02401680B6804FA02F223EA02020A60A4
:104FE0000121017100224271002070BC7047000055
:104FF00030B5040087B00D4608BF01204FD0022015
:1050000084F83900204600F0A5F82068211DFFF73C
:10501000C3F8AB68296820680322FFF709F9206804
:10502000816921F00C01816121688A696868024305
:105030008A6100222068416841F080014160206857
:10504000816821F0700181602068816841F0400131
:10505000816020688168C908C90081602068816812
:1050600041F00401816004920021702205910092B8
:105070000691039102916946E86801902068FFF764
:105080000DF92068416821F0700141602068416895
:1050900041F050014160012084F83900002007B040
:1050A00030BD90F83820012A01D10220704701223A
:1050B00080F83820022380F839300268536823F0E2
:1050C000700353600368D3F804C00A6842EA0C0C0A
:1050D000C3F804C00268936823F0800393600268F9
:1050E000936849680B439360012280F839200021BE
:1050F00080F838100020704730B490F83820012A2A
:1051000008BF022024D0012280F83820CD688B68A7
:105110004A688C6925F440751D4325F48065154364
:105120000B680A69496925F400651D4325F480551B
:10513000154325F400550D4325F4804525430268A9
:1051400025F400452C435464002180F838100020D9
:1051500030BC70477047000010B5040001D1012039
:1051600010BD94F8390028B9002184F83810204681
:10517000FFF7B3FA242084F839002068C16821F4CD
:105180000051C160204600F017F82068016921F441
:10519000904101612068416921F02A014161206844
:1051A000C16841F40051C1600020E063202184F80F
:1051B000391084F83A1010BD2DE9F04704462268F2
:1051C0001169E06821F4405101431161D3688C48B2
:1051D000A168034020690B4361690343E0690B4305
:1051E0000343D3605169A06921F4407101435161C7
:1051F0008448E169B1F5004F40F0A18082421CBFB4
:10520000814882424DD100F08EFB054600F08BFBB9
:10521000064600F088FB074600F085FBDFF8ECA1AE
:10522000804600F080FB64226168DFF8E0E119232A
:105230005F435E434900B7FBF1F7A7FB0AA9B6FB42
:10524000F1F64FEA991702FB1766F60032365D4316
:10525000B5FBF1FCACFB0EE5DFF8B0C1A6FB0CC75B
:10526000BE097600AD0906F4F87606EB051603FBD9
:1052700008F74343B3FBF1F0B7FBF1F5634BA0FB39
:105280000331890902FB1152D20032325F4D21688D
:10529000A2FB0550800900F0070086198E60BDE86A
:1052A000F08700F036FB054600F033FB064600F0C1
:1052B00030FB074600F02DFBDFF850A1804600F0E0
:1052C00028FB64226168DFF844E119235F435E43F1
:1052D0004900B7FBF1F7A7FB0AA9B6FBF1F64FEAC5
:1052E000991702FB1766F60032365D43B5FBF1FCF9
:1052F000ACFB0EE5DFF814C1A6FB0CC7BE097600B7
:10530000AD0906F4F87606EB051603FB08F74343F0
:10531000B3FBF1F0B7FBF1F53C4BA0FB033189097E
:1053200002FB1152D2003232384D2168A2FB0550E7
:10533000800900F0070086198E60BDE8F087824280
:105340001CBF314882420ED100F0EDFA054600F054
:10535000EAFA064600F0E7FA074600F0E4FA80466B
:1053600000F0E1FA0DE000F0D4FA054600F0D1FAC1
:10537000064600F0CEFA074600F0CBFA804600F071
:10538000C8FADFF888A06168DFF880E0642219239A
:105390005F435E438900B7FBF1F7A7FB0AA9B6FBA1
:1053A000F1F64FEA991702FB176636015D43323674
:1053B000B5FBF1FCACFB0EE5DFF850C0A6FB0CC75B
:1053C000BE09AD0906F0F00606EB051603FB08F76B
:1053D0004343B3FBF1F0B7FBF1F50C4BA0FB0331FA
:1053E000890902FB115212013232084D2168A2FBD9
:1053F0000550800900F00F0086198E60BDE8F08727
:10540000F369FFFF00100140001401403E0AD7A3DA
:1054100010B582B000F07AFA0C4A0D4CA0FB0221C4
:10542000880AFFF7D8F9211D2046FDF745F9FDF759
:10543000B8FB00BF07A00090231D2246012104F104
:105440000800FDF75BFD02B010BD0000986E1283EE
:10545000CC05002048414C4C2053656E736F722080
:105460005354204D432053444B095665722E352E1C
:10547000322E30000000000000000000000000009C
:10548000000000000000000000000000000000001C
:10549000000000002DE9F041040082B01AD020780D
:1054A000DFF83863C10740F1F780B06800F00C0006
:1054B000042807D0B06800F00C0008280ED17068EE
:1054C00041020BD53068810340F1E6806068002816
:1054D00040F0E280012002B0BDE8F0816068B0F5E4
:1054E000803F04D1306840F48030306011E0B0F586
:1054F000A02F306806D140F480203060316841F43C
:10550000803105E020F480303060316821F4802162
:105510003160606878B100F09DFC05463068810319
:1055200000F1BA8000F096FC401B6528F6D30320FA
:1055300002B0BDE8F08100F08DFC054630688103C3
:1055400040F1AA8000F086FC401B6528F6D30320BA
:1055500002B0BDE8F08100BF00F07CFC401B0228D7
:1055600040F2C780032002B0BDE8F081E0689C49AA
:1055700088B101220A6000F06DFC054630688107A1
:1055800000F1E58000F066FC401B0228F6D90320FC
:1055900002B0BDE8F081086000F05CFC05463168AF
:1055A000880740F1988000F055FC401B0228F6D98E
:1055B000032002B0BDE8F081C1F8800E00F04AFC83
:1055C0000546706F810740F1988000F043FC401B56
:1055D0000228F6D9032002B0BDE8F0810528306F1B
:1055E00006D140F004003067306F40F0010005E064
:1055F000400840003067306F20F004003067A0683A
:1056000088B100F027FC074641F28938306F8107E6
:1056100000F1AD8000F01EFCC01B4045F6D3032016
:1056200002B0BDE8F08100F015FC074641F2893870
:10563000306F810740F19B8000F00CFCC01B40459F
:10564000F6D3032002B0BDE8F08100BF00F002FCF9
:10565000C01B022840F2A180032002B0BDE8F08107
:1056600000F0F8FB001B022840F2AF80032002B0DC
:10567000BDE8F0810020286600F0ECFB04463068AD
:10568000810140F1A68000F0E5FB001B0228F6D95D
:10569000032002B0BDE8F081207881071BD5B068F7
:1056A00010F00C0F09D0B06800F00C0008287FF44F
:1056B0005DAF706841023FF559AF3068810703D58F
:1056C000E06801287FF406AF3168206921F0F80115
:1056D00041EAC0013160217808070ED56069404970
:1056E00000283FF469AF0122C1F8802E00F0B2FB20
:1056F0000546706F81077FF52FAF207841073BD5B6
:10570000306C0025C1000AD400950125316C41F0B0
:1057100080513164306C00F0805000900098314F1F
:105720003868C1051BD4386840F48070386000F0D8
:1057300091FB80463868C10511D400F08BFBA0EBCB
:1057400008000228F6D9032002B0BDE8F0813068D5
:10575000216920F0F80040EAC1003060BBE7A06892
:1057600001287FF43BAF306F40F0010046E71DB1E8
:10577000306C20F080503064A06950B3B16801F003
:105780000C0108293FF4A6AE0228154D7FF472AF34
:105790000020286600F05EFB0746306881013FF577
:1057A00055AFE269206A616A0243A06A400842EA92
:1057B0008112401E42EA0042E06A42EA00627260E0
:1057C0000121296600F046FB0446306881017FF51F
:1057D00047AF002002B0BDE8F08100BF00380240B2
:1057E00000004742007000402DE9F04104000E46E1
:1057F00000F08580514DD5F8000400F00F00B04254
:1058000007D285F80064D5F8000400F00F00B0421C
:1058100075D12068810712D5400703D5A96841F4E6
:10582000E051A9602078010703D5A86840F46040E2
:10583000A860A968A06821F0F0010143A96021785F
:10584000C8074ED56068012802D129688A0305E09F
:10585000022818BF032805D129688A0105D4012030
:10586000BDE8F08129688A0749D5A968890840EA16
:105870008100A86041F2893800F0ECFA0746A86878
:10588000616800F00C00B0EB810F2AD000F0E2FA62
:10589000C01B4045F3D30320BDE8F08120784107C9
:1058A00005D5AA68E06822F4E0520243AA60217894
:1058B000080706D5A968206921F4604141EAC001C2
:1058C000A96000F047F8AA681D491E4BC2F30312F5
:1058D000895CC8401860042000F098FA0020BDE8F8
:1058E000F081D5F8000400F00F008642D6D285F88A
:1058F0000064D5F8000400F00F00B042CED00120C3
:10590000BDE8F08111490120086070470D4800682A
:1059100070470C480C4A006813680D49C3F3822293
:10592000895CC84070470748074A006813680849FF
:10593000C3F34232895CC84070470000003802401F
:1059400038630008E4050020083802404C00474254
:105950004C64000830B5144C606800F00C0004285A
:1059600003D0082803D0114830BD114830BD22684B
:1059700020680023410202F03F0204D525680C494B
:10598000C5F3881003E020680849C0F38810A1FB24
:10599000000100F065FA2168C1F30141491C49008A
:1059A000B0FBF1F030BD00BF043802400024F40029
:1059B00000127A0030B581B00446002514B90120E8
:1059C00001B030BD206C28B9656484F83C002046E5
:1059D000FEF7CFFD206CC10610D4206C20F4885057
:1059E00040F002002064204600F0C2F86564216C9B
:1059F00021F0020141F00101216400E001250020B5
:105A000084F83C0001B0284630BD70B481B0024635
:105A10000020009092F83C30012B08BF022000F0DB
:105A2000A480012082F83C0007240B6810680A2B30
:105A300012D30A3BC56803EB43039C4025EA0404E8
:105A4000C460C3680D688C68A5F10A0606EB4606BB
:105A5000B4402343C3600FE0056903EB430304FA3A
:105A600003F325EA0303036103690D688C6805EB02
:105A70004505AC40234303611F244B68072B11D21B
:105A80005B1E456B03EB83039C4025EA04044463DF
:105A9000436B4D680C886E1E06EB8606B4402343AC
:105AA000436325E00D2B11D2DB1F056B03EB830352
:105AB0009C4025EA04040463036B4D680C88EE1FC8
:105AC00006EB8606B4402343036311E00D3BC56A31
:105AD00003EB83039C4025EA0404C462C36A4D6857
