:020000040800F2
:10000000D8070020F53E0008113F0008693D0008B0
:10001000153F0008193F00081D3F000800000000C0
:10002000000000000000000000000000213F000868
:10003000253F000800000000293F0008733D00082C
:100040002D3F0008313F0008353F0008393F0008C8
:100050003D3F0008413F0008973D0008453F00082C
:10006000493F00084D3F0008513F0008553F000838
:10007000593F00085D3F0008613F0008653F0008E8
:10008000693F00086D3F0008113D0008713F0008FE
:10009000753F0008793F00087D3F0008813F000858
:1000A000853F0008893F00088D3F0008913F000808
:1000B000953F0008993F00089D3F0008A13F0008B8
:1000C000A53F0008A93F0008AD3F0008B13F000868
:1000D000B53F0008B93F0008BD3F0008C13F000818
:1000E000C53F0008C93F0008CD3F0008D13F0008C8
:1000F000273D0008D53F0008D93F0008DD3F000834
:10010000E13F0008E53F0008373D0008E93F0008EF
:10011000ED3F0008F13F0008F53F0008F93F0008F7
:10012000FD3F0008014000080540000809400008A4
:100130000D40000811400008154000081940000853
:100140001D40000821400008254000082940000803
:100150002D400008314000083540000839400008B3
:100160003D40000841400008454000084940000863
:100170004D400008514000085540000800000000B4
:10018000594000085D40000830B4426E9368196819
:1001900049084900196003F118010C6844F008048B
:1001A0000C600D6845F4006541F8045B0C6844F090
:1001B00008040C600D6845F400650D60596941F054
:1001C00001015961917802290ED1D178012904BF2A
:1001D000917B03290BD101241C630324596941F04D
:1001E000010159611C6302E090F83E1019B9B0F8A2
:1001F0005810491E59629468DFF8EC37DFF8EC17A5
:100200009C4204D10D6845F001050D6003E00C68C7
:1002100044F002040C606FF00405DFF8D4178C681A
:1002200044F001048C60D1F8084144F00104C1F8A5
:1002300008410D604C6844F080044C609268896805
:100240009A4221F47C110CBF41F4801241F4F01267
:100250000166C26530BC704770B4416E0FF23D2438
:100260008A68002343648364C36480F85B304EF67D
:10027000AA21136A0B4013624460416E0B79416EF0
:10028000DB0303654B79416EDB03436500238C6818
:10029000DFF85C1780F83A300D6825F00C050D602A
:1002A000D1F8003123F00C03C1F800316FF00103E5
:1002B0002361E56845F00105E560656C45F400459E
:1002C000656405E0D468E5075CBF102480F85B40F6
:1002D00090F85B40102CF5D3002580F85B500FF2AE
:1002E0000124456E4460AC79E4030465446EA5794D
:1002F000446EED0345650025A46880F83A500E6809
:1003000026F00C060E60D1F8005125F00C05C1F85E
:1003100000512361E16841F00101E160616C41F449
:100320000041616405E0D168CB075CBF102180F813
:100330005B1090F85B100829F5D3416C0FF2550360
:100340004360C9084164816CC9088164C16CC908F3
:10035000C1644FF2F77193690B409361D4692140F6
:10036000D161B0F858105163B0F858309363B0F8C9
:100370005800D06340F60800916901439161D36948
:100380001843D06140F25550116A0143116270BCAC
:100390007047000010B4426E9368DFF8582603F1EE
:1003A000200402EB44120023136080F85A3090F8C6
:1003B0003220052A6FD8DFE802F0224949030322E0
:1003C000DFF834261468436CA3EB4403DFF82C46B3
:1003D000A342B8BF234604DBB3F5004FA8BF47F6DE
:1003E000FF730B80D2F80021806CA0EB4200A0428A
:1003F0004DDBB0F5004F4DDB47F6FF704AE0DFF80C
:10040000F8251468836CA3EB4403DFF8F045A3429E
:10041000B8BF234604DBB3F5004FA8BF47F6FF7310
:100420004B80D2F80021C36CB1F90200C3EB420348
:10043000181AB0F5004FA8BF47F6FF7003DAA042C4
:10044000B8BF0C8027DB088010BC7047DFF8A825F8
:100450001468436CA3EB4403DFF8A045A342B8BF84
:10046000234604DBB3F5004FA8BF47F6FF730B80AC
:10047000D2F80021C36CB1F90000C3EB4203181A93
:10048000B0F5004FACBF47F6FF70A04202DA4C80D7
:1004900010BC7047488010BC70470000416E8A68ED
:1004A000DFF8501502F1200301EB431100220A602E
:1004B00080F85A2090F85B1010290FD2DFF8382509
:1004C000436C1168CB184364836CD2F80011CB18CD
:1004D000836490F85B20521C80F85B20704700001A
:1004E000416E8A68DFF80C1502F1200301EB43111D
:1004F00000220A6080F85A2090F85B1008290ED27A
:10050000DFF8F414C36C0A68D318C364D1F800117F
:10051000CB18C36490F85B20521C80F85B207047B6
:10052000416E8968012280F83A206FF0010008616D
:1005300000224A638A63CA630869C207FCD5486C13
:1005400040F4004048647047416E8968002280F89A
:100550003A20DFF89C04036823F00C030360D0F812
:10056000002122F00C02C0F800216FF001000861A8
:10057000CA6842F00102CA60486C40F40040486416
:100580007047416E8968002280F83A20C8684008A8
:100590004000C8604FF6AA200A6A02400A62086951
:1005A000C20702D4C868C207F9D5486C20F40040DD
:1005B000486440F255500A6A02430A627047F0B537
:1005C000426EC36D9268446E858EB0F8586023F415
:1005D0004013C365771B238A1FFA87FE73454FF4C8
:1005E00080110BD2446E032343862579446EB0F804
:1005F0005830ED0305655B1E65791AE0B0F836C02A
:100600003F04A5EB0C0CFF0B1FFA8CFC674502D2D4
:10061000638AEB1A08E05B199BB2B34204DBC3EBBD
:1006200046034FF400115B1E6479E4030465446ED5
:10063000A579C46DED0321434565C1659BB2136483
:10064000416E8968828E4A63C38E8B63028FCA6350
:1006500090F85A00401E8041C043C00FF0BDF0B575
:10066000426EC36D9268446EC58EB0F8586023F434
:100670004013C365771B238A1FFA87FE73454FF427
:1006800080110BD2446E032343862579446EB0F863
:100690005830ED0305655B1E65791AE0B0F834C08B
:1006A0003F04A5EB0C0CFF0B1FFA8CFC674502D234
:1006B000638AEB1A08E05B199BB2B34204DBC3EB1D
:1006C00046034FF400115B1E2479E4030465446E75
:1006D000A579C46DED0321434565C1659BB21364E3
:1006E000416E8968828E4A63C38E8B63028FCA63B0
:1006F00090F85A00401E8041C043C00FF0BDF0B5D5
:10070000426EC36D9268446EC58EB0F8586023F493
:100710004013C365771B238A1FFA87FE73454FF486
:1007200080110BD2446E032343862579446EB0F8C2
:100730005830ED0305655B1E65791AE0B0F838C0E6
:100740003F04A5EB0C0CFF0B1FFA8CFC674502D293
:10075000638AEB1A08E05B199BB2B34204DBC3EB7C
:1007600046034FF400115B1E2479E4030465446ED4
:10077000A579C46DED0321434565C1659BB2136442
:10078000416E8968828E4A63C38E8B63028FCA630F
:1007900090F85A00401E8041C043C00FF0BDF0B534
:1007A000426EC36D9268446E058FB0F8586023F4B2
:1007B0004013C365771B238A1FFA87FE73454FF4E6
:1007C000801109D2446E032343862579B0F858304E
:1007D000ED035B1E056518E0B0F836C03F04A5EBDD
:1007E0000C0CFF0B1FFA8CFC674502D2638AEB1AD4
:1007F00008E05B199BB2B34204DBC3EB46034FF442
:1008000000115B1E2479E40304659BB2446E657994
:10081000C46DED0321434565C1651364416E89686C
:10082000828E4A63C38E8B63028FCA6390F85A002C
:10083000401E8041C043C00FF0BDF0B5426EC36D95
:100840009268446E058FB0F8586023F44013C36576
:10085000771B238A1FFA87FE73454FF4801109D254
:10086000446E032343862579B0F85830ED035B1EB0
:10087000056518E0B0F834C03F04A5EB0C0CFF0B85
:100880001FFA8CFC674502D2638AEB1A08E05B19F9
:100890009BB2B34204DBC3EB46034FF400115B1E73
:1008A0002479E40304659BB2446E6579C46DED035D
:1008B00021434565C1651364416E8968828E4A6330
:1008C000C38E8B63028FCA6390F85A00401E80412A
:1008D000C043C00FF0BDF0B5426EC36D9268446E68
:1008E000858EB0F8586023F44013C365771B238AC4
:1008F0001FFA87FE73454FF480110BD2446E032319
:1009000043862579446EB0F85830ED0305655B1ECB
:1009100065791AE0B0F838C03F04A5EB0C0CFF0B6A
:100920001FFA8CFC674502D2638AEB1A08E05B1958
:100930009BB2B34204DBC3EB46034FF400115B1ED2
:100940006479E4030465446EA579C46DED03214325
:100950004565C1659BB21364416E8968828E4A63A6
:10096000C38E8B63028FCA6390F85A00401E804189
:10097000C043C00FF0BD30B4436E1D4A9C680121D6
:1009800080F85A10116801F00C0108291AD1116879
:1009900001F00C010C29FAD1016E9160036EC2F8CE
:1009A0000831216A41F480512162C16D9160C36DAB
:1009B000C2F80831016D9163436DC2F838313E30A1
:1009C00030BC704700291D88E6D1616AA942FCD37A
:1009D000116801F00C010829DED1116801F00C0149
:1009E0000C29FAD1D8E70000000001400C2004E0F7
:1009F00000200140300000423C2001400180FFFF08
:100A000070B40246547A90895589136A6043000491
:100A100015FB04F1D469240C800C4900A2F8924023
:100A200008B9962006E000EB400542F21074680019
:100A3000B4FBF0F0A2F89000A2F88210B2F8904057
:100A4000B2F892003C4D444384FB0565AD1105EBC3
:100A5000D575A2F8805089B2B2F88000374D568A19
:100A60000004C2F88800D069A0FB0554A408B4FBB8
:100A7000F6F63604D069C2F8846000EB80046400A6
:100A80002E4E508AA4FB0665AD08B5FBF1F1C2F805
:100A90008C10118B90FBF1F14C1E0120B2F88010EC
:100AA000A2F8944082F83C0099620021586940F015
:100AB000010058611961186840F004001860D96895
:100AC00041F00201D9600021D86840F00100D860EF
:100AD0005962186A40F001001862196841F001017A
:100AE00019600023907E012823DB10F0030108D059
:100AF00002F142050024DEB25B1C25F81640491EB7
:100B0000F6D1800800F0158002F142040021DDB228
:100B100024F815105B1CDDB224F815105B1CDDB247
:100B200024F815105B1CDDB25B1C24F81510401E68
:100B3000EAD170BC70470000D34D6210ABAAAAAADC
:100B4000016ACA6822F00202CA60002380F83D30C0
:100B5000002280F83E20012380F83C30C280002330
:100B600080F83F3080F8402080F84130A0F87E20A7
:100B7000C366012280F8722080F866300022B0F847
:100B8000803080F873208B624A620B6843F0010367
:100B90000B60CA6842F00202CA6071E2B0F9041048
:100BA000B0F9002047F6FF73994213D0B0F87AC02D
:100BB000B0F87C30A0F870108C44A0F87AC0CB1844
:100BC000B0F87EC0A0F87C308C4462440280B0F95A
:100BD00000007047B0F870108A180280B0F9000069
:100BE000704730B490F83C20B0F96840002A5AD0E1
:100BF000026A926AB0F88050AA4208D3002282802A
:100C00000A80012209884180104630BC70478480E8
:100C10003CB900220A80012209884180104630BC7C
:100C2000704747F6FF75AC4234D0B0F97A30B0F86F
:100C30009450A0F87C3002889B1AA0F878301BB240
:100C400090F9732093FBF5F3012AA0F87E300ED1C2
:100C5000827E90F84030934231BFA0F87440C36E5A
:100C600093FBF2F2A0F87420002480F87340B0F9EE
:100C700074300B80428A457A534303EB830463004C
:100C80002D0493FBF5F20A80012209884180104669
:100C900030BC7047B0F982300B8001220988418056
:100CA000104630BC7047837B0372002484800C8024
:100CB00009884180104630BC70470000F0B490F8BD
:100CC0003C10026A002900F07C8190F87630017DAA
:100CD000E1B9446B816B2569046B0D408D42C56A97
:100CE0002E69856A0CBF012100212640A642466A72
:100CF00037690CBF012400242F40AF420CBF0125EF
:100D00000025640044EA810425431DE0C46A016BA8
:100D10002569846B0D408D42456B2E69856A0CBF39
:100D2000012100212640A642466A37690CBF0124F2
:100D300000242F40AF420CBF01250025890081F01F
:100D4000040141EA44010D4380F8765090F8761092
:100D5000491E052900F28980DFE801F015472E7150
:100D60000360042B08BF012179D0012B40F0808063
:100D7000C38A03F528534FF0FF31AA3380F872106D
:100D8000A0F87A3074E0052B09D1C38A03F5285303
:100D90000121AA3380F87210A0F87A3068E0032BA2
:100DA00066D1C38A03F5AA434FF0FF31553380F86B
:100DB0007210A0F87A305BE0012B09D1C38A03F5E9
:100DC000AA430121553380F87210A0F87A304FE021
:100DD000022B4DD1C38A03F5FE434FF0FF31FF33A1
:100DE00080F87210A0F87A3042E0032B09D1C38A50
:100DF00003F5FE430121FF3380F87210A0F87A302A
:100E000036E0062B34D14FF0FF3180F8721045F2F6
:100E10005551C38A591AA0F87A1029E0022B09D13A
:100E2000012180F8721045F25551C38A591AA0F871
:100E30007A101DE0042B1BD14FF0FF3102E0062B8E
:100E400009D1012180F8721042F6AA21C38A591AE9
:100E5000A0F87A100CE0052B0AD14FF0FF31C38ABD
:100E600080F87210A0F87A3002E0002180F83C107F
:100E700090F83F1041B990F83F10491C80F83F109E
:100E8000506BF0BC0020704790F84010837E994270
:100E900004D290F84010491C80F84010546B936ABB
:100EA00090F8415090F84110A4B29BB204EB054574
:100EB000A9B15B1C9BB290F83E106B4319B10022A4
:100EC00080F83E2023E0916AB0F88040A1421ED213
:100ED000916A491C9162012280F83E2017E090F847
:100EE0003D1031B19B1C9BB200216B4380F83D103B
:100EF0000DE05B1C9BB26B43B4F5AA4F07DA916A15
:100F000029B1916A491E9162012280F83D20D0F8F2
:100F10008C108B4207D247F6FF720021A0F86820A0
:100F200080F873104AE000F1420190F86640C26E0A
:100F300031F91410521AC266D0F8882090F8661061
:100F4000934205D300F14204002324F811301EE03F
:100F5000D0F88420B2FBF3F200F1420300F1420426
:100F600023F8112000F1420290F8661032F8113097
:100F700090F9722013FB02F224F8112000F14202D2
:100F800090F86630C16E32F913208918C16600F1FD
:100F9000420390F8661033F8112090F86610A0F81C
:100FA0006820491C80F86610C9B2827E914204BF55
:100FB000002180F86610012280F87320002180F85B
:100FC00041100020F0BC704730B5044681B094F861
:100FD0003C00216A00284FD094F84100401C84F85E
:100FE00041004FF47A708A6AB4F89030B4F89210E5
:100FF000521C4B434243B3FBF2F094F8411080B2D1
:10100000814239D30022A280204600F039F8002125
:1010100084F84110A07E28B304F142000022CBB234
:1010200020F81320491CA07ECDB285421AD204F1CB
:101030004203491C23F81520C8B2A27E904211D267
:101040000020CDB223F81500491CA07ECAB282420E
:1010500008D20022CDB223F81520491CA27EC8B2C6
:101060009042D9D3002084F8400000210120A4F848
:10107000681084F86600E166002001B030BD000011
:1010800030B4017DE1B9426B816B1369026B0B4097
:101090008B42C36A1C69836A0CBF01210021144082
:1010A0009442446A25690CBF012200221D409D42E2
:1010B0000CBF01230023520042EA810213431DE0CA
:1010C000C26A016B1369826B0B408B42436B1C69D4
:1010D000836A0CBF0121002114409442446A2569AF
:1010E0000CBF012200221D409D420CBF01240024A0
:1010F0008B0083F0040343EA4203234380F87630F5
:1011000090F87620B0F90010521E052A40D8DFE88A
:1011100002F00D211735032BC18A01F5A851553175
:1011200001800188A0F87A1030BC7047C18A01F5AF
:101130007C51FF3101800188A0F87A1030BC7047E3
:10114000C18A01F5D441AA3101800188A0F87A1042
:1011500030BC7047C18A46F6AA22891A01800188EC
:10116000A0F87A1030BC7047C18A43F6FF72891A22
:1011700001800188A0F87A1030BC7047C18A41F222
:101180005552891A01800188A0F87A1030BC704746
:10119000002380F83C3001800188A0F87A1030BC30
:1011A0007047F0B40246106895681318506803EB56
:1011B0005004C0071DD54D441BE013F8017B05F812
:1011C000017B491EF9D1A0B1B60813F8011B06F046
:1011D0000306032E08BF13F8016B01EB06214942F9
:1011E000801C294405D011F8016B05F8016B401EE5
:1011F000F9D1A3420ED013F8016B16F0030104BF1E
:1012000013F8011BC91C30090F28DAD113F8010BA0
:101210000F30D6E7F0BC02F10C00704710B50400A7
:1012200001D1012010BD94F8390028B9002184F8BB
:101230003810204600F0D9FB022084F83900211D27
:10124000206800F083F9012084F83900002010BDE7
:1012500010B5040001D1012010BD94F8390028B95F
:10126000002184F83810204600F028FC022084F881
:101270003900211D206800F069F9012084F8390047
:10128000002010BD30B5044681B094F83800012824
:101290000D4608BF022068D0012084F838000221E2
:1012A0000C2A84F8391059D8DFE802F0075858584A
:1012B0001B5858583058585844002068294600F0A8
:1012C000F5F92068816941F0080181612068816930
:1012D00021F00401816121688A69286902438A61D9
:1012E0003CE02068294600F0B3F92068816941F4A8
:1012F000006181612068816921F4806181612068D9
:1013000081692A6941EA0221816127E02068294632
:1013100000F0F5F92068C16941F00801C161206859
:10132000C16921F00401C1612168CA6928690243C9
:10133000CA6113E02068294600F00DFA2068C169EF
:1013400041F40061C1612068C16921F48061C1611B
:101350002068C1692A6941EA0221C161012084F83B
:101360003900002184F83810002001B030BD70B47D
:1013700090F83820012A08BF022000F0C180012225
:1013800080F83820022380F83930DFF8142403680D
:101390009C6814409C600B68002B00F08E80102B22
:1013A00000F09280202B00F09680302B00F09A8085
:1013B000402B68D0502B31D0602B49D0702B0BD0F4
:1013C000B3F5805F03D0B3F5005F16D091E00168FC
:1013D0008A68D208D2008BE0CA684B6804688968C2
:1013E000A56825F47F4529430B4343EA0223A36004
:1013F00001688A6842F077027AE0CA684B6804683C
:101400008968A56825F47F4529430B4343EA0223F5
:10141000A36001688A6842F4804269E0CA684B6848
:10142000016818318C688D686D086D008D6024F03E
:101430000A040E6826F0F00646EA02160E60234300
:101440008B6001688A6822F0700242F057024FE018
:10145000CA684B68016818318C6824F010048C60ED
:101460000C688D6824F4704444EA023425F0A00529
:101470000C6045EA03158D6001688A6822F07002ED
:1014800042F0670234E0CA684B68016818318C6822
:101490008D686D086D008D6024F00A040E6826F0DA
:1014A000F00646EA02160E6023438B6001688A68E4
:1014B00022F0700242F047021AE001688A6822F0C6
:1014C000700242F0070213E001688A6822F070029D
:1014D00042F017020CE001688A6822F0700242F0C4
:1014E000270205E001688A6822F0700242F03702A4
:1014F0008A60012180F83910002280F8382000200D
:1015000070BC7047000010B5044694F838000128FC
:1015100001D1022010BD012084F83800022284F895
:101520003920204600F054F92068C16821F04001BC
:10153000C1602068C16821F48041C160012084F845
:101540003900002184F83810002010BD30B4954BCC
:101550000468984218BFB0F1804F0BD0924A904275
:101560001CBF924DA84205D0914A90421CBF914D9C
:10157000A84210D14A6824F070041443984218BF5E
:10158000B0F1804F1BD0884A90421FBF874DA842C0
:10159000874A904213D0874DA8421CBF864A90428A
:1015A0000DD0864DA8421CBF854A904207D0854D7C
:1015B000A8421FBF844A9042844DA84203D1CA6802
:1015C00024F440741443046098428C68C4620A682E
:1015D000826219BF774B9842096901630122426117
:1015E00030BC7047F0B4046A6E4E64086400046254
:1015F000B0428469056A18BFB0F1804F11D06A4EBD
:10160000B0421CBF694FB8420BD0694EB0421CBFFC
:10161000684FB84205D0684EB0421CBF694FB8420F
:1016200003D1A40842EA840203E0A208920042F037
:1016300001021B0122F0F00203F0F0031A4325F02F
:101640000A0501F00A01826129430162F0BC70477A
:1016500070B4026A534E22F010020262B042056A70
:10166000436884690A6824F4E64444EA02248A68E8
:1016700025F0200545EA02151CBF4E4A90420DD1C7
:10168000CA684E6925F0800545EA02158A6923F487
:101690004063164325F0400543EA860343608461B6
:1016A00049688163056270BC70470000F0B4026A4B
:1016B000520852000262066A446885690B688A68AB
:1016C00025F073051D4326F002061643354B98425C
:1016D0001CBF384FB8420BD1CA684B6926F00806C8
:1016E00024F4407416438A691C4326F0040614430C
:1016F00044608561496841630662F0BC704770B41C
:10170000026A22F480720262056A4368C4690A6848
:101710008E6824F07304144325F40075214A45EAC9
:10172000062590421CBF234EB0420DD1CA684E69B7
:1017300025F4006545EA02258A6923F440531643DF
:1017400025F4806543EA06134360C4614968C163B8
:10175000056270BC704770B4026A124E22F4805267
:101760000262B042046A4268C3690D6823F4E6432A
:1017700043EA05238D6824F4005444EA05341CBF71
:101780000C4DA84204D14D6922F4804242EA8512F0
:101790004260C36149680164046270BC7047000024
:1017A0008800FFFF000001400004004000080040E6
:1017B000000C004000040140004001400044014092
:1017C0000048014000180040001C0040002000407C
:1017D0000368D3F808C04A6808682CF0700C42EA25
:1017E0000C0C4FEADC0C40EACC0CC3F808C04A6889
:1017F000402A13D0502A1FD0602A35D0702A47D1F2
:1018000008698A68C968D3F808C02CF47F4C41EA9B
:101810000C010A4342EA00229A607047186A1A6A69
:10182000520852001A629A69096922F0F00242EAEB
:1018300001129A6118627047086989681A6AD3F8B8
:1018400020C04FEA5C0C4FEA4C0CC3F820C022F0D9
:101850000A02D3F818C02CF0F00C4CEA001CC3F8B4
:1018600018C0114319627047086989681A6A22F022
:1018700010021A629A69D3F820C022F4704242EA38
:1018800000322CF0A00C9A614CEA011CC3F820C075
:10189000704730B4002513E050F8042BD30744BF41
:1018A000A9F101039A18091F042942F8045BFAD22E
:1018B00013468C0744BF15809B1CC90748BF1D7089
:1018C00050F8041B0029E7D130BC704700B581B047
:1018D0000020009000226F48416841F4804141603F
:1018E000416801F48041009100990092036843F03F
:1018F00080530360006800F080500090009804203E
:1019000000F0DEF8002200216FF00B0000F0E5F897
:10191000002200216FF00A0000F0DFF80022002111
:101920006FF0090000F0D9F8002200216FF00400E8
:1019300000F0D3F8002200216FF0030000F0CDF892
:10194000002200216FF0010000F0C7F801B05DF83F
:1019500004EB002204214FF0FF3000F0BEB800B5C8
:1019600087B000684C4988421BD1002000900322B8
:101970004A48016841F4807101604021006800F428
:1019800080700090009846480191029200210391D6
:1019900001A900F003F903210191029100210391B3
:1019A0001DE0404988421ED10020009003223B48A0
:1019B000016841F4007101604021006800F400708A
:1019C000009000983648019102920021039101A9EC
:1019D00000F0E4F80320002201900290039201A994
:1019E000314800F0DBF807B000BD00B587B00068F3
:1019F0002E4988421AD10020009002222548016811
:101A000041F0080101604FF4E051006800F0080067
:101A100000900098264801910292002103910492BF
:101A2000059201A900F0BAF807B000BD214988422B
:101A30000BD1002000901748416841F0020141603D
:101A4000406800F002000090009807B000BD0068F8
:101A50001849884200D0704700B585B0E022009256
:101A600002210191029103910322049269461248D6
:101A700000F094F84FF46041009102220321049198
:101A80000192029203926946094800F087F805B076
:101A900000BD0000403802400020014044380240B0
:101AA000000002400021014000040240000C004000
:101AB000001C02400004014000200240704700006A
:101AC0002E4B19684FF6FF020002114000F4E0604F
:101AD00008432B4908431860704730B4274B1C68F3
:101AE000C4F30223C3F10704052C28BF04241D1DE1
:101AF000072D34BF0023DB1E012505FA04F4641E04
:101B00002140994005FA03F35B1E1A401143090175
:101B1000020007D51B4A00F00F00104400F8041C17
:101B200030BC7047184B195430BC7047012200F08C
:101B30001F01164B8A40400943F820207047401E81
:101B4000B0F1807F01D30120704711494860F02037
:101B500081F8130D00228A6007200860002070477A
:101B600004280B4904D1086840F00400086070475D
:101B70000A6822F004020A60704700000CED00E0E1
:101B80000000FA0518ED00E000E400E000E100E0EC
:101B900010E000E000F000B8704700002DE9F04FC1
:101BA00003460C464FF0000881B0C146C2466A4861
:101BB0006A496B4A012505FA08FC25680CEA050EFE
:101BC000E64540F0B3806568022D18BF122D12D192
:101BD0004FEAD80503EB85050AF01C062F6A4FF083
:101BE0000F0B0BFA06FB27EA0B07D4F810B00BFA21
:101BF00006F63E432E6203251E68277905FA09F58D
:101C0000ED4307F003072E4007FA09F73E431E6035
:101C10006668012E18BF022E03D0112E18BF122E97
:101C200010D19E68E7682E4007FA09F73E439E6090
:101C30005E6826EA0C076668C6F3001606FA08F620
:101C40003E435E60DE683540A66806FA09F6354315
:101C5000DD606568EE0069D5002500954FEA980CB7
:101C6000166846F4804616600F26156805F4804510
:101C70000095009D51F82C700AF00C05AE4027EA43
:101C80000606384FBB4208BF002723D0364FBB4261
:101C900008BF01271ED0354FBB4208BF022719D00D
:101CA000334FBB4208BF032714D0324FBB4208BF9B
:101CB00004270FD0304FBB4208BF05270AD02F4F53
:101CC000BB4208BF062705D02D4FBB420CBF0727DC
:101CD000082700BF07FA05F5354341F82C506FEA95
:101CE0000E0C056866680CEA0505F70348BF4EEA66
:101CF00005050560456866680CEA0505B70348BF39
:101D00004EEA05054560856866680CEA0505F70238
:101D100048BF4EEA05058560C56866680CEA05059A
:101D2000B60248BF4EEA0505C0F80C5008F101089C
:101D3000B8F10F0F0AF1040A09F102097FF63AAF70
:101D400001B0BDE8F08F000000690140481E8041ED
:101D5000C043C00F70470000003C014008380140FC
:101D600044380240000002400004024000080240E3
:101D7000000C024000100240001402400018024013
:101D8000001C02402DE9F0430446DFF80C64DFF844
:101D90000C74DFF80C84DFF80C94002086F8240023
:101DA0000D46DFF80414DFF804047164306481B078
:101DB000FEF7EAF900F010FA06F1640000F03EFACE
:101DC000384600F09DFA7763DFF8E403DFF8E47348
:101DD00030633846FEF714FE716B306B3A4600F004
:101DE000D9FA404600F08CFA484600F089FAC6F865
:101DF0003880C6F83C90002000F0CCF8306B00F042
:101E00005DFB306006F14800F0623346326B06F14C
:101E1000640100F066FB306B00F04DFB0146F06A98
:101E2000002200F068FBF06A2060B7610122B06B0D
:101E3000716BF060B160306CF16B7061316106F113
:101E40006401306BF061316206F10800286086F8A9
:101E5000242001B0BDE8F083CF4991F82400002888
:101E600018BF00F001B8704710B5CB4C94F82400AF
:101E7000012813D1E08C18B1E08C411EE18403E00D
:101E800000F00EF80320E084208D10B1208D411E5B
:101E90002185608D10B1608D411E618510BD0000EF
:101EA00030B581B00022ADF800206946C14CBA4D72
:101EB0002046FEF796FE05F1640000F01FFAC01EF2
:101EC0000F2865D8DFE800F008323446505B5F64C5
:101ED00064646464640F1820286CFEF721FB1420EE
:101EE0002885102150E0288D002851D1286C002130
:101EF00000F0D7FB112147E0286C012100F0D1FB55
:101F0000002845D012213FE02046FEF719FE0421AB
:101F100005F1640000F098F9012839D1002000F0A3
:101F200039F8286CFEF710FB01B030BD05212BE01D
:101F3000286B00F097FAA8802880062105F164003C
:101F400000F082F9286B00F0C4FAE86A00F0E8FAC1
:101F500001B030BDE86A00F0E3FA286B00F082FAC5
:101F6000A880288001B030BD286CFEF70AFB002055
:101F700000F010F84FF448706885082104E0688D7F
:101F800030B9092100E0002105F1640000F05CF99E
:101F900001B030BD70B500BF8EA37F4A1C6800EB56
:101FA0004001490056185450002502EB8004B580CA
:101FB0000021A06B00F0ABF9E06B002100F0A7F965
:101FC000206B00F0FBF9206CBDE8704000F067BBAF
:101FD00000B581B07748FEF7E1FD002000F00AF877
:101FE000012804D100220121734800F072F9002079
:101FF00001B000BDF0B50746674E06EB870483B01D
:10200000206B00F0D9F900F069FB0546206C02A9AD
:1020100000F0B1FA029800F067FB294600F084FB5B
:1020200007EB47014F000190F15FBDF90400091A69
:10203000A06B00F06EF9ADF80000F019B0F90210D5
:10204000BDF90600091AE06B00F063F9ADF8020073
:102050000099606C00F014FD294600F09BFB0146DE
:10206000206C00F08AFA03B0F0BD10B54A4C206C29
:10207000FEF787FA04F16400BDE8104000228021D9
:1020800000F027B94D4881B04FF4903101604FF412
:102090000052026001604FF48043016800914FF4E8
:1020A000A031009A0160036001604FF400430168B1
:1020B00000914FF4C031009A016003600160202359
:1020C000016800914FF0800C009A3D49C0F800145F
:1020D000C0F80034C0F800144023D0F80014009178
:1020E000009A3849C0F80014C0F80034C0F8001451
:1020F000D0F800240092009B334AC0F80024C0F8B6
:1021000000C4C0F800244FF4805CD0F80024009292
:102110004FF48832009B0260C0F800C002604FF4A8
:10212000806C026800924FF48232009B0260C0F81B
:1021300000C002604FF4006C026800924FF48432D9
:10214000009B0260C0F800C002604023006800905D
:10215000009A1E480160036001600123016800913C
:102160004FF00111009AC0F80014C0F80034C0F814
:1021700000140223D0F800140091009A1449C0F80A
:102180000014C0F80034C0F80014D0F80004009027
:10219000009901B0704700002803002000000020D3
:1021A0002000002040000020940100209400002026
:1021B00060000020FC0000208C0300201C1C02405A
:1021C0002000010040000100800001001C000240CE
:1021D00002000100000000001648174981B00268A3
:1021E000D20712D4036843F001030360026802F0CF
:1021F00001020092009A0B6943F001030B61016830
:1022000049084900016001B0704708680A6822F077
:10221000700242F020020A6000F070000A6942F089
:1022200001020A610B6823F070031843086001B0D3
:10223000704700BF40380240040000400021017098
:10224000418081807047000010B403780022122B77
:102250000DD8DFE803F00A0C0C1F2C303234363A6C
:102260000C0C0C0C0C0C26282A0003292FD0032957
:1022700018BF07290BD0418841F0800141800A2B0B
:10228000818841F08001818001D00A21017010BC59
:102290001046704707291CBF1029042917D011299F
:1022A00010E0112904E0122902E0042900E00529C8
:1022B00003D10122EAE7062909D0072902E008290B
:1022C00000E00929D3D10122E0E70C00CFD101229F
:1022D000DCE730B403465C889D8818780C4324EA18
:1022E000020229430A285A80998002D122B90B2080
:1022F00001E00AB10A20187030BC704700787047BE
:10230000018842888180C28000218160704781609D
:102310007047F0B4B0F90430B0F91450B0F9166059
:10232000B0F9062000244B430AB9002115E05143BF
:1023300082688F1806D5002AC8BF002906DD6FF015
:10234000004703E0002A44BF0029114FC168B94289
:1023500003DB0169B942B8BF3946878B81603B41D5
:10236000C78B0A4642FA07F1CB189D4206DAEC1AEF
:10237000A4182B46846018B2F0BC7047B342BCBFAF
:10238000F41A3346A418846018B2F0BC70470000F9
:10239000010000800161426190F82A100170B0F9DB
:1023A0002C20B0F92E101204426009040022816032
:1023B0004280C2608261704740697047017801299C
:1023C00003D100690021FFF7A2BF7047017000210F
:1023D000C1607047F0B4047801230D46D4B9866813
:1023E000F71306EB1746C78C3614AF42B0F92870C6
:1023F000B8BF0023B9421DDB1F002DD0F2B92D0458
:10240000012C0CBF456085600021C16082611846C7
:10241000F0BC70474668C78B3614AF42A4BFB0F912
:102420002470B94206DB078CBD42BCBFB0F92270F4
:102430008F42E3DAF0BC0023184670474180AD1BA1
:10244000818B074F4A43A2FB0774610A491CC16094
:102450002D0495FBF1F181611846F0BC7047000036
:10246000986E128370B504462078E26800280CBF8D
:10247000A5686568012A04D9A169521E4D19E26058
:1024800005E004D1B4F9025000212D04E160EA1303
:1024900005EB1246361401280AD1606900F021F9D3
:1024A000361A206931B2FFF734FF656006463504FD
:1024B000A560304670BDB0F92C00704781B0B0F90E
:1024C0002E10ADF80010008EADF80200009801B09B
:1024D000704710B50446606900F003F900046060BD
:1024E00010BD01604260002183600173C1810182DF
:1024F000C1820176704701230373C181C2820376D2
:102500004376704710B5044603212068FFF79CFE10
:10251000012808BF207610BD00680721FFF794BE90
:1025200010B5040023D0207E012820D1227B00207A
:10253000012A04D015D3032A14D008D311E060680F
:102540000121FFF743FFE28AB4F90E1006E060684C
:102550000021FFF73BFFE28AB4F910106068FFF733
:1025600039FF10B10220207610BD0321217610BD65
:102570000068FFF7C3BE4268104772B581B0B0F87B
:102580004020BDF90650BDF90440018E55436D420F
:102590004C436D0063192C1B03EBD37304EBD47411
:1025A0005B1064109208002B39D5002C12D51D1B2E
:1025B0006E1405EB963502EBA54225141E1404EBB0
:1025C000D53403EBD633856A042102EB6444A2EBD5
:1025D00063435DE02914002D05EBD1360FDC2D1B84
:1025E0006B1405EB933502EBA542251404EBD534AF
:1025F00002EB6444456A0321A4EB664348E05D1B9B
:102600006C1405EB943502EBA5421D1403EBD53396
:10261000A2EB6343056A022103EB664438E0002C19
:1026200012D41D1B6E1405EB963502EBA542251442
:102630001E1404EBD53403EBD633C569012102EB3C
:102640006444A2EB634323E02914002D05EBD1364B
:102650000FDC5D1B6C1405EB943502EBA5421D14D9
:1026600003EBD533A2EB6343C56A052103EB664454
:102670000EE02D1B6B1405EB933502EBA5422514E0
:1026800004EBD53402EB644485690021A4EB664376
:10269000418682860387C486A84702B070BD8168E0
:1026A000084730B504460025080081B007D1A1686D
:1026B00020468847B4F84200A08760B907E00129A6
:1026C00009D1A08F30B1401EA08780B218B921690E
:1026D000204688470125284601B030BDB0F90000EA
:1026E0007047B0F90200704701B481B044F6E612B9
:1026F000BDF90400ADF800000146234811FB00F0CD
:10270000BDF9061011FB02F2A0EB4200C01300F36A
:102710000F00ADF8020010F5004F04BF1B49ADF8E3
:102720000210009802B0704771B583B008B200F093
:1027300051F80190BDF90420BDF90C30BDF9060037
:10274000BDF90E1013FB02F400FB1144E41304F373
:102750000F04ADF8004013FB00F0BDF900500C4C25
:10276000A54204BF094EADF8006011FB0200C01382
:1027700000F30F00ADF80200A04204BF0349ADF81A
:102780000210009804B070BD1AB6FFFF0180FFFF71
:102790000080FFFF31B582B008B200F01BF8019055
:1027A000BDF90430BDF90840BDF90610BDF90A2095
:1027B00014FB03F512FB03F012FB015501FB14019E
:1027C000ED13C913ADF80050ADF80210009803B036
:1027D00030BD0000A0F500410904890D11F44070DE
:1027E00081B028D0B0F5807F38D0B0F5007F05D01B
:1027F000B0F5407F12D0009801B0704720A0CAB257
:1028000030F81230ADF80230C1F1FF01C9B230F931
:102810001100ADF80000009801B0704718A2C1F196
:10282000FF00C0B232F81030ADF80230C9B232F950
:10283000111049421EE000BF11A0CAB230F9123097
:102840005B42C1F1FF01ADF80230C9B230F91100AD
:102850004042ADF80000009801B0704708A2C1F1F5
:10286000FF00C0B232F910305B42ADF80230C9B29D
:1028700032F91110ADF80010009801B07047000057
:102880000000C90092015B022403ED03B6047F053A
:1028900048061107D907A2086A09330AFB0AC40BC4
:1028A0008C0C540D1C0EE30EAB0F72103A1101127A
:1028B000C8128F1355141C15E215A8166E1733187D
:1028C000F918BE19821A471B0B1CCF1C931D571EEB
:1028D0001A1FDD1F9F2061212322E522A6236724E2
:1028E0002825E825A82667272628E528A329612A80
:1028F0001F2BDC2B992C552D112ECC2E872F4130E0
:10290000FB30B5316E322633DF3396344D35043625
:10291000BA366F372438D9388C39403AF23AA53B69
:10292000563C073DB83D683E173FC53F73402141C7
:10293000CE417A422543D0437A442445CD4575465D
:102940001C47C34769480F49B449584AFB4A9D4B45
:102950003F4CE04C814D204EBF4E5D4FFB4F97509A
:102960003351CE51685202539B533254C95460556F
:10297000F5558A561D57B0574258D3586459F359E4
:10298000825A0F5B9C5B285CB35C3E5DC75D4F5E0B
:10299000D75E5D5FE35F6860EB606E61F0617162FE
:1029A000F1627063EE636C64E8646365DD655666CE
:1029B000CF664667BC673268A66819698B69FD698E
:1029C0006D6ADC6A4A6BB76B236C8E6CF86C616D58
:1029D000C96D306E966EFB6E5E6FC16F2270837034
:1029E000E27040719D71F9715472AE7207735E733B
:1029F000B5730A745F74B27404755575A575F37573
:102A000041768D76D87622776B77B377FA773F78F1
:102A10008478C77809794A798979C879057A417AB9
:102A20007C7AB67AEE7A267B5C7B917BC57BF87BE1
:102A3000297C597C887CB67CE37C0E7D397D627D67
:102A4000897DB07DD57DFA7D1D7E3E7E5F7E7E7E5A
:102A50009C7EB97ED57EEF7E097F217F377F4D7FBB
:102A6000617F747F867F977FA67FB47FC17FCD7F94
:102A7000D87FE17FE97FF07FF57FF97FFD7FFE7FE3
:102A800002B481B00091BDF90420BDF90610B0F880
:102A900000C012FB02F311FB01330CFB0CFC9C4544
:102AA00016D200F1020C90F8B0001B0E1B1ADBB21C
:102AB0003CF81300424341439313881302EB534203
:102AC00001EB5041D213C913ADF80020ADF802104C
:102AD000009802B0704700002DE9F0478AB000F07E
:102AE0001BFA00F04CF900F033FA002000904FF48C
:102AF0008036DFF8F003DFF8F0430168DFF8EC839D
:102B0000DFF8EC7341F0100101604FF400650268DA
:102B100002F0100200920022009900924FF48019F6
:102B2000036843F0020303604FF4602A016801F078
:102B30000201009100990092036843F480730360DE
:102B4000016801F48071009100990092036843F0DC
:102B500080030360016801F08001009100990092F8
:102B6000036843F004030360016801F0040100916D
:102B70000099009201210368DE4A43F001030360DB
:102B8000006800F0010000900098DB48019102927B
:102B90000021039101A9FFF701F801212161002023
:102BA0000021C4F800806660A060A0612162E0623C
:102BB000A762E5600220E061216301206061204698
:102BC00000F068FA012101910322049206200021FD
:102BD000009002910691012203910592CDF8209078
:102BE000CDF81CA06946204600F0FEFA08210091AD
:102BF000022201926946204600F0F6FA092100916E
:102C0000032201926946204600F0EEFA08F5807032
:102C1000A0640021E66421650120A0652166A1660B
:102C20006167276765656066E065A16704F1480034
:102C300000F030FA012101910322049206200021C4
:102C4000009002910691012203910592CDF8209007
:102C5000CDF81CA0694604F1480000F0C5FA08212F
:102C6000009102220192694604F1480000F0BCFA8A
:102C70000921009103220192694604F1480000F005
:102C8000B3FA9E48C4F890000021C4F894100020C4
:102C9000C4F898004FF6FF71C4F8A000C4F89C1067
:102CA00004F19000FEF7BAFA4FF48050069006A99E
:102CB00004F19000FEF75BFB0021029100220F213E
:102CC00004910392059202A904F1900000F056FBD2
:102CD0005021009100220192694604F1900000F019
:102CE000A6FB00F0A0F800F0FDFB0022022112205C
:102CF000FEF7F3FE1220FEF719FF002200212C2020
:102D0000FEF7EBFE2C20FEF711FF002203213220FC
:102D1000FEF7E3FE3220FEF709FF00220021062025
:102D2000FEF7DBFE0620FEF701FF4FF4FA7000F01D
:102D3000F1FB00F005FC4FF4FA6000F0EBFB4FF400
:102D40007A714FF4FA6000F018FC4FF4FA6000F06A
:102D5000E1FB00F0F9FB6A4C00F07DF9012807D196
:102D60004FF47A71204600F008FC00F0E9FB00BF48
:102D700000F058F90128EFD100F0E6FBECE700B5D0
:102D800093B0002000904FF480335E48016841F01A
:102D9000805101600021006800F080500090009890
:102DA00059480091026842F48042026001220068A2
:102DB00000F48040009006A80099069202214FF48A
:102DC00080020C910D920421A8220E910F920221F3
:102DD000042207931091119200F0DEFB0F21019164
:102DE00002220021039102924FF480514FF4A0522D
:102DF00005910492052101A800F078FD00F004FE81
:102E000000F006FE414AA0FB0221480AFEF797FEA9
:102E10000420FEF7A5FE002204214FF0FF30FEF74C
:102E20005CFE13B000BD3A48002130B5394C20603B
:102E3000616041F23A202022E0600121A2604FF45B
:102E40008075616195B025612046FEF7E7F920465F
:102E5000FEF7FEF9062110911022119210A92046CA
:102E6000FEF751FB002107910891204607A900F0C9
:102E7000DEFA60200021009001910022039105916B
:102E800002920492069269462046FEF7FBF904225C
:102E900069462046FEF7F6F9082269462046FEF705
:102EA000F1F9702141F23F120091019269460C2222
:102EB0002046FEF7E7F94FF480610A914FF4006075
:102EC000102109900C9100220D920E920F920B95F9
:102ED00009A9204600F0D6FA2046FEF7B8FD15B045
:102EE00030BD0000303802405C020020002001406C
:102EF0000100000F0000111000100240000C004003
:102F000018FCFFFF4038024000700040986E1283AA
:102F1000000401409403002000B50C4881B0016812
:102F200041F400710160026842F48062026001684D
:102F300041F4807101600320FEF7C2FD042000F01F
:102F4000A3FDFEF7C3FC002001B000BD003C024021
:102F500010B586B0002005904C4C4D48016841F0FA
:102F600010010160026802F010020592002205992A
:102F70000592036843F010030360016801F010013B
:102F8000059105990592036843F0100303600168F9
:102F900001F01001059105990592036843F01003B3
:102FA0000360016801F01001059105990592012166
:102FB000036843F010030360006800F01000059000
:102FC000059800910291019269462046FEF7E6FDC0
:102FD00002220092002101910122029269462046BC
:102FE000FEF7DCFD042000210090019101220292F5
:102FF00069462046FEF7D2FD08200021009001918D
:103000000122029269462046FEF7C8FD10200021E9
:10301000009001910122029269462046FEF7BEFD12
:1030200006B010BD10B5194C08212046FEF78CFEE5
:1030300078B9142000F06EFA08212046FEF784FECD
:1030400038B908212046FEF77FFE0028F9D001207C
:1030500010BD002010BD10B50C4C10212046FEF70D
:1030600073FE78B9142000F055FA10212046FEF7BF
:103070006BFE38B910212046FEF766FE0028F9D015
:10308000012010BD002010BD000000000010024013
:103090003038024030B581B00446002514B9012013
:1030A00001B030BD206C28B9656484F83C0020462E
:1030B000FEF755FC206CC10610D4206C20F488501B
:1030C00040F002002064204600F00FF86564216C97
:1030D00021F0020141F00101216400E001250020FE
:1030E00084F83C0001B0284630BD3D4A116821F407
:1030F00040311160136841680B43136002685368E4
:1031000023F4807353605168036941EA03215160DD
:10311000516821F040715160536881680B435360DE
:10312000936823F4006393609368C1680B439360D2
:103130002C49836A8B4210D0936823F070639360AC
:103140009368816A0B439360936823F040539360C4
:103150009368C16A0B43936007E0916821F0706146
:103160009160916821F040519160916821F00201D5
:1031700091609168836941EA43019160016A002985
:1031800051680CD041F400615160516821F46041F4
:1031900051605168436A5B1E41EA433101E021F40A
:1031A00000615160D16A21F47001D162D16AC369B2
:1031B0005B1E41EA0351D162916821F40071916074
:1031C0009168036B41EA43219160916821F4806129
:1031D00091609168406941EA8021916070470000E8
:1031E000042301400100000F70B490F83C20012A34
:1031F00008BF022000F0BA80012280F83C2007249A
:103200000A6803680A2A12D30A3ADD6802EB42020E
:10321000944025EA0404DC60DA680D688C68A5F146
:103220000A0606EB4606B4402243DA600FE01D6949
:1032300002EB420204FA02F225EA02021A611A695A
:103240000D688C6805EB4505AC4022431A611F25CB
:103250009A6B22F440129A639A6B0C69641E42EADC
:1032600004529A639C6B4E680A69F61CB61A06EB08
:103270008606B540AC439C639C6B4E680A690D881A
:10328000F61CB61A06EB8606B5402C439C63CA6949
:10329000394CA2429A6822F470229A600CD09C6841
:1032A000CA6914439C609C6824F440149C609C6828
:1032B0000A6A14439C6003E09A6822F440129A6000
:1032C0008A69002A5A6814BF42F4806222F480623C
:1032D0005A604A69002A5A6814BF42F4805222F4A4
:1032E00080525A604A68012A04D01ED3032A13D0A0
:1032F00009D31AE05C69240B24035C615C69CA6829
:1033000014435C6119E09A69120B12039A619C697B
:10331000CA6814439C6110E0DA69120B1203DA6187
:10332000DC69CA681443DC6107E01A6A120B1203F5
:103330001A621C6ACA6814431C620D4CA34211D164
:103340000A68122A04D10B4A136843F480031360FD
:103350000968102918BF112904D106490A6842F4E6
:1033600000020A60002180F83C10002070BC704709
:10337000002001400423014001000F0030B504008B
:1033800087B00D4608BF01204FD0022084F83900D5
:10339000204600F0A5F82068211DFEF7D7F8AB689D
:1033A000296820680322FEF71DF92068816921F051
:1033B0000C01816121688A69686802438A61002280
:1033C0002068416841F0800141602068816821F0F7
:1033D000700181602068816841F04001816020684F
:1033E0008168C908C90081602068816841F00401D2
:1033F0008160049200217022059100920691039150
:1034000002916946E86801902068FEF721F920687A
:10341000416821F0700141602068416841F050012D
:103420004160012084F83900002007B030BD90F8D9
:103430003820012A01D102207047012280F838206B
:10344000022380F839300268536823F07003536018
:103450000368D3F804C00A6842EA0C0CC3F804C03D
:103460000268936823F08003936002689368496858
:103470000B439360012280F83920002180F8381036
:103480000020704730B490F83820012A08BF02208D
:1034900024D0012280F83820CD688B684A688C6976
:1034A00025F440751D4325F4806515430B680A69B2
:1034B000496925F400651D4325F48055154325F41D
:1034C00000550D4325F480452543026825F4004549
:1034D0002C435464002180F83810002030BC704721
:1034E0007047000000B581B000F092FA074AA0FBD7
:1034F0000221880AFEF723FB0548011DFEF742FC66
:1035000001B05DF804EBFEF7BDBD00BF986E1283FD
:10351000D003002030B581B0044600F0D9FA14F190
:10352000010F054602D005480178641800F0D0FA72
:10353000401BA042FAD301B030BD00BF48020020BA
:1035400005480068FEF7DEBF03480068FEF7E4BFE9
:1035500001480068FFF70CB8D003002000B581B027
:10356000FFF7F6FF20B901B05DF804EBFFF7E8BF05
:1035700001B05DF804EBFFF7E7BF0A4642F6AB2166
:1035800010FB01F1034B1868091401EBD17109B26A
:10359000FEF7B1BFD00300202DE9F041040082B056
:1035A0001AD02078DFF83863C10740F1F780B0689F
:1035B00000F00C00042807D0B06800F00C000828C8
:1035C0000ED1706841020BD53068810340F1E6806E
:1035D0006068002840F0E280012002B0BDE8F08180
:1035E0006068B0F5803F04D1306840F480303060CE
:1035F00011E0B0F5A02F306806D140F48020306093
:10360000316841F4803105E020F480303060316869
:1036100021F480213160606878B100F059FA0546E4
:103620003068810300F1BA8000F052FA401B65282F
:10363000F6D3032002B0BDE8F08100F049FA054658
:103640003068810340F1AA8000F042FA401B6528EF
:10365000F6D3032002B0BDE8F08100BF00F038FAD5
:10366000401B022840F2C780032002B0BDE8F08171
:10367000E0689C4988B101220A6000F029FA0546F9
:103680003068810700F1E58000F022FA401B022833
:10369000F6D9032002B0BDE8F081086000F018FA06
:1036A00005463168880740F1988000F011FA401B08
:1036B0000228F6D9032002B0BDE8F081C1F8800EDF
:1036C00000F006FA0546706F810740F1988000F01F
:1036D000FFF9401B0228F6D9032002B0BDE8F081B3
:1036E0000528306F06D140F004003067306F40F09D
:1036F000010005E0400840003067306F20F0040012
:103700003067A06888B100F0E3F9074641F28938D4
:10371000306F810700F1AD8000F0DAF9C01B404541
:10372000F6D3032002B0BDE8F08100F0D1F90746DE
:1037300041F28938306F810740F19B8000F0C8F971
:10374000C01B4045F6D3032002B0BDE8F08100BFA6
:1037500000F0BEF9C01B022840F2A180032002B095
:10376000BDE8F08100F0B4F9001B022840F2AF8000
:10377000032002B0BDE8F0810020286600F0A8F91F
:1037800004463068810140F1A68000F0A1F9001BD9
:103790000228F6D9032002B0BDE8F0812078810725
:1037A0001BD5B06810F00C0F09D0B06800F00C0009
:1037B00008287FF45DAF706841023FF559AF30686B
:1037C000810703D5E06801287FF406AF31682069DE
:1037D00021F0F80141EAC0013160217808070ED5D7
:1037E0006069404900283FF469AF0122C1F8802E8A
:1037F00000F06EF90546706F81077FF52FAF2078D6
:1038000041073BD5306C0025C1000AD40095012545
:10381000316C41F080513164306C00F08050009088
:103820000098314F3868C1051BD4386840F4807067
:10383000386000F04DF980463868C10511D400F0B9
:1038400047F9A0EB08000228F6D9032002B0BDE832
:10385000F0813068216920F0F80040EAC100306052
:10386000BBE7A06801287FF43BAF306F40F0010058
:1038700046E71DB1306C20F080503064A06950B331
:10388000B16801F00C0108293FF4A6AE0228154DDD
:103890007FF472AF0020286600F01AF907463068FE
:1038A00081013FF555AFE269206A616A0243A06A6F
:1038B000400842EA8112401E42EA0042E06A42EABF
:1038C000006272600121296600F002F90446306846
:1038D00081017FF547AF002002B0BDE8F08100BF55
:1038E0000038024000004742007000402DE9F041DE
:1038F00004000E4600F08580474DD5F8000400F026
:103900000F00B04207D285F80064D5F8000400F03B
:103910000F00B04275D12068810712D5400703D54A
:10392000A96841F4E051A9602078010703D5A8688F
:1039300040F46040A860A968A06821F0F00101434C
:10394000A9602178C8074ED56068012802D129688E
:103950008A0305E0022818BF032805D129688A01D7
:1039600005D40120BDE8F08129688A0749D5A968F6
:10397000890840EA8100A86041F2893800F0A8F87F
:103980000746A868616800F00C00B0EB810F2AD0F0
:1039900000F09EF8C01B4045F3D30320BDE8F08142
:1039A0002078410705D5AA68E06822F4E052024376
:1039B000AA602178080706D5A968206921F460412A
:1039C00041EAC001A96000F02FF8AA681349144B1E
:1039D000C2F30312895CC8401860042000F054F858
:1039E0000020BDE8F081D5F8000400F00F00864209
:1039F000D6D285F80064D5F8000400F00F00B0427C
:103A0000CED00120BDE8F081064901200860704752
:103A10000348006870470000003802401C3E000860
:103A2000540200204C00474230B5144C606800F04E
:103A30000C00042803D0082803D0114830BD1148D9
:103A400030BD226820680023410202F03F0204D505
:103A500025680C49C5F3881003E020680849C0F3C5
:103A60008810A1FB000100F039F82168C1F3014181
:103A7000491C4900B0FBF1F030BD00BF04380240E2
:103A80000024F40000127A0030B50F4D0F4B2A7855
:103A900004464FF47A711868B1FBF2F281B0B0FBC2
:103AA000F2F0FEF74CF858B9102C09D2002221464A
:103AB0004FF0FF30FEF711F8AC60002001B030BDD0
:103AC000012001B030BD00BF480200205402002098
:103AD00001484068704700BF48020020BBBBE1B10D
:103AE000B2F5803F80F07E80022A1ED98C46B1FB61
:103AF000F2F102FB11C31B0443EA1043B3FBF2FCD7
:103B000002FB1C3380B240EA0343B3FBF2F002FB3A
:103B1000103240EA0C4000237047022A05D984463F
:103B2000B0FBF2F002FB10C270474AB105D100F0C1
:103B3000010249085FEA3000704700220023704705
:103B400000F0E4B80B000200002100207047904212
:103B500071EB030CF6D3B3F5803F2FD2F0B5B3FA77
:103B600083F7B1FA81F4A7F10F0E3D1B5340CEF15C
:103B7000200602FA0EF2F3415340B5F10F0746D882
:103B80000F3C2C444140C4F12006A040F14141408B
:103B9000B1FBF3F603FB1611A2FB0645001BA9417E
:103BA00002D2761E8018594180EA010221FA0EF3F2
:103BB00062FA0EF200215A403046F0BD30B4B1FB3B
:103BC000F3FC03FB1C11A2FB0C45001BA94103D213
:103BD000ACF1010C8018594130BC02460B466046DE
:103BE00000217047B2F1807F65D3F0B5B2FA82F759
:103BF000B1FA81F4C7F10F063D1B22FA06F307F173
:103C0000110EF24120355A40B5F10F07B8D94140A5
:103C1000C4F12006A040F1414140B1FBF3FC03FB9D
:103C20001C11A2FB0C45001BA94103D2BCF1010CE5
:103C3000801859410F2F12D30F3FC90341EA504159
:103C4000B1FBF3F603FB1611A2FB0645D4EBC03023
:103C5000A94102D2761E8018594146EACC3C07B3EE
:103C60004140C7F12006B840F1414140B1FBF3F6B5
:103C700003FB1611A2FB0645001BA94102D2761ECA
:103C80008018594180EA010221FA0EF3C7F120049D
:103C900062FA0EF20CFA07F05A402CFA04F13043A3
:103CA000F0BD80EA010221FA0EF3002162FA0EF261
:103CB00060465A40F0BD8C46B1FBF2F102FB11C3E5
:103CC0001B0243EA1063B3FBF2FC02FB1C331B0232
:103CD0004CEA002043EA1063B3FBF2FC02FB1C3306
:103CE0001B024CEA002043EA1063B3FBF2FC02FB28
:103CF0001C331B024CEA002043EA1063B3FBF2FCC6
:103D000002FB1C324CEA0020002370477047000081
:103D100023480168490705D5026822F00C020260B9
:103D2000FEF756B970471F48426E93686FF0010165
:103D30001961FCF720BE10B51B4C206A0169CA0747
:103D400005D56FF0010101612046FDF73DF9206ABC
:103D500001698A0707D56FF0020101612046BDE8BD
:103D60001040FCF7ABBF10BD00B581B0FEF77DF988
:103D7000FEE710B50D4C2078022805D100F01AF8A6
:103D8000FDF708FF002020702178491C2170BDE854
:103D90001040FEF761B8064901200860FFF7DEBB5E
:103DA0000020014094000020FC0000205802002068
:103DB000143C01400248416802788A18426070470A
:103DC000480200201149124AD1F8800040F47000E6
:103DD000C1F880000023106840F00100106093607B
:103DE000D2F800C00B480C4B00EA0C0CC2F800C023
:103DF00053600020D2F800C02CF4802CC2F800C020
:103E0000D0604FF000620A607047000008ED00E0EB
:103E100000380240FFFFF6FE1030002400000000D2
:103E200000000000010203040607080910B5074955
:103E300079441831064C7C44163404E00A68081DA5
:103E4000114488470146A142F8D110BD2C00000062
:103E5000480000004EF68851CEF20001086840F498
:103E600070000860BFF34F8FBFF36F8F4FF000708B
:103E7000E1EE100A704700001BDAFFFF7C01000032
:103E80005C020020000000001BD3FFFFD4010000F3
:103E9000A60200000000002000F00DF8002801D06C
:103EA000FFF7C4FFAFF300800020AFF30080FEF700
:103EB00013FE00F002F80120704700F001B8000086
:103EC0000746384600F002F8FBE7000080B5AFF384
:103ED0000080024A11001820ABBEFBE7260002005A
:103EE0000000010106080900000401400000010073
:103EF000CE0129000148804701480047C53D000820
:103F0000053F0008AFF30080FFF7A4FFFFF7C4FFF1
:103F1000FFF7FEBFFFF7FEBFFFF7FEBFFFF7FEBFD5
:103F2000FFF7FEBFFFF7FEBFFFF7FEBFFFF7FEBFC5
:103F3000FFF7FEBFFFF7FEBFFFF7FEBFFFF7FEBFB5
:103F4000FFF7FEBFFFF7FEBFFFF7FEBFFFF7FEBFA5
:103F5000FFF7FEBFFFF7FEBFFFF7FEBFFFF7FEBF95
:103F6000FFF7FEBFFFF7FEBFFFF7FEBFFFF7FEBF85
:103F7000FFF7FEBFFFF7FEBFFFF7FEBFFFF7FEBF75
:103F8000FFF7FEBFFFF7FEBFFFF7FEBFFFF7FEBF65
:103F9000FFF7FEBFFFF7FEBFFFF7FEBFFFF7FEBF55
:103FA000FFF7FEBFFFF7FEBFFFF7FEBFFFF7FEBF45
:103FB000FFF7FEBFFFF7FEBFFFF7FEBFFFF7FEBF35
:103FC000FFF7FEBFFFF7FEBFFFF7FEBFFFF7FEBF25
:103FD000FFF7FEBFFFF7FEBFFFF7FEBFFFF7FEBF15
:103FE000FFF7FEBFFFF7FEBFFFF7FEBFFFF7FEBF05
:103FF000FFF7FEBFFFF7FEBFFFF7FEBFFFF7FEBFF5
:10400000FFF7FEBFFFF7FEBFFFF7FEBFFFF7FEBFE4
:10401000FFF7FEBFFFF7FEBFFFF7FEBFFFF7FEBFD4
:10402000FFF7FEBFFFF7FEBFFFF7FEBFFFF7FEBFC4
:10403000FFF7FEBFFFF7FEBFFFF7FEBFFFF7FEBFB4
:10404000FFF7FEBFFFF7FEBFFFF7FEBFFFF7FEBFA4
:10405000FFF7FEBFFFF7FEBFFFF7FEBFFFF7FEBF94
:10406000700264003200017015851300007BECFFC4
:1040700085137BEC10000001040008007C08E807B1
:1040800021F01010C0FF1F004000E0FF7F01800002
:104090000400400A000E20F10B012002F401F4019B
:1040A00021230CFE72800201005AFF2F1007950396
:1040B000000883050008490410035902000821087C
:1040C00012BF0410035F060008FF0410079F0700DB
:1040D000083B080008D704C34A7E67F305752477B8
:1040E000833A121813E03EDD61011017043E02000E
:1040F00000C800FFFF504600005555F401060000BF
:10410000BD0105000CCE10011C0240CC320008524B
:104110000808F34C100001F08815277CE37ECE7D63
:10412000C07CB87BB77A397A41794F7863777B76F0
:104130009975BC74E4731073A872DB7113714E70BF
:104140008D6FD16E176E626DB06C586CAB6B016B7E
:104150005A6AB66915697768DC674367F86663660B
:10416000D1654165B4642964A063196394625362A4
:10417000D1615161D4605860DE5F665FEF5E7A5E48
:10418000415ECF5D5E5DEF5C815C155CAB5B425B6D
:10419000DA5AA65A415ADC5979591859B758585819
:1041A000F9579D57E8123C2752012B351B0002247A
:0341B000F4000216
:0400000508003F05AB
:00000001FF
