:020000040800F2
:10000000380E0020A1010008A9010008911F000876
:10001000AD010008AF010008B101000800000000B8
:10002000000000000000000000000000B301000814
:10003000B501000800000000B70100087543000882
:10004000BB010008BB010008BB010008BB010008A0
:10005000BB010008BB01000841070008BB01000804
:10006000BB010008BB010008BB010008BB01000880
:10007000BB010008BB010008BB010008BB01000870
:10008000BB010008BB010008E1020008BB01000839
:10009000BB010008BB010008BB010008BB01000850
:1000A000BB010008BB010008BB010008BB01000840
:1000B00055480008BB010008BB010008BB0100084F
:1000C000BB010008BB010008BB010008BB01000820
:1000D000BB010008155C0008BB010008BB0100085B
:1000E000BB010008BB010008BB01000879480008FB
:1000F000A1480008BB010008BB010008BB010008C3
:10010000BB010008BB010008BB010008BB010008DF
:10011000BB010008BB010008BB010008BB010008CF
:10012000BB010008BB010008BB010008BB010008BF
:10013000BB010008BB010008BB010008BB010008AF
:10014000BB010008BB010008BB010008BB0100089F
:10015000BB010008BB010008BB010008BB0100088F
:10016000BB010008BB010008BB010008BB0100087F
:10017000BB010008BB010008BB0100080000000033
:10018000BB010008BB010008DFF810D000F06AF8DE
:1001900000480047695D0008AFF30080380E00207A
:1001A0000648804706480047FEE7FEE7FEE7FEE711
:1001B000FEE7FEE7FEE7FEE7FEE7FEE73144000864
:1001C000890100082DE9F05F0546002092469B4614
:1001D00088460646814640241BE02846414647465D
:1001E000224600F02FF853465A46C01A914110D3C8
:1001F00011461846224600F016F82D1A67EB010842
:100200004F4622460120002100F00DF817EB0009AF
:100210004E41201EA4F10104DFDC484631462A4647
:100220004346BDE8F09F202A04DB203A00FA02F1A1
:10023000002070479140C2F1200320FA03F31943D4
:1002400090407047202A04DB203A21FA02F0002176
:10025000704721FA02F3D040C2F1200291400843D6
:1002600019467047064C074D06E0E06840F0010370
:1002700094E8070098471034AC42F6D3FFF788FFA4
:10028000F86500081866000870B58C1810F8015B56
:1002900015F0070301D110F8013B2A1106D110F81F
:1002A000012B03E010F8016B01F8016B5B1EF9D123
:1002B0002B0705D40023521E0DD401F8013BFAE7A9
:1002C00010F8013BCB1A921C03E013F8015B01F814
:1002D000015B521EF9D5A142D8D3002070BD0000A9
:1002E0000D4810B5016811F0040F09D0016821F024
:1002F0000C01016004F0D0FBBDE8104005F06EB8C1
:10030000D0F8001221F00C01C0F8001204F0C4FB78
:10031000BDE8104005F062B80020014010B402466C
:1003200008460FFA81FC1CFB0CF40B1413FB034171
:10033000148864438C4224BF10BC704792F8B240CA
:10034000C4EB1161C9B202EB41018A8810BC0CFBFD
:1003500002F14FEAE17C01EB5C41C91361F30F004C
:1003600003FB02F1CA1701EB5241C91361F31F40AD
:10037000704700002DE9F041054690F830101A4C06
:10038000002205F0A9F8E61306FA80F14FF4700791
:1003900097FAA7F27001B2FA82F2D04004EB800023
:1003A00082686FF30F1211438160606840F00100B2
:1003B000606095F831100022284605F08DF806FAA5
:1003C00080F197FAA7F2F001B2FA82F2D04004EB82
:1003D000800082686FF30F1211438160606840F003
:1003E00002006060BDE8F08100740040084490F8AD
:1003F0003000704700EB4100B0F932007047000058
:100400000448016841F001010160016841F4803154
:100410000160704700740040084480F83020704745
:1004200000EB41004286704770B504468089012583
:1004300030B1401E0004000CA08118BF002501D07F
:10044000284670BDB4F91400217E90FBF1F001B292
:10045000A06800F05FF90120A073F1E7C07B70474E
:100460008360C0E9001200218173C1737047807BF3
:100470007047C173704710B50446002240681146AA
:1004800005F01DFCB4F91410606805F056FC00215D
:10049000206803F0B4FE00221146206803F030FE0D
:1004A000E28AB4F91210206803F02AFEE08A218A59
:1004B00048434FF47A71B0FBF1F0401CA08110BDAD
:1004C000016A496A826E89B25143CA1701EB12412F
:1004D0000914C388C180427812FB01F212B28280F3
:1004E000C91A836809B219448160104670472DE922
:1004F000F041076A002490F875507B6A2246B0F8F4
:1005000070C02646A0F870403F68BCF1010F07F0AC
:10051000100884BF4FF0010C80F879C0B0F86E70FD
:10052000B0F872C0B8F1100F5ED09C4594BF4FF088
:1005300000084FF00108A3EB0C0C08FB07CC90F867
:10054000787000EB8707C7F828C0002D08D900EBAA
:10055000820C521CDCF828C0D2B264449542F6D812
:10056000426A02FB04FCB0F86E2090F875406243CA
:100570009CFBF2F20A80B0F80CC0A2EB0C0CA0F8C5
:1005800012C0828190F87820B0F86CC000EB820233
:10059000926A02FB0CF290F801C002FB0CF2B0F878
:1005A0006EC092FBFCF2D0F81CC00CFB02F2B0F85B
:1005B0001AC092FBFCF2C281A0F8723090F8782049
:1005C000521C80F8782090F8782090F875309A4284
:1005D00008BF80F8786090F87920B2B180F8766032
:1005E000C2780021027013E09C4534BF4FF001082F
:1005F0004FF00008A3EB0C0C08FB17CC90F87870B8
:1006000000EB8707C7F828C09FE703F013FD0146FA
:100610000846BDE8F081000090F875200021002A0E
:1006200088BF002209D900BF00EB8103491C9A62F0
:1006300090F87530C9B28B42F6D8012180F8761057
:100640007047B0F87010491CA0F870100020704777
:100650002DE9F001016A00224A62B0F86E204FF0E5
:10066000FF33B3FBF2F28266B0F86C20DFF8A0C073
:1006700002EB82025200426290F8772001F11805E5
:1006800016059CF8002053191F680CF10702F0248E
:1006900092F8008004FA08F827EA080792F8008028
:1006A000360C06FA08F63E431E6090F877301E05B9
:1006B0009CF802302B44D3F800C09578AC402CEA6B
:1006C000040C340CEAB204FA02F24CEA02021A6098
:1006D0006FF001020A61CA6842F00102CA600A684A
:1006E00042F001020A6090F875200021002A8EBFB6
:1006F0000023BDE8F001704700EB810C491CC9B232
:10070000CCF828308A42F7D8BDE8F00170470000E5
:10071000D4650008026AC180437813FB01F383802B
:100720004FF6FF730029B8BF494289B2B8BF591AC2
:10073000B0F86E004843B0FBF3F080B250627047EF
:100740000448016811F0010F08BF704701210160E2
:1007500005F0D6B8143C0140002190B143780178EF
:1007600000221944002B09D900EB020C521C9CF802
:1007700002C0D2B2614489B29342F5D801EB112094
:10078000C1B208467047002141820175417580F869
:10079000961080F8971080F8981080F8991080F8DB
:1007A0009A1080F81B1180F81C1180F81D117047F9
:1007B000DDF800C0002818BF80E80E107047000068
:1007C00000EB400101EB001210B5084901EB4204B7
:1007D00094F82410002918BF10BD054951F82000D5
:1007E00003F058FCE083208210BD00007008002058
:1007F0009806002010B5044600EB440000EB0412FC
:100800001248002100EB4202114811605160D16092
:100810001161D183C2F81610C2F81A10118450F871
:10082000240002F0B4FB0B48002150F8240002F031
:10083000AEFB094850F8240003F05AFC074850F872
:100840002400BDE8104002F02DBD0000700800201B
:10085000A0060020A406002098060020BC06002068
:100860007047000010B490F83C20012A02BF02201B
:1008700010BC7047012280F83C200A680723D0F89A
:1008800000C0092A18D9DCF80C400A3A02EB4202EF
:1008900003FA02F224EA0202CCF80C200B788A68F0
:1008A0000A3B03EB430302FA03F30268D2F80CC0DD
:1008B00043EA0C03D36015E0DCF8104002EB42027F
:1008C00003FA02F224EA0202CCF810200B788A68BC
:1008D00003EB430302FA03F30268D2F810C043EAC1
:1008E0000C0313610268936B23F440139363026853
:1008F000936BB1F810C05B4C04EB0C5C43EA0C0347
:1009000093630A790B7CD21AD21C02EB82021F235A
:1009100093400268D2F838C02CEA030393630A7943
:100920000B7CD21A0B88D21C02EB82029BB2934042
:100930000268D2F838C043EA0C0393638A696FF403
:100940007023DA420268936823F47023936002688C
:10095000936808BF23F440130FD0D1F818C043EABE
:100960000C0393600268936823F440139360026859
:100970009368D1F81CC043EA0C0393604A7D002AB7
:100980000268536814BF43F4806323F480635360A8
:100990000A7D002A0268536814BF43F4805323F48D
:1009A000805353604A68012A1BD0022A26D0032AAA
:1009B000026830D0136A6FF30B0313620268136A84
:1009C000D1F80CC043EA0C031362284BD0F800C0E6
:1009D000254A9C4504BFD1F800C0BCF1120F2CD1B0
:1009E00025E0026853696FF30B0353610268536992
:1009F000D1F80CC043EA0C035361E6E7026893693F
:100A00006FF30B03936102689369D1F80CC043EA5A
:100A10000C039361D9E7D3696FF30B03D3610268C9
:100A2000D369D1F80CC043EA0C03D361CDE7D2F807
:100A300004C04CF4800CC2F804C0D0F800C09C453F
:100A400008D10968102918BF112903D1516841F450
:100A5000000151604FF0000180F83C1010BC0846C6
:100A6000704700000000F0FF00230140002001401B
:100A700030B482B04FF0000CCDF804C090F83C20A8
:100A8000012A01BF022002B030BC7047012280F869
:100A90003C200A6807230468092A14D9E5680A3A41
:100AA00002EB420203FA02F225EA0202E2600B784C
:100AB0008A680A3B03EB430302FA03F30268D46833
:100AC0002343D36011E0256902EB420203FA02F2EC
:100AD00025EA020222610B788A6803EB430302FADB
:100AE00003F302681469234313614A681F23072A2A
:100AF00016D20468656B521E02EB820203FA02F200
:100B000025EA020262630B790A885B1E92B203EB4C
:100B1000830302FA03F30268546B234353632DE00B
:100B200004680D2A15D2256BD21F02EB820203FA4C
:100B300002F225EA020222630B790A88DB1F92B2D5
:100B400003EB830302FA03F30268146B234313637A
:100B500014E0E56A0D3A02EB820203FA02F225EA9A
:100B60000202E2620B790A880D3B92B203EB830327
:100B700002FA03F30268D46A2343D362254B046864
:100B8000234A9C4204BF0C68122C03D1546844F4DD
:100B90008004546004689C422FD10B68102B18BF4E
:100BA000112B2AD1536843F40003536009681029BC
:100BB00023D11949194A0968B1FBF2F101EB81010E
:100BC00049000191009118D0B1F1004F1BD20029CA
:100BD000D8BF002105DD11F0010102D0019A521E9B
:100BE0000192009A491C521C914206DA019B891C11
:100BF0005B1E5B1E01939142F8DB80F83CC002B0A3
:100C0000002030BC70470199491E0191FCD1F4E7E6
:100C10000023014000200140F406002040420F0064
:100C200070B504004FF0000504BF012070BD206CBA
:100C3000002628B9204600F0ADF8666484F83C60D0
:100C4000206C10F0100F18BF012503D084F83C6011
:100C5000284670BD206C20F4885040F002002064CB
:100C60004948416821F4403141604168626811435C
:100C700041602068416821F48071416020684168CA
:100C8000226941EA022141602068416821F04071F7
:100C9000416020684168A268114341602068816812
:100CA00021F40061816020688168E26811438160FD
:100CB000A06A6FF07061C8422068816821F070619D
:100CC00081602068816808BF21F040510BD0A26A82
:100CD000114381602068816821F040518160206863
:100CE0008168E26A114381602068816821F0020115
:100CF000816020688168227E41EA4201816094F827
:100D0000200000282068416808BF21F400610ED04F
:100D100041F4006141602068416821F46041416014
:100D200020684168194B626A03EB4232114341600B
:100D30002068C16A21F47001C1622068C16AA28B77
:100D4000134B03EB02521143C1622068816821F406
:100D5000007181602068816894F8302041EA422166
:100D600081602068816821F48061816020688168E9
:100D7000626941EA822181606664206C20F0020091
:100D800040F00100206461E70023014000E0FFFF24
:100D90000000F0FF2DE9F04186B00024009401949A
:100DA0000294039404940268384839490325402684
:100DB000384FDFF8E480A2F18043B3F590332DD0B3
:100DC000364B9A421CBF06B0BDE8F081026842F47F
:100DD00000720260006800F400700590086840F03E
:100DE00001000860086800F001000590086840F004
:100DF000020008600868694600F002000590CDE92D
:100E00000065384600F0BCF80095CDE9015469460C
:100E1000404600F0B5F806B0BDE8F081026842F443
:100E200080720260006800F480700590086840F0ED
:100E300004000860086800F004000590086840F0AD
:100E400001000860086800F001000590086840F0A3
:100E5000020008600868694600F002000590092059
:100E6000CDE900050E4800F08BF80096CDE901545D
:100E70006946384600F084F80095CDE9015469468A
:100E8000404600F07DF806B0BDE8F08144380240ED
:100E900030380240000002400004024000210140BE
:100EA000000802404379012B04BF0220704730B490
:100EB0004FF0010C80F805C00223037103681C6821
:100EC00040F6FE759540AC43D1E90051294391406D
:100ED0002143196001680B68C02404FA02F223EA76
:100EE00002020A6080F804C00021417130BC08464B
:100EF0007047002804BF0120704770B50446007990
:100F0000002518B96571204600F008F8022020710C
:100F1000256101202071002070BD000000B587B060
:100F20000021009101910291039104910068A0F1C8
:100F30008041B1F5E8411CBF07B000BD0D48016814
:100F400041F000510160006800F0005005900A482F
:100F5000016841F0010101600068694600F001008C
:100F600005903020009003200190044800F008F81C
:100F700007B000BD40380240303802400000024057
:100F80002DE9F84F0022884EDFF820E201274FF0CC
:100F9000030A4FF00F0800BF0B6807FA02F4234062
:100FA000A34240F0FB80D1F804C0BCF1020F18BF8F
:100FB000BCF1120F15D14FEAD20C00EB8C0CDCF80F
:100FC00020504FEA42794FEAD96908FA09FB25EA2D
:100FD0000B05D1F810B00BFA09F949EA0505CCF870
:100FE0002050D0F800904FEA420C91F804B00AFA71
:100FF0000CF50BF0030B29EA05090BFA0CFB4BEA85
:101000000909C0F80090D1F80490B9F1010F18BF98
:10101000B9F1020F05D0B9F1110F18BFB9F1120FD4
:1010200018D1D0F80890D1F80CB029EA05090BFACC
:101030000CFB4BEA0909C0F80890D0F8049029EAA3
:10104000040491F80490C9F3001909FA02F949EA75
:1010500004044460C46824EA05048D6805FA0CFCA5
:101060004CEA040CC0F80CC0D1F804C01CF0805F3E
:101070007ED0D6F800C04CF4804CC6F800C0D6F83C
:1010800000C00CF4804CCDF800C022F0030C0CF131
:10109000804505F59835D5F808C84FEA82744FEABF
:1010A000147408FA04F92CEA090CA0F18049B9F586
:1010B000003938D0A0F18049B9F5013908BF4FF0A7
:1010C000010930D0A0F18049B9F5023908BF4FF0CD
:1010D000020928D0A0F18049B9F5033908BF4FF0C3
:1010E000030920D0A0F18049B9F5043908BF4FF0B9
:1010F000040918D0A0F18049B9F5053908BF4FF0AF
:10110000050910D0A0F18049B9F5063908BF4FF0A4
:10111000060908D0A0F18049B9F507390CBF4FF096
:1011200007094FF0080909FA04F444EA0C0CC5F861
:1011300008C8DEF800C04C682CEA030C14F4803FA9
:1011400018BF4CEA030CCEF800C0194CD4F800C00C
:101150004D682CEA030C15F4003F18BF4CEA030C51
:10116000C4F800C0134CD4F800C02CEA030C00E013
:1011700014E04D6815F4801F18BF4CEA030CC4F846
:1011800000C00D4CD4F800C04D682CEA030C15F4D7
:10119000001F18BF4CEA030CC4F800C0521C102AF0
:1011A000FFF4FAAEBDE8F88F44380240003C01403D
:1011B000043C0140083C01400C3C0140014880686F
:1011C00070470000E8060020024881680278114458
:1011D00081607047E80600200B4810B5016841F4B3
:1011E00000710160016841F480610160016841F4AF
:1011F00080710160032000F085F8042000F006F8FB
:1012000000F024F8002010BD003C024070B50D4DE8
:1012100004464FF47A712878B1FBF0F00A49096866
:10122000B1FBF0F000F066FB48B9102C07D20022A9
:101230002146501E00F034F800206C6070BD012083
:1012400070BD0000E8060020F40600200A4881B0C6
:10125000016841F480410160006800F48040009022
:101260000648016841F080510160006800F080503C
:10127000009001B0704700004438024040380240FE
:101280000028B8BF704700F01F01012202FA01F1E7
:101290004009800000F1E020C0F800117047000014
:1012A000174B10B41B68C3F30223C3F1070CBCF146
:1012B000040F88BF4FF0040C1C1D072C34BF002303
:1012C000DB1E012404FA0CFCACF1010C0CEA010158
:1012D000994004FA03F35B1E1A40114300284FEAB9
:1012E0000111A1BF00F1E02080F8001410BC70478C
:1012F00000F00F0000F1E02080F8141D10BC7047D2
:101300000CED00E0074900F007000A684FF6FF0304
:101310001A4042EA002040F0FD7040F08060086012
:10132000704700000CED00E0002804BF012070476A
:101330002DE9F0474D4E04460F46306801F0FF0896
:1013400000F00F00B84206D286F80080306800F046
:101350000F00B84261D12068454D10F0020F14D043
:1013600010F0040F03D0286840F4E0502860207883
:1013700010F0080F03D0286840F460402860286807
:10138000A16820F0F00008432860207810F0010FD9
:1013900037D060683749012823D0022818BF0328B6
:1013A000096823D011F0020F37D0296821F003011A
:1013B00041EA00002860FFF701FF81462868616864
:1013C00000F00C00B0EB810F18BF41F2883A18D042
:1013D000FFF7F4FEA0EB090050450BD90320BDE850
:1013E000F087096811F4003FDFD116E011F0007FAB
:1013F000DBD112E02868616800F00C00B0EB810FCF
:10140000E6D1306800F00F00B84209D986F80080B4
:10141000306800F00F00B84202D00120BDE8F0872C
:10142000207810F0040F05D02868E16820F4E0501F
:1014300008432860207810F0080F06D0286821693A
:1014400020F4604040EAC100286000F045F82968B7
:10145000094AC1F30311515CC840084908600420DF
:10146000FFF7D4FE0020BDE8F0870000003C0240FA
:101470000838024000380240BC650008F40600202D
:1014800001490120C86470470000474201480068D4
:1014900070470000F4060020044805490068096808
:1014A000044AC1F38221515CC8407047F406002011
:1014B00008380240CC6500080448054900680968FE
:1014C000044AC1F34231515CC8407047F406002021
:1014D00008380240CC6500081848006810F00C027B
:1014E000174808BF70471749042A04BF08467047C9
:1014F000082A18BF704710B5134C2268236802F001
:101500003F0213F4800F08D020680023C0F3881036
:10151000A0FB0101FEF756FE07E021680023C1F39E
:101520008811A1FB0001FEF74DFE2168C1F30141C6
:10153000491C4900B0FBF1F010BD00000838024022
:101540000024F40000127A0004380240002804BF8E
:10155000012070472DE9F84F04460078DA4D10F06D
:10156000010F59D0D948016801F00C0104290AD0B3
:10157000006800F00C0008280ED105F10400006896
:1015800010F4800F08D0286810F4003F44D0606841
:10159000002800F096813FE06068B0F5803F19D0E8
:1015A000B0F5A02F28680CBF40F4802020F48030D4
:1015B000286028680CBF40F4803020F48020286028
:1015C0006068B8B1FFF7FAFD0646286810F4003FDE
:1015D00005D021E0286840F480302860F0E7FFF76C
:1015E000EDFD801B642800F22A81286810F4003F7A
:1015F000F5D011E0FFF7E2FD0646286810F4003F41
:101600000AD000BFFFF7DAFD801B642800F21781C3
:10161000286810F4003FF5D12078AD4F10F0020F8C
:101620004FF0000847D0A948016811F00C0F16D000
:10163000006800F00C00082804D1A648006810F4E7
:10164000800F0CD0E06820B34FF001003860FFF746
:10165000B5FD0646286810F0020F09D011E0286891
:1016600010F0020F1CBFE06801280AD000F029B971
:10167000FFF7A4FD801B02287ED8286810F0020F17
:10168000F6D02868216920F0F80040EAC1002860FF
:1016900011E0C7F80080FFF791FD0646286810F0BA
:1016A000020F08D0FFF78AFD801B022864D8286843
:1016B00010F0020FF6D1207810F0080F2AD08648DB
:1016C000864E616999B101210160FFF777FD81467E
:1016D000306810F0020F1DD1FFF770FDA0EB09007C
:1016E000022849D8306810F0020FF5D012E0C0F897
:1016F0000080FFF763FD8146306810F0020F09D0CB
:10170000FFF75CFDA0EB0900022835D8306810F027
:10171000020FF5D1207810F0040F77D070484FF009
:10172000000B006810F0805F0AD16D48016841F03D
:101730008051016000684FF0010B00F08050009074
:10174000684E306810F4807F14D1306840F48070A7
:101750003060FFF733FD8146306810F4807F09D197
:10176000FFF72CFDA0EB0900022868D8306810F4C0
:10177000807FF5D05C4E00E061E0A06801281BD0BE
:10178000052830680CBF40F0040020F001003060F4
:1017900030680CBF40F0010020F00400C6F80000E3
:1017A000A06841F2883AB8B1FFF708FD8146306879
:1017B00010F0020F05D021E0306840F001003060E9
:1017C000EEE7FFF7FBFCA0EB0900504537D8306887
:1017D00010F0020FF5D011E0FFF7F0FC8146306801
:1017E00010F0020F0AD000BFFFF7E8FCA0EB0900E1
:1017F000504524D8306810F0020FF5D1BBF1000F2E
:1018000004D03748016821F080510160A069E8B335
:101810002E49096801F00C01082952D00228C7F8A6
:1018200060800FD0FFF7CAFC0446286810F0007FE4
:1018300044D000BFFFF7C2FC001B02283AD90320A6
:10184000BDE8F88FFFF7BAFC0646286810F0007F65
:1018500009D000BFFFF7B2FC801B0228EFD8286830
:1018600010F0007FF6D1D4E907010843A16A1F4AAE
:10187000490802EB0141626A41EA8211084394F887
:101880002C1040EA01611348016000E016E00120DD
:101890003866FFF793FC0446286810F0007F0DD1EE
:1018A000FFF78CFC001B0228C9D8286810F0007FC5
:1018B000F6D003E0286810F0007FBBD10020BDE81F
:1018C000F88F0120BDE8F88F003802400838024048
:1018D0000000474204380240800E474274380240FC
:1018E0004038024000700040703802400000FFFFA6
:1018F00070470000411EB1F1807F24BF0120704776
:101900004FF0E0204161054AF02182F8141D0021CA
:101910008161072101610020704700000FE000E0B5
:1019200010B5FFF7E5FF10BD90F83C20012A04BF79
:1019300002207047012280F83C20CA688B6822F49C
:1019400040721A434B6822F480621A430B6822F4F7
:1019500000621A430B6922F480521A434B6922F445
:1019600000521A43C96922F480421143026851644B
:10197000002180F83C100846704790F83C20012A6E
:1019800004BF0220704730B4012380F83C300222AB
:1019900080F83D2002685468D2F808C00D6824F031
:1019A000700449682C432CF0800C41EA0C0154600F
:1019B0000268916080F83D30002180F83C1030BC16
:1019C00008467047002804BF0120704710B5044640
:1019D00090F83D0028B9002084F83C00204600F033
:1019E0000DF8022084F83D00211D206802F064FFFC
:1019F000012084F83D00002010BD0000006881B087
:101A0000A0F18041B1F582311CBF01B0704705489B
:101A1000016841F002010160006800F002000090DE
:101A200001B0704744380240002804BF01207047CD
:101A300070B5044690F83D000D4628B9002084F8A2
:101A40003C00204600F048F8022084F83D00206861
:101A5000816821F0070121F480418160211D206807
:101A600002F02AFF206883688269016AD5F800C005
:101A700022F00302AE694CEA030322F4407242EA08
:101A80000622D5F808C0EE694CEA020222F0FC02F8
:101A900022F47C42D5F80CC042EA06224CEA02024B
:101AA000D5F810C02E6A4FEA0C1C4CEA063C4CEAF2
:101AB0000202D5F804C06D6921F0AA0141EA0511BE
:101AC0004CEA010183602068826120680162012084
:101AD00084F83D00002070BD70B586B000240094ED
:101AE00001940294039404940068B0F1804F1CBFE9
:101AF00006B070BD1848016841F00101016000683E
:101B000000F0010005901548016841F001010160F5
:101B1000016801F001010591016841F002010160D5
:101B20000068022500F0020005904FF40040CDE966
:101B300000050126694604960948FFF721FA0820A6
:101B40000090CDE90154CDE9034669460548FFF709
:101B500017FA06B070BD000040380240303802402D
:101B6000000002400004024030B587B0002100911F
:101B700001910291039104910068A0F18041B1F5B7
:101B800082311CBF07B030BD1448016841F08001AC
:101B90000160016801F080010591016841F48071E4
:101BA00001600068022400F4807005904FF46040EA
:101BB000CDE900040325029469460948CDE90345AF
:101BC000FFF7DEF9E020CDE90004029469460548FC
:101BD000CDE90345FFF7D4F907B030BD30380240F6
:101BE000001C02400020024090F83C30012B04BF52
:101BF000022070472DE9F001012480F83C400223C7
:101C000080F83D308A4BDFF82CC242B1042A49D01B
:101C1000082A7DD00C2A00F0CE8000F0FFB80268C0
:101C2000156A25F001051562156A56689769D1F89D
:101C3000008027F0730748EA0707D1F8088025F0ED
:101C4000020548EA05059A4218BF624507D1D1F856
:101C50000C8025F0080548EA050525F004059A42A0
:101C600018BF624509D1D1F814C026F440734CEA7C
:101C70000303D1F818C04CEA0306566097614B681D
:101C8000536315620268936943F008039361026825
:101C9000936923F00403936102689369096943EA35
:101CA000010143E00268156A25F010051562156A06
:101CB00056689769D1F8008027F4E64747EA082775
:101CC000D1F8088025F0200545EA08159A4218BF8A
:101CD000624507D1D1F80C8025F0800545EA08154A
:101CE00025F040059A4218BF624509D1D1F814C0C9
:101CF00026F4406343EA8C03D1F818C043EA8C060B
:101D0000566097614B68936315620268936900E0BF
:101D10000EE043F4006393610268936923F48063E7
:101D2000936102689369096943EA0121916175E051
:101D30000268156A25F480751562166A5568D769B8
:101D4000D1F8008027F0730748EA0707D1F8088028
:101D500026F4007646EA08269A4218BF624507D163
:101D6000D1F80C8026F4006646EA082626F4806640
:101D70009A4218BF624509D1D1F814C025F44053E6
:101D800043EA0C13D1F818C043EA0C155560D7612B
:101D90004B68D36316620268D36943F00803D361CA
:101DA0000268D36923F00403D3610268D369096927
:101DB00043EA010131E00268156A25F48055156295
:101DC000176A5568D669D1F8008026F4E64646EAD7
:101DD0000826D1F8088027F4005747EA08379A42C6
:101DE00018BF624505D1D1F814C025F4804343EAF9
:101DF0008C155560D6614B68136417620268D3690D
:101E000043F40063D3610268D36923F48063D36130
:101E10000268D369096943EA0121D16180F83D4034
:101E20004FF0000180F83C10BDE8F0010846704713
:101E30000000014000040140002804BF0120704759
:101E400010B5044690F83D0028B9002084F83C0005
:101E5000204600F00CF8022084F83D00211D206887
:101E600002F02AFD012084F83D00002010BD7047DB
:101E700070B5044690F83C00012804BF022070BDF4
:101E8000012584F83C50022084F83D00204602F0F1
:101E900079FD01004FF0000005D084F83D5084F832
:101EA0003C00012070BD2168CA6822F04002CA606F
:101EB0002168CA6822F48042CA6084F83D5084F8E0
:101EC0003C00002070BD002804BF0120704770B5A1
:101ED000044690F83900002520B984F8385020468F
:101EE00000F022F8242084F839002068C16821F429
:101EF0000051C160204602F0E5FF2068016921F42D
:101F0000904101612068416921F02A014161206806
:101F1000C16841F40051C160E563202084F83900B4
:101F200084F83A00002070BD00B587B00021009110
:101F300001910291039104910068A0F18041B1F5F3
:101F400088311CBF07B000BD0E48016841F0100188
:101F50000160006800F0100005900B48016841F036
:101F6000020101600068694600F002000590C0208F
:101F7000009002200190072004900448FFF700F829
:101F800007B000BD4438024030380240000402402F
:101F900082B002F071FD184CD4F82001006810F0F6
:101FA000080F0AD0144803F033F9D4F8200101686F
:101FB00000914068009003F0E1FCD4F82001006833
:101FC00010F0800F1CBF0C4803F0CBF9D4F82001AF
:101FD000016811F0200FDFD04068C1B2064803F05D
:101FE00021F90088012804D0022808BF03F0C6FCAC
:101FF000D2E703F0BDFCCFE750050020012908BF60
:10200000002115D0042908BF012111D0102908BFD3
:1020100002210DD0402908BF032109D0B1F5807FEE
:1020200008BF042104D0B1F5806F0CBF0521062143
:10203000084B18305B5C1844D0F800C0064B595C64
:1020400073238B402CEA030302FA01F11943016068
:1020500070470000E2650008E965000810B5044615
:10206000406802F09EF8A168086110BD0068012177
:1020700002F001B9002808BF704710B50446007F80
:10208000012818BF10BD217C0020012904D002299D
:1020900010D003291ED026E0A16881F82400012178
:1020A000606802F0ACF8628BB4F91210606802F05C
:1020B00027F80CE0A16881F824000021606802F094
:1020C0009EF8628BB4F91410606802F019F850B1F0
:1020D000022009E0A168012081F82400A068D4F85A
:1020E00016100161F4E70320207710BD70B5044697
:1020F0002DED028B00258068B0EE608AF0EE408AFC
:1021000080F82450606802F062F801F087FF00EE6A
:10211000100A9FED0E1AB5EEC08AF8EEC00A80EEE6
:10212000810AF1EE10FA07DD78EEC00AB0EE481A27
:10213000E06802F061FA04E0B0EE680AE06802F0DC
:10214000D5F96577BDEC028B70BD000083F922469E
:10215000012303744182428303774377704702234C
:102160000374818242830121017700214177704706
:10217000006802F04EB810B5406802F028F8BDE8DB
:10218000104001F042BF407F704780680068704790
:102190008068406870478068C068704780680069E0
:1021A0007047027C0021012A08BFB0F912100846CE
:1021B0007047406801F0FFBF006802F055B88068C2
:1021C000B0F91E0070478068D0F81A007047806828
:1021D000D0F816007047DDF800C080E80E1000212E
:1021E0000174418281824183017770470322027426
:1021F000C1820914018301210177002141777047D1
:102200008268518280688182704710B504460068F8
:10221000032102F030F800281CBF0121217710BDF6
:102220000068072102F027B8406801F0EEBF000007
:10223000014661F30F0044F6E61211FB02F244F688
:10224000E61311FB23F10A4411444942C913B1F5C5
:10225000004FA8BF47F6FF7104DA11F5004FB4BF75
:10226000054909B261F31F4011F5004F04BF48F260
:10227000010161F31F4070470080FFFF70B5054604
:10228000084600F059F82AB203B212FB03F14FEAF4
:10229000254C05141CFB05F0081AC0131649B0F5AF
:1022A000004FA8BF47F6FF7004DA10F5004FB4BF27
:1022B000084600B260F30F04104E10F5004F08BF3F
:1022C00066F30F0412FB05F01CFB03F21044C0136D
:1022D000B0F5004FA8BF47F6FF7103DA10F5004FC5
:1022E000A8BF01B2204661F31F4011F5004F08BF9F
:1022F00066F31F4070BD00000080FFFF0180FFFFFC
:1023000010B50446084600F017F814FB00F122143B
:10231000031412FB03FC61444FEAE13C29466CF3D1
:102320000F0114FB03F312FB00F0C01AC01360F39B
:102330001F41084610BD000000F50041890911F455
:10234000407C00F50041C1F387121749C2F1FF0339
:1023500019D0BCF5807F1FD0BCF5007F0AD0BCF53A
:10236000407F18BF704731F8133031F8121063F313
:102370001F400FE031F8122031F8131062F31F40B4
:1023800061F30F00704731F8122031F813105242F8
:1023900062F31F404942F3E731F8133031F812106D
:1023A0005B4263F31F40EBE726630008F8B58C46F9
:1023B0000446DDE90710069FC4F830C0C4E93001C7
:1023C00008481E4615460090074B084A21466046BD
:1023D000FEF7EEF9E763C4E90D56204600F0B0FBC6
:1023E000F8BD0000F1230008F9230008392B00088C
:1023F00010B500F0A5FB10BD2DE9F04105468CB0ED
:102400000020984614460E468DF804004F0912D05D
:102410007A1E0021284603F0C9FA002808BF0B20C5
:1024200000F05082D5F8C40006F01F0618B17A1EDD
:10243000002103F0BBFA132E80F06683DFE806F07C
:10244000BE0AABBDBCBCBBBAB9B8B7B6B5B4BCBCB0
:10245000BCBCB300267805208DF80800472E6FD04D
:1024600028DC0F2E7DD00BDC0F2E6AD2DFE806F0C1
:102470005591916291797979797979797979790038
:10248000172E6ED009DCA6F11000072859D2DFE81C
:1024900000F071718080686868001D2E59D004DCDE
:1024A000182E5ED01C2E4DD073E0412E59D0462EF2
:1024B00060D06EE0652E54D01EDC572E51D00EDC5D
:1024C000542E4ED006DC482E54D04F2E18BF532E1B
:1024D00047D05EE0552E18BF562E5AD141E05B2EF4
:1024E00048D004DC582E18BF592E52D139E0612E45
:1024F00018BF642E4DD134E0A6F17400152848D2DF
:10250000DFE800F018383838383847474738384758
:102510004747474747472F2F2F00647831462246C9
:10252000D5F8C40003F042FA22463146284603F0AB
:102530003DFA14E262783146284603F037FA0EE29B
:1025400018E026E062780021D5F8C40003F029FAEB
:1025500084E162780121D5F8C40003F022FA012059
:10256000FDE16078A17800EB01223146284603F0B6
:102570001DFAF4E16078A178227900EB0120E1787E
:10258000090401EB026142183146284603F00EFAB5
:10259000E5E1022096E1217803208DF808008929E1
:1025A00080F08F810BE0DDE1F8E18EE276E264E21B
:1025B0003BE207E2C1E191E1A6E287E134E2880073
:1025C000784440688744000024020000BE020000F6
:1025D0002402000024020000BE0200009802000055
:1025E0009802000098020000980200009802000083
:1025F0009802000098020000980200009802000073
:102600009802000098020000980200009802000062
:102610009802000098020000980200009802000052
:102620009802000098020000980200009802000042
:1026300098020000980200004802000074020000A6
:10264000BE020000980200009802000098020000FC
:1026500024020000FA020000FA020000FA02000060
:10266000FA020000FA020000FA020000FA0200007A
:10267000FA020000FA020000FA020000FA0200006A
:10268000FA020000FA020000FA020000FA0200005A
:10269000FA020000FA020000FA020000FA0200004A
:1026A000FA020000FA020000FA020000FA0200003A
:1026B000FA020000FA020000FA020000FA0200002A
:1026C000FA020000FA020000FA020000980200007C
:1026D000FA020000FA020000FA020000FA0200000A
:1026E000BE020000BE020000BE0200009802000010
:1026F00098020000980200009802000024020000E6
:10270000BE0200009802000098020000980200003B
:102710009802000098020000980200009802000051
:102720009802000098020000980200009802000041
:1027300024020000BE020000FA020000980200001D
:102740009802000098020000980200009802000021
:10275000FA020000FA02000098020000980200004D
:102760002402000024020000BE020000BE0200009D
:10277000BE020000BE020000BE02000024020000F3
:102780009802000098020000BE020000FA02000059
:10279000980200009802000024020000BE0200001F
:1027A000BE020000BE020000BE020000BE02000029
:1027B000BE020000BE020000BE020000BE02000019
:1027C000BE020000BE02000024020000FA02000067
:1027D00024020000E4020000E4020000E402000021
:1027E00098020000980200009802000001AA284602
:1027F00002F072FE00909DF80400002800F08F8126
:10280000D5E90C0C01236A46F02100F05AB900BF4B
:10281000D5F8C400002800F07981002102F052FEB2
:102820008DF80000D5E90C0C01236A46F021E04741
:1028300001208DF804000CB0BDE8F081D5F8C4008B
:10284000002800F06381012102F03CFE8DF80000B9
:10285000D5E90C0C01236A46F021E04701207EE017
:1028600001AA284602F038FE00909DF804000028D6
:1028700000F05581D5E90C0C02236A46F021E047AF
:102880000CB0BDE8F08101AA284602F025FE0090B8
:102890009DF80400002800F04281D5E90C0C0423C7
:1028A0006A46F021E0470CB0BDE8F08101AA284655
:1028B00002F012FE00909DF804000028EDD100F017
:1028C0002EB903208DF8080000F020B921780720E8
:1028D0008DF80800284602F091FD40E0002004AA8F
:1028E00001461154401CC0B22028FAD3002005E054
:1028F0001318401CC0B2D9701D2804D2D5F8C010DE
:10290000095C0929F4D1D5F8C010421D20238A5C46
:102910008DF81020C21D0930895C8DF81110D5F892
:10292000C01004AA085C8DF81200D5E90C0CF02147
:10293000E04701208DF80400EBE020796179E3782D
:1029400000EB012082B22078617800EB0120A178B1
:10295000090401EB03610144284602F091FD8DF862
:102960000400D3E020786178E27800EB0120A178C0
:10297000E379090401EB026108442179627900EEF0
:10298000100A01EB0221A2792846120402EB03622D
:10299000114400EE901A02F068FDE0E720796179B9
:1029A000E37800EB012082B22078617800EB01200F
:1029B000A178090401EB0361084401B2284602F042
:1029C00077FDCCE706A80090217807AB03AA28463C
:1029D00002F06EFFBDF91C005449C0EB00108000EE
:1029E00081FB00108110A1EBE0708DF81000010A4E
:1029F0008DF81110010C8DF81210000E8DF81300D7
:102A0000BDF818008DF81400000A8DF81500BDF807
:102A10000C008DF81600000A8DF81700D5E90C0C93
:102A2000082304AAF021E04770E0E079227AA37835
:102A300000EB022082B26078217800EB0323E0787B
:102A40004FEA004C20790CEB0060184400EB80004A
:102A5000DFF8DCC040000023CCFB00304311A3EBC7
:102A6000E07003B2607994F806C000EB0C2000B26D
:102A70000090284603F05AF871E720786178E278F0
:102A800000EB012001B2A07800EB022002B2284640
:102A900002F07AFF01208DF804003AE00C208DF856
:102AA000080004948DF81480224904A802F012FD55
:102AB0008DF8040050B31F48F02103790268D5E96E
:102AC0000C0CE0470CB0BDE8F081002004AA04E043
:102AD0001154401CC0B220280DD2D5F8C010095C9A
:102AE0000029F5D1202838BF002104D21154401C00
:102AF000C0B22028FAD3D5E90C0C2023F021E047FE
:102B000001208DF8040004E00120DBE69DF80400BC
:102B100028B10023D5E90C0C1A46F021D1E7D5E9FC
:102B20000C0C012302AAFF21CBE700006766666652
:102B3000898888880C00002010B500F001F810BDCD
:102B400010B50446006BE16B8847802084F8C8000C
:102B5000A16B206BBDE810400847000001480068E9
:102B6000FFF72ABB0400002001480068FFF7BEBA47
:102B70000400002006480078002808BF704710B500
:102B800000F008F802F022F9BDE8104002F0D0BED3
:102B90008C06002010B50E4C2078012818BF10BDFF
:102BA000608800281CBF6088401E02D101F0DAFF57
:102BB00013206080A08810B1A088401EA080E0880B
:102BC000002808BF10BDE088401EE08010BD000056
:102BD0008C06002001480068FFF717BB04000020A6
:102BE00001480068FFF71CBB040000202DE9F34FEB
:102BF00081B0644801F03AFB634E002406F13801CD
:102C0000347062480860A1F108096148C9F8000001
:102C100000F0E0FC03F012FB5E4800F0AEF906F1B4
:102C2000100B5C48CBF8000006F10C055A482860F0
:102C30005A48FDF70DFD594B594A5A482968FDF786
:102C40000FFC05F110015748086001F10C075648C8
:102C5000386000F092F905F118085448C8F80000EF
:102C60004E4B4D4A396801F091FCDBF800104B4A9D
:102C7000286801F0B4FA4A4803F01DF84C4800F007
:102C80007CF94C4800F079F905F1080048490160E9
:102C9000001D484901604848306201F0ABF905F178
:102CA000280146480860316A454FC0E943714548EC
:102CB00000F012F905F120004249016005F13001F0
:102CC0004148086001F010F90020FDF793FD4FF036
:102CD000010A87F824A0286801F063FA386128689F
:102CE00001F05FFA0014B88207F128002F1FA0F14D
:102CF00028033860D8F80010009105F134012A68E3
:102D0000FFF769FA286801F05CFA3B680146002287
:102D10001846FFF71DFA0198396801602B48DBF867
:102D20000010016005F108010968416005F10C011E
:102D30000968C0E90214D9F80010C0E90414174961
:102D4000C0E9061404622968416205F13401816218
:102D500014390968C162316AC0E90C1405F128010F
:102D600084630968C0E90F144464D8F80010C0E90E
:102D7000121404650299086086F800A003B0BDE84B
:102D8000F08F0000CC0600208C0600209C04002060
:102D90007C0200202801002048020020300300208F
:102DA000F8020020AC030020AC010020D801002074
:102DB0005401002080010020F003002014000020B6
:102DC00070080020C803002084040020B8080020F8
:102DD000B0F80031002220F81310B0F80031A0F84C
:102DE00002315B1C9BB2A0F80031802B24BF002372
:102DF000A0F800315FF0000330F913C05B1C9BB2F8
:102E00006244802BF8D3D31702EB5362D211A0F89F
:102E100004210846704700210A4620F81120491C69
:102E200089B28029F9D3A0F80021A0F802217047C7
:102E3000B0F904017047000008B5FEF727FB4FF416
:102E4000FA61B0FBF1F0FEF755FD0749081FFFF7E7
:102E5000CDFE03F073F9044B04481A1F00900121C2
:102E6000101F02F07FFE08BD08000020026300086A
:102E700010B504460078002818BF002012D194F83D
:102E8000260000F04DFFA0F57F41FF3907D0218BD0
:102E9000238A4A1E03FB0200B0FBF1F02082204689
:102EA00000F02CF8E08280B210BD00210182704752
:102EB0000178002918BF808A01D000B27047018ACA
:102EC000026A891AB0F91E20808C5143CA1701EB9F
:102ED000124100EB2140F0E710B50446007820B124
:102EE0000020E082608A208210BD201D00F07AFF61
:102EF00084F826002046FFF7D8FF10BD018A428BD8
:102F0000914284BF08207047828B8A428CBF002088
:102F1000C08A704770B5114D04462960B0F922008F
:102F2000A8B1A26A8A1A504394F82620A16240FAF6
:102F300002F6204600F034F8B4F91410304481420F
:102F400003DBB4F91610814204DD084602E0204696
:102F500000F026F8686000B270BD0000080A00208A
:102F6000B0F922007047B0F906007047408B7047F7
:102F7000B0F904007047008B704701888180418858
:102F8000C180018C41840021816081627047816031
:102F9000704741847047C18070478180704700004E
:102FA00070B4B0F90420002402FB01F6B0F9062049
:102FB000B0F914C0B0F91630002A04BF00218160B6
:102FC00014D085684A43A91805D5002DC4BF002A2E
:102FD0006FF0004103E0002DBCBF002A0F49C2681A
:102FE0008A42A5BF0269914282608160827F8168C6
:102FF000057F41FA02F246FA05F52A446245C4BF4C
:10300000ACEB0204624603DC9342C4BF9C1A1A462E
:103010002144816070BC10B2704700000100008044
:1030200070B5D0F80C110446C868D1F8161010FB22
:1030300001F210FB3121C81701EB10400514D4F840
:10304000100102F01DFED4F8081148434FF4167128
:1030500090FBF1F0684300EB40000849400081FB21
:1030600000108110A1EBE071C81701EB10400114B2
:103070002046BDE87040FFF7ABBE0000676666669D
:10308000C169084770B50446002511B1012908D06F
:1030900017E000F007F9B4F85200A4F8440080B932
:1030A0000BE0B4F84400002808BF012509D0401EF9
:1030B0000004000CA4F8440003D12169204688478D
:1030C0000125284670BD4268104730B4038E0AB20D
:1030D00053430A14B0F850104A435200524202EBD4
:1030E000030CA2EB03030CEBDC7C03EBD3735FEA72
:1030F0006C0C4FEA63034FEA910153D5002B18DAA9
:10310000042280F83A20ACEB0302D41702EB94328D
:1031100001EBA241DA1703EBD23201EB62434FEA33
:10312000EC720CEBD232A1EB624CA0F83CC0C18730
:103130006CE0002A1BDC4FF0030C80F83AC0A2EBD5
:10314000030C4FEAEC740CEB943C01EBAC414FEAFE
:10315000E37C03EBDC334FEAE27C01EB634302EBFD
:10316000DC32A3EB624CA0F83CC0C38717E002231B
:1031700080F83A30ACEB0203DC1703EB943301EB3D
:10318000A3414FEAEC730CEBD333A1EB634CD317A1
:1031900002EBD3320CEB62438387A0F83EC0A0F869
:1031A000401052E0002B17DB012280F83A20ACEBF4
:1031B0000302D41702EB943201EBA241DA1703EBBE
:1031C000D23201EB62434FEAEC720CEBD2328387CE
:1031D000A1EB624CC18736E0002A1ADC052380F897
:1031E0003A30ACEB0203DC1703EB943301EBA34161
:1031F0004FEAEC730CEBD333A1EB634CD31702EB28
:10320000D33281870CEB6243A0F83EC0A0F8403077
:103210001BE04FF0000C80F83AC0A2EB030C4FEA21
:10322000EC740CEB943C01EBAC414FEAE37C03EB18
:10323000DC3301EB63434FEAE27C02EBDC32818753
:10324000A3EB624CC387A0F840C089B29AB2418612
:1032500082861FFA8CF3C386B0F84EC0BCF1010F12
:1032600002D0816930BC0847B0F948C0BCF1000FFA
:10327000B0F854C0CCBF6144A1EB0C014186B0F959
:103280004A1000291FFA8CF1CCBF1144511A8186D3
:10329000B0F94C1000291FFA8CF1CCBF1944591A0F
:1032A000C186DEE781680847816F91F88F20022A86
:1032B0000DD1CA68098B09049161826F1169928BE3
:1032C00012048A61816F4A69098C090491610121A4
:1032D00080F87410463070472DE9F0470446806F3F
:1032E00000278568E7652766676684F87370286A33
:1032F00020F0550020F4A0602862404961604049F8
:103300000326A16184F87260204684F83A6000F0D8
:103310000AFCA06F04F1730304F1380190F88E20C9
:10332000284602F0BBFF204600F0D4FB84F87370FF
:103330003449616084F87270204684F83A7000F075
:10334000F2FBA06F04F1730304F1380190F88E20B2
:10335000284602F0A3FF204600F0BCFBE06D2C4B9A
:10336000C108E165206E05F11809C1082166606E8B
:10337000C1086166244961602449A161187800EBA5
:1033800009021168D81D4FF0080890F800C008FA2B
:103390000CFC21EA0C01116099784944D1F800A095
:1033A000877808FA07F72AEA070AC1F800A01B790C
:1033B0004B44D3F80090007908FA00F829EA080095
:1033C0001860B4F870006863B4F87000A863B4F8CB
:1033D0007000E863106840EA0C0010600868384329
:1033E0000860186840EA0800186084F83A60296AA2
:1033F00040F2555008432862BDE8F0874135000887
:103400000B3A000897350008153400084F3A0008B9
:10341000E265000870B4826F9268136A23F48053E7
:10342000136290F83AC02422836F02EB8C029A5800
:1034300014684FF6FF7202EA44053C2404EB8C0446
:103440001B591B6802EA43043C4A530CBCF1060FAB
:1034500066D2DFE80CF01D414103031DD0F85CC0CB
:10346000ACEB050C1CF5004FD8BF0A8005DDBCF5A0
:10347000004FACBF0B80A1F800C0D0F860C0ACEB2F
:10348000040C1CF5004F47DDBCF5004F3FDA45E06A
:10349000D0F860C0ACEB050C1CF5004FD8BF4A80DB
:1034A00005DDBCF5004FACBF4B80A1F802C0D0F8E1
:1034B00064C0ACEB040CB1F90240A444CCF1000CA4
:1034C000BCF5004FA8BF0B802ADA1CF5004FD4BF13
:1034D0000A80A1F800C023E0D0F85CC0ACEB050C7A
:1034E0001CF5004FD8BF0A8005DDBCF5004FACBF0E
:1034F0000B80A1F800C0D0F864C0ACEB040CB1F9AB
:103500000040A444CCF1000CBCF5004F01DB4B8023
:1035100006E01CF5004F01DC4A8001E0A1F802C082
:103520000A88A0F848204A88A0F84A200A884988D2
:1035300011444942A0F84C1070BC70470180FFFF55
:10354000826F9268136A23F48053136290F8732099
:10355000102A1CD290F872304FF0240C826F0CEBC2
:103560008303D2581268C36D4FF03C0C1A44C265F5
:1035700090F87230826F0CEB8303D2581268036E9E
:103580001A44026690F87320521C80F873200020C1
:10359000088048807047826F9268136A23F48053D2
:1035A000136290F87320102A10D290F872304FF006
:1035B0003C0C826F0CEB8303D2581268436E1A44A2
:1035C000426690F87320521C80F873200020088017
:1035D0004880704730B4836F9968D3E90023D1F8ED
:1035E00000C02CF0010CC1F800C0D0F878C09CF8E5
:1035F00090C0BCF1000F09D06FF0800CC1F810C072
:10360000D1F80CC04CF0800CC1F80CC0D1F814C03B
:103610004CF0010CC1F814C0D0F878C09CF88C4074
:10362000022C05D090F846C0BCF1000F17D01CE06A
:103630009CF88D40012C04BF9CF88EC0BCF1030F98
:103640000DD14FF0010CC1F830C0D1F814C04CF0CE
:10365000010CC1F814C04FF0030CC1F830C0B0F831
:1036600070C0ACF1010CC1F824C0DFF86CC0A1F14E
:1036700080454FF48014DCF80C10B5F580350CBF94
:1036800041F0010141F00201CCF80C100EBF84663C
:103690004FF4F0118166916841F0010191609968E1
:1036A00041F0010199606FF004011160516841F02F
:1036B00080015160D16A21F47001D162916B21F4D3
:1036C00040119163996B21F4401199630021C46604
:1036D000A0F84E1030BC7047002004E090F8742031
:1036E0000021012A03D14021002280F874200846DD
:1036F0007047000070B50546806F846895F84700F4
:10370000012818BF70BD602201212046FEF776FC1B
:10371000206A40F001002062A86F90F88F00012815
:1037200004BF206A40F0040005D0022804BF206ACC
:1037300020F0040000D12062B5F8700040086063FA
:10374000602210212046FEF759FC206A40F010004C
:103750002062A86F90F88F00012804BF206A40F013
:10376000400005D0022804BF206A20F0400000D1AC
:103770002062B5F870004008A06360224FF48071A9
:103780002046FEF73BFC206A40F480702062A86F60
:1037900090F88F00012804BF206A40F4806005D0B3
:1037A000022804BF206A20F4806000D12062B5F8AE
:1037B00070004008E0630648686006486861064893
:1037C000E8600648A860002085F8470070BD00004A
:1037D00015340008D53C0008273B0008D53A0008FE
:1037E00070B50546806F846895F8470000283ED183
:1037F000602201212046FEF701FC206A40F0010012
:103800002062206A20F00400206200206063A86F1C
:1038100090F88F00012802D002280DD019E0102264
:1038200011462046FEF7EAFB206A20F010002062D5
:10383000206A40F040000BE0202210212046FEF7D5
:10384000DDFB206A40F010002062206A20F040007A
:10385000206270224FF480712046FEF7CFFB206A71
:1038600020F480702062206A20F480602062064884
:103870006860064868610648E8600648A86001205C
:1038800085F8470070BD0000CD380008C539000834
:1038900015390008D53A0008836FB0F870C00246A9
:1038A0009B680CFB01F1090C41865963032180F8E8
:1038B0003A10186A10F4805018BF0120118F0129A6
:1038C00018BF70470120002111877047826F9268EE
:1038D000136A23F48053136290F83A304FF03C0C93
:1038E000826F0CEB8303D2581268006E524200EBD9
:1038F0004200074A9042D8BF104605DD47F6FF72E6
:103900009042A8BF47F6FF700880488070470000CB
:103910000180FFFF10B4816F6FF0010389680B61B4
:103920000A6912F0010FFBD00B6101224A63B0F863
:103930007020521F0A640A6912F0010FFBD00B615C
:103940004A6C42F480624A644A6C42F400424A641F
:10395000826F92F88FC0BCF1020F2CD1D1F820C039
:1039600040F255541CEA040FD2F80CC010D09269F2
:10397000CCF81820D0F878C0DCF81020DCF81CC097
:10398000C2F818C0826F5069128C1204826112E072
:10399000128B1204CCF81820D0F878C0DCF8102074
:1039A000BCF81CC04FEA0C4CC2F818C0806F4269CA
:1039B000008C000490610B61C86840F00100C86091
:1039C00010BC7047816F002289684A63931E0B61A7
:1039D0000A6912F0010FFBD00B614A6C42F40042FD
:1039E0004A64816F91F88F20022A18BF7047CA6815
:1039F00089699161826F1169928B12048A61806F6B
:103A00004169008C0004886170474FF48011C166E1
:103A100090F8721080F83A10B0F87010491E8AB20F
:103A20000146806F4B8E806843638B8E8363CB8EA1
:103A3000C3630264006A10F4805018BF01200A8F2B
:103A4000012A18BF7047012000220A87704730B44E
:103A5000856F818FB0F87020B5F88640A2EB010C1D
:103A6000C38F1FFA8CFCA44506D9032180F83A10B5
:103A700091B2491E89B215E0CB1A9BB2B3EB4C0F41
:103A800084BFB5F88820891A0BD8214489B29142A5
:103A900008D34FF40012C266B0F87020C1EB4201A7
:103AA000491E89B2AB680246408E5863908E986377
:103AB000D08ED8631964186A10F4805018BF0120A2
:103AC000118F01291CBF30BC7047012000211187D4
:103AD00030BC7047816F8968CA6822F00102CA60F1
:103AE000002280F842204A6C22F400424A64826F2D
:103AF00092F88F30022B0DD1D368128B12049A6189
:103B0000836F1A699B8B1B049361826F5069128CBF
:103B1000120482616FF001020A61086910F0010F5E
:103B2000FBD00A61704710B4816F0022896880F869
:103B30004220B0F8702052084A63B0F87020520852
:103B40008A63B0F870205208CA63B0F87020521F20
:103B50000A646FF001030B610A6912F0010FFBD0D8
:103B60000B614A6C42F480624A644A6C42F400423F
:103B70004A64826F92F88FC0BCF1020F1BD1D1F85A
:103B800020C040F2555434EA0C0CD2F80CC019D0C5
:103B9000128B1204CCF81820D0F878C0DCF8102072
:103BA000BCF81CC04FEA0C4CC2F818C0826F5069B8
:103BB000128C120482610B61C86840F00100C86079
:103BC00010BC70479269CCF81820D0F878C0DCF8A7
:103BD0001020DCF81CC0C2F818C0826F5069126A4D
:103BE000E8E730B4D0F878C0DCE90012DCF808303F
:103BF0000C6804F00C04082C05D0002C08BFBCF89D
:103C000084C008D018E0D1F800C00CF00C0CBCF156
:103C10000C0FF8D110E05C6A6445FCD3D1F800C009
:103C20000CF00C0CBCF1080F06D1D1F800C00CF060
:103C30000C0CBCF10C0FF8D1D1F808C02CF4401CCE
:103C4000C1F808C0D2F808C02CF4401CC2F808C063
:103C5000D0F878C010F83A4F542505EB84045CF88E
:103C600004C0C1F838C0D0F83EC010F82E4B6C2507
:103C700005EB84045CF804C0C2F838C0D0F800C07A
:103C80008C680CF4702C24F4702444EA0C0CC1F8F9
:103C900008C050F804CB94680CF4702C24F4702401
:103CA00044EA0C0CC2F808C0D3F820C04CF4805C85
:103CB000C3F820C00368D1F808C04CEA03038B6046
:103CC00001689368194391604FF4801140F82619F8
:103CD00030BC7047816F0122D31E896880F8422072
:103CE0000B6100224A638A63CA630A6912F0010FFA
:103CF000FBD00B614A6C42F400424A64816F91F838
:103D00008F20022A18BF7047CA6889699161816F44
:103D10000A69C9699161816F4869096A816170475F
:103D20001D4910B451F82020D2F800C0127902EBDE
:103D30004203092A99BF4FF0007444EA0353174C19
:103D400004EB03531A434FF4407494FAA4F44FF471
:103D50000073B4FA84F4E3400CEB8303D3F82CC073
:103D600002F01F022CF01F0C4CEA0202DA6251F83A
:103D700020201268D36C0123520102F18442C2F860
:103D8000783151F820000068016811F0020FFBD073
:103D9000C06C10BC80B270470C090020000020FEEF
:103DA00010B50E4C6078012818BF10BD2078FFF7C1
:103DB000B7FF6080014602206070094A207852F8FF
:103DC0003030002B08BF10BD4FF0000C02EBC002DA
:103DD00084F801C05268BDE810401847D2060020A0
:103DE0001C09002070B4FF223C4B002153F821C075
:103DF000BCF1000F1DD09CF804400579AC4206D1FF
:103E0000DCF800C00468A44504BF0A460421491C2C
:103E1000C9B20429EAD3042A5CD243F82200304B09
:103E2000002143F8321001688B6813F0010F1AD19A
:103E300003E0042A88BF0A46E9E74B6823F0200321
:103E40004B6001686FF002030B6001684B6823F060
:103E500080034B6001686FF004030B6001688B689E
:103E600043F001038B600168CB6A23F47003CB62DB
:103E70000179D0F800C04FF00074092901EB41032B
:103E800092BF44EA0353174D05EB0353194383686C
:103E900094FAA4F401F00070B4FA84F4E0400CEB5E
:103EA0008000C46801F0F87C4FF0F87191FAA1F538
:103EB000B5FA85F591FAA1F12CFA05F50726B1FAC4
:103EC00081F106FA05F52CFA01F1AC4303FA01F190
:103ED0002143C16070BC1046704700000C090020EF
:103EE0001C090020000020FE002181604160C160AB
:103EF000016101214161704790F84800704701EB72
:103F0000410100EB81008089704701EB410100EB2A
:103F10008100B0F90E00704701EB410100EB810018
:103F2000B0F91000704701EB410100EB8100828184
:103F3000704701EB410100EB8100C281704701EB4A
:103F4000410100EB810002827047000070B5044619
:103F500090F82600FFF7E4FEA0F57F418446FF3984
:103F600021D094F82510206A20F811C00021228B5E
:103F70000846002A88BF236A07D900BF33F81050CB
:103F8000401CC0B229448242F8D8B1FBF2F0E08074
:103F9000A4F804C094F82500511E8842B4BF401C08
:103FA000002084F82500204600F002F8208170BD32
:103FB000C188428B914284BF02207047808B884227
:103FC0008CBF042000207047418B828B038B1144EF
:103FD0004A080021002B07D9036A23F81120491C45
:103FE000038B89B28B42F7D88280C280002180F88F
:103FF0002510704710B504460C30FFF7F3FE84F827
:1040000026002046FFF7E0FF10BDB0F90C00704716
:10401000B0F904007047B0F910007047806870472D
:10402000B0F90C10B0F91400C1EBC13191FBF0F004
:1040300000B2704730B4B1F90050012490F803C0C9
:1040400000230278002DBABF694289B20988858AA7
:104050008D4238BF0123C58A8D4288BF0123B0F944
:1040600012100029BABF494289B2418A058B8D429C
:1040700028BF002B04D062453CBF511CCAB202E0ED
:10408000624538BF0022624508BF00240270204606
:1040900030BC704770B50546007800280CBFAC688E
:1040A0006C68E968012904D9AA69A1F101011444E5
:1040B00005E005D169884FEA01444FF00001E9604D
:1040C000012805D0E01704EB10400014AC6070BD6F
:1040D000E01704EB104006146869FFF796FF301AEA
:1040E00001B22869FEF75CFF0104C5E9014170BD1A
:1040F0000178012918BF704700690021FEF747BF0A
:104100002DE9F0410446007817460D46012660B1BE
:104110006068C11700EB1140E18B0014A942A4BFF5
:10412000B4F924108D4212DA0FE0204600F051F865
:10413000E18CA94205DAB4F9281000268D421CDA78
:1041400003E0B4F928108D4208DA002615E0218C2E
:104150008D42BCBFB4F92210A942F6DB87B165805D
:10416000A18B4FF47A727943B1FBF2F1491C281A02
:10417000000490FBF1F0E160A0613046BDE8F08101
:1041800021782804012914BFA06060600020E0604D
:10419000F2E710B504464069FFF737FF000460609E
:1041A00010BD0146C28D098E62F30F0061F31F40FE
:1041B0007047C08B70474068C11700EB1140001476
:1041C0007047B0F92C007047B0F92400704740697F
:1041D00070478068C11700EB114000147047C0E9B8
:1041E000041290F82A100170818D09044160C18D7C
:1041F0000904816000214180C160816170470170C4
:104200000021C1607047416170470021C160816138
:104210007047027800210B2A04D109210170002186
:104220008180012108467047B0F802C003784CEA4B
:10423000010C2CEA02024280B0F804C00A2B4CEABE
:104240000101818005D012B10A2101700B46184688
:104250007047002AFBD10B2101700B46F7E78188DC
:10426000408841EA004070470078704700210170A3
:1042700041808180704710B502780024152A6CD2E5
:10428000DFE802F00E1B3033525E636669706B6BC1
:104290000B21262B3D424D584800002966D05CE09A
:1042A00003291CBF01290C2960D0072903D0002253
:1042B0008021FFF7B9FF204610BD07291CBF0D293B
:1042C0000E2953D049E00E2918BF07294ED044E0EB
:1042D0000F2918BF072949D03FE0022918BF072935
:1042E00044D03AE0072941D037E0072918BF102908
:1042F0003CD004291CBF1129012937D02DE01129F8
:1043000018BF072932D028E012291CBF0729142919
:104310002CD022E0122918BF072927D01DE004293C
:1043200018BF072922D018E013291CBF0729052927
:104330001CD012E004291CBF0729052916D00CE067
:10434000062918BF072911D007E007290ED004E07D
:1043500008290BD001E0092908D0032918BF012939
:10436000A9D0A2E7002918BF0C29F6D14FF001040B
:104370000170A0E710B50A4C2078022805D1FCF79F
:1043800023FFFDF7CDFA00202070C0B2401C207042
:10439000FEF7F0FBBDE81040024800F0F3B8000063
:1043A000D6060020D801002030B593B000241E4866
:1043B00002940394049405940C940D940E940F9419
:1043C0001094016841F080510160006800F0805055
:1043D00011901648016841F480410160006802258F
:1043E00000F48040119001200090000401908001B1
:1043F000CDE906500420CDE90A50A821CDE90801F5
:104400006846FDF7A3F80F20CDE90C054FF4A05046
:10441000CDE90E40E802109005210CA8FCF784FFBE
:10442000FDF72EF813B030BD403802400070004058
:104430000F48016841F4700101600E48016841F0C5
:10444000010101600C4A00211160026822F410226F
:1044500022F080720260031D084A1A60026822F48A
:1044600080220260064801600649580608607047CD
:1044700088ED00E000380240083802401030002487
:104480000C38024008ED00E070B5044690F8620078
:10449000022808BF70BD94F861100020012504298E
:1044A00007D0616E8860022084F8620084F8515061
:1044B00070BD84F85200A06EFFF789FEFFF7AEFDD5
:1044C00000EE100A9FED071A2046F8EEC00A80EEB3
:1044D000810AB0EE001ADFED040A00F08DF884F8CE
:1044E000625070BD83F92246DB0FC940DFED180A28
:1044F00090F85010B0EE601AB9B1D0ED160AD0EDB8
:10450000171A0022F8EE600A8265012960EEA11AEE
:10451000D0ED130A30EE602AC2EE210A05D990EDE3
:10452000111A30EEC12A82EE211A80ED130AC0ED75
:10453000110A02293CBF491C80F8501080ED0F1A67
:10454000C0ED100A80ED120A032180F86010704758
:104550000000000010B5806EFFF739FEFFF75EFD2A
:1045600000EE100A9FED031AF8EEC00A80EE810AF1
:1045700010BD000083F9224690ED000A704790EDCF
:10458000020A7047816D491C816570479FED190AC9
:104590004FF0000C80ED000A80ED030A80ED040A64
:1045A00080ED050A80ED060A80ED070A80ED080A15
:1045B00080ED090A80ED0A0A80ED0D0A80ED0E0AF1
:1045C00080ED0F0A80ED100A80ED110A80ED120ACD
:1045D00080ED130A80F850C0C0F858C080ED0B0A77
:1045E00080F851C080F860C04366C0E91A21A0F885
:1045F00054C070470000000090F860200021002A9D
:104600005ED1012180F85110D0ED0C1AB2EE022AD1
:1046100061EE821AC1EE212ABDEEE21AB8EEC11A8D
:1046200061EE211A30EE201AC0ED001A80ED010A69
:10463000C0ED030A80ED021A81EE821AF0EE001A34
:1046400080ED0A1A21EE212A80ED041A80ED052A58
:10465000B0EE082A21EE022A80ED062AB1EE082AE1
:1046600021EE022A80ED072AB1EE0C2A21EE022A61
:1046700080ED082AB2EE002A21EE022A80ED092AF6
:10468000B2EE082A21EE022A22EE012A62EE012A67
:1046900080EEA22A80ED0D2A62EE210A60EE810AE8
:1046A00060EE810AC0ED0E0ADFED060AC0ED0B0ACE
:1046B000C0ED100AC0ED0F0A80ED120A80F86010FC
:1046C0000846704700000000D0ED0B0AD0ED042A28
:1046D000DFED3D1A90ED002A90ED0C1AF4EEE20A9F
:1046E000B0EE610AF1EE10FA33D3D0ED052AF4EE04
:1046F000E20AF1EE10FA2ED3D0ED062AF4EEE20A29
:10470000F1EE10FA14D3D0ED072AF4EEE20AF1EE3E
:1047100010FA06D2C0ED0F1AD0ED0E2AC0ED102A05
:1047200019E0D0ED082AF4EEE20AF1EE10FA04D214
:1047300090ED0D0AB1EE400A0DE0D0ED092AF4EE3D
:10474000E20AF1EE10FA06D3F4EEC20AF1EE10FA24
:1047500006D290ED0D0A90F8601001291AD107E0F9
:1047600090ED020A022180ED120A80F8601011E03B
:10477000D0ED0F2A40EE012AC0ED0F2A90ED100A6D
:1047800002EE810A80ED100AD0ED122A40EE012AD5
:10479000C0ED122A30EE810A72EE010A80ED0B0A9A
:1047A000F4EEC00AF1EE10FA28BF704790F86210DC
:1047B000012904BF052180F86210C0ED0B1A002109
:1047C00080F86010704700000000000070B50446DB
:1047D00090F86000012804BF2046FFF775FF94F8A9
:1047E000600003280FD194ED100A94ED0F1AD4ED58
:1047F0000C0A01EE200A84ED100A94ED121A00EE64
:10480000201A84ED121A94F85100012818BF70BDC7
:1048100094ED120ADFED0E0AA06E20EE200ABDEE26
:10482000C00A10EE105AFFF7D2FCFFF7F7FB291A67
:10483000E06EFEF76FFB05460021A06EFFF7DFFC80
:104840002946A06EBDE870400022FFF759BC000069
:1048500083F922460748006AC16811F0010F1ABFA8
:10486000016911F0010F70476FF00101016101480A
:10487000FBF7E7BE30030020084810B5806F806862
:10488000016911F0800F05D06FF0800101610348CC
:10489000FEF70AFDBDE81040FEF77CB97C0200205F
:1048A00004486FF00101806F806801610148FFF7E3
:1048B00098B900007C020020F0B402682C4B2D4C0B
:1048C0002D4D2E4EDFF8B8C0984218BFB0F1804F82
:1048D00007D0A04218BFA84203D0B04218BF60451D
:1048E00004D14F6822F0700247EA0202984218BFD2
:1048F000B0F1804F25D0A04218BFA84221D0B042CD
:1049000018BF60451DD0A0F18044B4F5A0341CBF91
:10491000A0F18044B4F5A23413D0A0F18044B4F5E2
:10492000A4341CBFA0F18044B4F5C05409D0A0F158
:104930008044B4F5E0541CBFA0F18044B4F50054A9
:1049400003D1CC6822F4407222434C6922F08002E9
:10495000224302608A68C2620A688262984212BF79
:104960006045096901634FF001014161F0BC704786
:10497000000001400004004000080040000C00401E
:104980000004014002689368D1F804C023F070036A
:104990004CEA0303D1F800C023F007034CEA0303F9
:1049A00093604A6812F00F0F59D11211082A56D29B
:1049B000DFE802F055555555122B41040068D1E946
:1049C0000232D1F810C0816843EA0C2321F47F4100
:1049D0001A431143816042E00A68052A04BF01209E
:1049E00070470268136AD2F820C02CF0010CC2F89C
:1049F00020C00268D2F818C009692CF0F00C4CEA0B
:104A0000011191610068036229E000680B698A68FE
:104A1000016AD0F820C02CF0010CC0F820C0D0F8FA
:104A200018C021F00A012CF0F00C4CEA03131143DA
:104A30008361016213E000688A680969036A23F0F0
:104A400010030362D0F818C0036A2CF4704C4CEACF
:104A5000013123F0A00343EA0212816102620020C7
:104A600070470000034900208988002908BF012001
:104A7000704700008C060020054810B50068FFF75D
:104A800029F80022BDE8104080210248FFF7CCBB86
:104A9000BC060020CC0600202DE9F84F4FF0000A9C
:104AA0002C48FBF70DFD2C480068FFF790FB834670
:104AB000FFF7AEFADFF8A49007466946D9F8000080
:104AC000FEF701FB0098FDF7B3FB80463946FDF782
:104AD000D5FB234C064631B2B4F91000411AA9F1B6
:104AE0001C000068FEF75CFA60F30F05B4F91200D1
:104AF000A0EB2641A9F118000068FEF751FA2946FB
:104B000060F31F4109F108000068FBF707FC054648
:104B10005846FFF780FA39462846FDF7F1FB8346F1
:104B20005946D9F80000FEF7D0FAC4F8165000999B
:104B3000E660C4E90018C4F81AB02784012805D13A
:104B40000022012109F11000FFF76EFB5046BDE87D
:104B5000F88F00003003002098060020BC060020DB
:104B60007008002038B50020ADF8000069468D4877
:104B7000FBF7BDFC8C480068FEF752FA8B48FFF744
:104B800073FB132828BF38BDDFE800F00A60A519C1
:104B90009CC8DBE7FDFB1818186C7B8832414E007F
:104BA0008348FBF75BFC002808BF38BD0021804824
:104BB000FBF75FFC03217D48FFF75DFB38BD7C48B8
:104BC000FBF755FC58B17B480068FFF783F81420C9
:104BD00000F062F910217548FFF74DFB38BD012147
:104BE0007348FBF746FC01217048FFF744FB38BDD2
:104BF000FFF738FF002808BF38BD6E480021006865
:104C0000FEF740FA11216948FFF735FB38BD6948C6
:104C100001210068FEF736FA002808BF38BD1221CE
:104C20006248FFF728FB38BD5E48FBF7F5FC04211E
:104C30005E48FFF720FB002808BF38BD0020FBF7C7
:104C4000D9FD5C480068FEF76EFF38BD5948006822
:104C5000FFF740F8142000F01FF90D215348FFF72B
:104C60000AFB38BDFFF7FEFE002808BF38BD5148DB
:104C700000210068FEF706FA0E214C48FFF7FBFA08
:104C800038BD4C4801210068FEF7FCF9002808BF38
:104C900038BD0F214548FFF7EEFA38BD46490120DF
:104CA00081F82400454846490068FFF7ACFA4048BF
:104CB000FBF7E1FB02213D48FFF7DDFA002808BFC2
:104CC00038BDBBE73F480068FFF7DEFB05213748EA
:104CD000FFF7D1FA38BD3648FBF7A6FB90B135484F
:104CE0000068FEF7F7FE354C01212068FFF787FAD0
:104CF0002C492068FFF787FA072104F13400FFF7F9
:104D0000BAFA38BD002060F30F042C480068FFF7A2
:104D1000C1F960F31F442848046138BD0020FBF747
:104D20009FFD0020FBF74CFD06212048FFF7A3FA6A
:104D300022480068FFF72DFA23480068FDF79AF92A
:104D400038BD20480068FFF741FD1F480068FDF7A7
:104D500091F90020FBF734FD38BD16480068FEF7D6
:104D6000B9FE0020FBF746FD0F480068FEF753F838
:104D70004FF4487000F096F808210C48FFF77BFAD2
:104D800038BD0AE0FFE700F093F8002808BF38BDFF
:104D900009210648FFF76FFA38BD00210348FFF7E5
:104DA0006AFA38BD30030020C0060020CC0600207F
:104DB000AC030020BC0600207008002098060020EC
:104DC000F8020020B0060020940600200648007873
:104DD000012818BF704710B5002000F007F8BDE8A3
:104DE0001040FEF7DDBF00008C060020F8B5044639
:104DF000234800680090234850F82400FEF738F854
:104E00003DF81410204F00EA010557F82400FEF782
:104E100037F9054344B9A7F13000006AFFF796F867
:104E2000BDF8001008400543E84382B2174804EB80
:104E3000440100EB410629463046FFF7F5F93046BC
:104E4000FFF712FA0A2806D00B2804BF57F82400EF
:104E5000FEF728FAF8BD0E4850F8240000281CBFC1
:104E60000021FBF706FB57F82400FEF71BFA20464B
:104E7000FBF7C0FC074850F82400FDF7CCFFF8BD55
:104E800024630008B8060020BC060020CC060020E1
:104E9000A8060020C0060020014988807047000055
:104EA0008C0600200149C880704700008C06002055
:104EB00003490020C988002908BF0120704700006D
:104EC0008C0600202DE9F041044600680169E26883
:104ED00021F44051114301612169A068E26908434E
:104EE0006169114308432168CA6822F4037222F4FD
:104EF00014421043C86020684169A26921F44071DE
:104F000011434161E2693226B2F5004FBA48BB490C
:104F1000BB4D22685DD08A4218BF824240F01281A8
:104F2000FCF7CAFA00EBC00101EB001061688900D0
:104F3000B0FBF1F7FCF7C0FA00EBC00101EB001089
:104F400061688900B0FBF1F0A5FB001040096FF02B
:104F50001801484307EB800006EB0010A5FB00108A
:104F6000400900F0F007FCF7A7FA00EBC00101EBE5
:104F7000001061688900B0FBF1F0A5FB001040094A
:104F800007EB0017FCF798FA00EBC00101EB0010EB
:104F900061688900B0FBF1F8FCF78EFA00EBC00104
:104FA00001EB001061688900B0FBF1F0A5FB001077
:104FB00040096FF01801484308EB800006EB001031
:104FC000A5FB00102168C0F3431038448860BDE899
:104FD000F0818A4218BF824259D1FCF76DFA00EB8A
:104FE000C00101EB001061684900B0FBF1F0A5FBC6
:104FF000001040090701FCF75FFA00EBC00101EB6C
:10500000001061684900B0FBF1F8FCF755FA00EBBD
:10501000C00101EB001061684900B0FBF1F0A5FB95
:10502000001040096FF01801484308EB800006EBC0
:10503000C000A5FB0010400900F0F80007EB400796
:10504000FCF73AFA00EBC00101EB0010616849007F
:10505000B0FBF1F8FCF730FA00EBC00101EB0010F7
:1050600061684900B0FBF1F0A5FB001040096FF04A
:105070001801484308EB800006EBC000A5FB0010B8
:105080002168C0F3421038448860BDE8F081FCF725
:1050900003FA00EBC00101EB001061684900B0FBAE
:1050A000F1F0A5FB001040090701FCF7F5F900EB52
:1050B000C00101EB001061684900B0FBF1F8FCF79A
:1050C000EBF900EBC00101EB001061684900B0FB97
:1050D000F1F0A5FB001040096FF01801484308EB00
:1050E000800006EBC000A5FB0010400900F0F800AE
:1050F00007EB4007FCF7D0F900EBC00101EB001013
:1051000061684900B0FBF1F8FCF7C6F900EBC0019B
:1051100001EB001061684900B0FBF1F0A5FB001045
:1051200040096FF01801484308EB800006EBC0000F
:10513000A5FB00102168C0F3421038448860BDE828
:10514000F08100BFFCF7A8F900EBC00101EB0010F3
:1051500061688900B0FBF1F7FCF79EF900EBC00134
:1051600001EB001061688900B0FBF1F0A5FB0010B5
:1051700040096FF01801484307EB800006EB001070
:10518000A5FB0010400900F0F007FCF785F900EBE3
:10519000C00101EB001061688900B0FBF1F0A5FBD4
:1051A0000010400907EB0017FCF776F900EBC0018F
:1051B00001EB001061688900B0FBF1F8FCF76CF9B5
:1051C00000EBC00101EB001061688900B0FBF1F059
:1051D000A5FB001040096FF01801484308EB800060
:1051E00006EB0010A5FB00102168C0F34310384403
:1051F0008860BDE8F081000000140140001001400B
:105200001F85EB51002180F81C117047FBF7BBBADA
:1052100008B508218DF8001001236A46FF2100F02F
:1052200075F808BD38B590F81C212B4D0446002AAE
:105230004FD094F81D31C9B28BB10022012B15D08B
:1052400094F89AC00CF1020C63451AD204F199004B
:10525000195494F81D01401C84F81D0139E084F8AC
:105260009910208A60821D4D0120F5E784F89A107C
:10527000022084F81D01C8B2802828BF84F81D21AF
:1052800027E084F81B116282D4F82001144DC16814
:1052900021F02001C16084F81C2104F19900FBF782
:1052A0005BFA94F81B1188420AD1D4F808C094F82C
:1052B0009A3094F8991004F19B022068E04708E0C6
:1052C0000A208DF8000001236A46FF21204600F0E5
:1052D0001DF8284638BD0000F0650008F26500089A
:1052E000F465000890F81C1100291CBF01207047CC
:1052F000002180F81D11012180F81C11D0F8200137
:10530000C16841F02001C1600220704710B5044619
:1053100090F8970000281CBF012010BD04F1160C66
:105320002175581E6375C0B207D300BF12F8011B68
:10533000401E0CF8011BC0B2F8D204F11400FBF7B8
:105340000BFA84F89600002184F89810012184F863
:105350009710D4F82001C16841F08001C16002209B
:1053600010BD90F897200146002A08BF704791F8B9
:105370009820002A08BF0A7D0CD0012A08BF4A7D68
:1053800008D04B7D9B1C9A423ABF01F11403D25CBA
:1053900091F89620D0F820315A604B7D91F89820F2
:1053A0009B1C9A423EBF501C81F898007047D1F870
:1053B0002001C26822F08002C260002081F89700BC
:1053C000D1E9000108478169002908BF70470847F3
:1053D0004169002908BF70470847000070B5064CB6
:1053E0000546A06800F089FAA84218BF70BDA06801
:1053F000BDE87040FFF7E7BFD806002070B5026A2D
:1054000090F82C0001240F2952F820502AD2DFE80E
:1054100001F0291915082A2A111D212529292929D0
:1054200015002846FCF7C8FE062804BF2846FCF7EE
:10543000FBFE18E02846FCF7BFFE18B12846FCF733
:10544000EFFE10E02846FCF7E0FE0CE02846FCF7F3
:105450008FFE08E02846FCF709FE04E02846FCF72A
:10546000FDFD00E00024204670BD10B5016A90F8F3
:105470002C0051F82000FCF739FE012010BD00007F
:1054800010B5036A90F82C0001EB8101DFF81CC015
:1054900053F820004B000021CCFB03135911A1EB62
:1054A000E37109B2FCF754FE012010BD8988888899
:1054B00010B5036A90F82C0053F82000FCF74FFE5B
:1054C000012010BD034689209A68002A08BF704752
:1054D00018461047002070472DE9F0418446436A82
:1054E00090F82C00DCF82040012553F8203054F8C7
:1054F00020600020002A18BF1570EA4C262900F011
:10550000B08117DC262980F0C881DFE801F04F5414
:1055100059985E6B707592BBC0C5CAD0D5DAF1F1EF
:10552000F1F1F1F1F1F1F17A7FDFE4F284EFEEF1E4
:10553000EDECEBEA41297BD013DCA1F127011A291C
:1055400080F0AB81DFE801F0D2D1F5F4F3F2F1F0B5
:10555000F6EED4D4D4D4D4D4D4D4D4D4D4D4DAE3BA
:10556000EDEC812908BFBDE8F08115DC702904BF8E
:10557000CD48BDE8F08107DC5B2965D06E2977D086
:105580006F297AD000F089B972290CBF04207329E1
:1055900040F08381BDE8F081A1F18301062980F00C
:1055A0007C81DFE801F0FEFDFCFBFAF9604600F0CB
:1055B000A4F9BDE8F081986ABDE8F041FEF74FBE5E
:1055C000986ABDE8F041FEF74FBE3046FCF7F1FDAA
:1055D000C0EB0010800084FB00108110A1EBE07094
:1055E000BDE8F0811868BDE8F041FDF7C1BC18685E
:1055F000BDE8F041FDF7B7BC1868BDE8F041FDF724
:10560000AFBC186BBDE8F04100F03ABBD86ABDE80A
:10561000F041FDF74DBC3046FCF7ADFDC0EB00108E
:10562000800084FB00108110A1EBE070BDE8F081E8
:1056300037E03046FCF7B2FD00B2BDE8F0813046FD
:10564000BDE8F041FCF79FBD3046FCF79CFD01280A
:10565000BBD13046FCF7A5FDC0EB0010800084FBF9
:1056600000108110A1EBE070BDE8F08100E004E0E3
:105670001868BDE8F041FDF77EBC1868BDE8F04150
:10568000FDF774BC5868BDE8F041FDF771BC58687F
:10569000BDE8F041FDF767BC5868BDE8F041FDF793
:1056A0005FBC3046FCF77AFD0014BDE8F0819868D5
:1056B000BDE8F041FDF75CBC9868BDE8F041FDF73E
:1056C00052BC9868BDE8F041FDF74ABCD86BBDE814
:1056D000F041FDF7ADBB00216046FFF7F3FEBDE8EA
:1056E000F081BAE0B4E0AEE0A4E09FE09AE000E030
:1056F000D3E001216046FFF7E5FEF0E7DCF810207B
:10570000002AECD0BDE8F041002160461047DCF8EB
:105710001020002AE3D0BDE8F04101216046104787
:1057200074E068E022E005E0B3E0AEE0A9E0A4E0C8
:105730009FE09AE09CF82C20DCF828104FF0020C37
:1057400051F822200021BCEB127F14BFB5EB127F71
:105750009969C2F30362022A14BF012AD969002998
:10576000BDD0BDE8F0410846FEF752BC9CF82C20A5
:10577000DCF828104FF0020C51F822200021BCEB7D
:10578000127F14BFB5EB127F9969C2F30362022A3C
:1057900014BF012AD96905E027E020E019E012E0F2
:1057A0000DE006E000299AD0BDE8F0410846FEF77A
:1057B00037BC986CFEF7CEFE10EE100A8FE7986C9F
:1057C000FEF7DDFE02E0986CFEF7D6FE10EE100A42
:1057D00085E7986CC06EBDE8F041FDF7C9BB986CD9
:1057E000C06EBDE8F041FDF7BEBB986CC06EBDE871
:1057F000F041FDF7B5BB586AFEF7DBFCC0EB0010CB
:105800002A498000A1FB0010C00868E7586AFEF72B
:10581000DBFCC0EB0010800084FB00108110A1EBCA
:10582000E0705CE73046FCF7B6FC0FE03046FCF772
:10583000B2FC10E0596900293FF451AFBDE8F041D6
:105840000846FEF759BB3046FCF79FFC00B246E71E
:105850003046FCF79AFC001441E73046FCF798FC10
:10586000F4E73046FCF794FCF5E73046FCF796FC8D
:10587000ECE73046FCF792FCEDE73046FCF7A7FC7E
:10588000E4E73046FCF7A3FCE5E73046FCF79BFC79
:10589000DCE73046FCF797FCDDE7002A1CBF00215F
:1058A00011701CE7676666667A84A634CDCCCCCCD2
:1058B0002DE9F0478946416A90F82C000124DDF873
:1058C000208051F820001E4617464569002D08BF6C
:1058D00000240FD049462846FEF711FB3880494680
:1058E0002846FEF712FB308049462846FEF714FB97
:1058F000A8F800002046BDE8F08790F82C0070471B
:1059000010B5FDF72BF918B1BDE81040FDF768B9E7
:10591000BDE81040FDF75EB9DDF800C00177002159
:10592000C0E9082380F82C10C0F828C07047000098
:105930000948418811B14188491E41808188012967
:1059400002D98188491E81800188012998BF70474A
:105950000188491E01807047D8060020037F01227C
:105960008B4294BF002280F82C1010467047000034
:1059700001494F2088807047D80600200149002047
:1059800088807047D8060020D0F820C090F82C00FE
:1059900061F30F0319465CF8200062F31F41FCF726
:1059A00025BC4368002B08BF704718472DE9F0411C
:1059B00015460246036A90F82C0001262CB253F8D3
:1059C0002070536A0C2953F8200076D009DC0C298A
:1059D00019D2DFE801F01C1818411832373C586220
:1059E000676D5B2919D008DC0D2977D00E297AD094
:1059F0000F297DD041296DD005E086296BD08729FC
:105A00006AD0882969D000263046BDE8F081E9B225
:105A10001046FFF7A3FF0646F6E705EB8500424A6E
:105A200040000021C2FB00104111A1EBE07001B267
:105A300000223846FCF78CFBE6E700682146FDF7BC
:105A4000ACFAE1E700682146FDF7A5FADCE700685B
:105A50002146FDF79EFAD7E715F0FF0F07D138462C
:105A6000FCF7ADFB014600223846FCF778FBE8B2B4
:105A70000128C9D13846FCF79CFB01460022384674
:105A8000FCF766FBC0E73846FCF788FB64F30F00C1
:105A900001463846FCF7AAFBB6E740682146FDF709
:105AA0007CFAB1E740682146FDF775FAACE704E0FF
:105AB00040682146FDF76DFAA6E73846FCF76EFB15
:105AC00064F31F4001463846FCF790FB9CE705E075
:105AD00009E00DE011E015E01AE01FE080682146C2
